{"contracts/CheckExecutor.sol":{"CheckExecutor":{"abi":[{"inputs":[{"internalType":"address","name":"a","type":"address"}],"stateMutability":"nonpayable","type":"constructor"},{"anonymous":false,"inputs":[{"indexed":false,"internalType":"address","name":"checkOwner","type":"address"},{"indexed":true,"internalType":"address","name":"to","type":"address"},{"indexed":false,"internalType":"uint256","name":"value","type":"uint256"},{"indexed":false,"internalType":"bytes","name":"data","type":"bytes"},{"indexed":false,"internalType":"enum Enum.Operation","name":"operation","type":"uint8"}],"name":"ExecuteCheckFailure","type":"event"},{"anonymous":false,"inputs":[{"indexed":false,"internalType":"address","name":"checkOwner","type":"address"},{"indexed":true,"internalType":"address","name":"to","type":"address"},{"indexed":false,"internalType":"uint256","name":"value","type":"uint256"},{"indexed":false,"internalType":"bytes","name":"data","type":"bytes"},{"indexed":false,"internalType":"enum Enum.Operation","name":"operation","type":"uint8"}],"name":"ExecuteCheckSuccess","type":"event"},{"stateMutability":"payable","type":"fallback"},{"inputs":[{"internalType":"bytes","name":"checkMsg","type":"bytes"}],"name":"checkValidity","outputs":[{"internalType":"bool","name":"","type":"bool"}],"stateMutability":"view","type":"function"},{"inputs":[],"name":"domainSeparator","outputs":[{"internalType":"bytes32","name":"","type":"bytes32"}],"stateMutability":"view","type":"function"},{"inputs":[{"components":[{"internalType":"address","name":"checkOwner","type":"address"},{"internalType":"address","name":"to","type":"address"},{"internalType":"uint256","name":"value","type":"uint256"},{"internalType":"bytes","name":"data","type":"bytes"},{"internalType":"enum Enum.Operation","name":"operation","type":"uint8"},{"internalType":"uint256","name":"safeTxGas","type":"uint256"},{"internalType":"uint256","name":"baseGas","type":"uint256"},{"internalType":"uint256","name":"gasPrice","type":"uint256"},{"internalType":"address","name":"gasToken","type":"address"},{"internalType":"address payable","name":"refundReceiver","type":"address"},{"internalType":"uint256","name":"checkNonce","type":"uint256"},{"internalType":"bytes","name":"signatures","type":"bytes"}],"internalType":"struct CheckExecutor.CheckInfo","name":"checkInfo","type":"tuple"}],"name":"encodeCheckExecutionData","outputs":[{"internalType":"bytes","name":"","type":"bytes"}],"stateMutability":"view","type":"function"},{"inputs":[{"components":[{"internalType":"address","name":"checkOwner","type":"address"},{"internalType":"address","name":"to","type":"address"},{"internalType":"uint256","name":"value","type":"uint256"},{"internalType":"bytes","name":"data","type":"bytes"},{"internalType":"enum Enum.Operation","name":"operation","type":"uint8"},{"internalType":"uint256","name":"safeTxGas","type":"uint256"},{"internalType":"uint256","name":"baseGas","type":"uint256"},{"internalType":"uint256","name":"gasPrice","type":"uint256"},{"internalType":"address","name":"gasToken","type":"address"},{"internalType":"address payable","name":"refundReceiver","type":"address"},{"internalType":"uint256","name":"checkNonce","type":"uint256"},{"internalType":"bytes","name":"signatures","type":"bytes"}],"internalType":"struct CheckExecutor.CheckInfo","name":"checkInfo","type":"tuple"}],"name":"encodeCheckExecutionData_1","outputs":[{"internalType":"bytes","name":"e1","type":"bytes"}],"stateMutability":"pure","type":"function"},{"inputs":[{"components":[{"internalType":"address","name":"checkOwner","type":"address"},{"internalType":"address","name":"to","type":"address"},{"internalType":"uint256","name":"value","type":"uint256"},{"internalType":"bytes","name":"data","type":"bytes"},{"internalType":"enum Enum.Operation","name":"operation","type":"uint8"},{"internalType":"uint256","name":"safeTxGas","type":"uint256"},{"internalType":"uint256","name":"baseGas","type":"uint256"},{"internalType":"uint256","name":"gasPrice","type":"uint256"},{"internalType":"address","name":"gasToken","type":"address"},{"internalType":"address payable","name":"refundReceiver","type":"address"},{"internalType":"uint256","name":"checkNonce","type":"uint256"},{"internalType":"bytes","name":"signatures","type":"bytes"}],"internalType":"struct CheckExecutor.CheckInfo","name":"checkInfo","type":"tuple"}],"name":"encodeCheckExecutionData_2","outputs":[{"internalType":"bytes","name":"e2","type":"bytes"}],"stateMutability":"pure","type":"function"},{"inputs":[{"internalType":"bytes","name":"checkMsg","type":"bytes"}],"name":"executeCheck","outputs":[{"internalType":"bool","name":"success","type":"bool"}],"stateMutability":"nonpayable","type":"function"},{"inputs":[],"name":"getChainId","outputs":[{"internalType":"uint256","name":"","type":"uint256"}],"stateMutability":"pure","type":"function"},{"stateMutability":"payable","type":"receive"}],"evm":{"bytecode":{"linkReferences":{},"object":"60a06040523480156200001157600080fd5b5060405162001a7f38038062001a7f83398181016040528101906200003791906200008c565b8073ffffffffffffffffffffffffffffffffffffffff1660808173ffffffffffffffffffffffffffffffffffffffff1660601b815250505062000106565b6000815190506200008681620000ec565b92915050565b6000602082840312156200009f57600080fd5b6000620000af8482850162000075565b91505092915050565b6000620000c582620000cc565b9050919050565b600073ffffffffffffffffffffffffffffffffffffffff82169050919050565b620000f781620000b8565b81146200010357600080fd5b50565b60805160601c61195662000129600039806102c0528061050352506119566000f3fe6080604052600436106100745760003560e01c806367480d501161004e57806367480d50146101225780636799c7701461015f5780637c7797841461019c578063f698da25146101d95761007b565b80632a2a09bc1461007d5780633408e470146100ba57806338bc0b07146100e55761007b565b3661007b57005b005b34801561008957600080fd5b506100a4600480360381019061009f91906110c8565b610204565b6040516100b1919061148a565b60405180910390f35b3480156100c657600080fd5b506100cf61035c565b6040516100dc919061167c565b60405180910390f35b3480156100f157600080fd5b5061010c60048036038101906101079190611109565b610369565b60405161011991906115ba565b60405180910390f35b34801561012e57600080fd5b50610149600480360381019061014491906110c8565b6103cd565b604051610156919061148a565b60405180910390f35b34801561016b57600080fd5b5061018660048036038101906101819190611109565b61075d565b60405161019391906115ba565b60405180910390f35b3480156101a857600080fd5b506101c360048036038101906101be9190611109565b61079f565b6040516101d091906115ba565b60405180910390f35b3480156101e557600080fd5b506101ee61081c565b6040516101fb91906114a5565b60405180910390f35b600080600061021284610878565b905060001515600080836101400151815260200190815260200160002060009054906101000a900460ff1615151461027f576040517f08c379a00000000000000000000000000000000000000000000000000000000081526004016102769061161c565b60405180910390fd5b600061028a82610369565b905060011515600080846101400151815260200190815260200160002060009054906101000a90505050808051906020012092507f000000000000000000000000000000000000000000000000000000000000000073ffffffffffffffffffffffffffffffffffffffff1663934f3a1184838561016001516040518463ffffffff1660e01b81526004016103209392919061153e565b60006040518083038186803b15801561033857600080fd5b505afa15801561034c573d6000803e3d6000fd5b5050505050600192505050919050565b6000804690508091505090565b606060006103876103798461079f565b6103828561075d565b61089b565b805190602001209050601960f81b600160f81b6103a261081c565b836040516020016103b694939291906113cc565b604051602081830303815290604052915050919050565b60008060006103db84610878565b905060001515600080836101400151815260200190815260200160002060009054906101000a900460ff16151514610448576040517f08c379a000000000000000000000000000000000000000000000000000000000815260040161043f9061161c565b60405180910390fd5b6001600080836101400151815260200190815260200160002060006101000a81548160ff021916908315150217905550806000015173ffffffffffffffffffffffffffffffffffffffff163373ffffffffffffffffffffffffffffffffffffffff16146104ea576040517f08c379a00000000000000000000000000000000000000000000000000000000081526004016104e1906115fc565b60405180910390fd5b60006104f582610369565b9050808051906020012092507f000000000000000000000000000000000000000000000000000000000000000073ffffffffffffffffffffffffffffffffffffffff1663934f3a1184838561016001516040518463ffffffff1660e01b81526004016105639392919061153e565b60006040518083038186803b15801561057b57600080fd5b505afa15801561058f573d6000803e3d6000fd5b505050505060005a90506105d1826020015183604001518460600151856080015160008760e00151146105c6578660a001516105cc565b6109c45a035b6108c7565b93506105e65a8261091390919063ffffffff16565b905083806105f9575060008260a0015114155b80610609575060008260e0015114155b610648576040517f08c379a000000000000000000000000000000000000000000000000000000000815260040161063f9061165c565b60405180910390fd5b6000808360e00151111561067857610675828460c001518560e00151866101000151876101200151610933565b90505b84156106eb57826020015173ffffffffffffffffffffffffffffffffffffffff167fb84985ee6912e169f5f446f739bfe323890314ccd37862ae1452cbba5fe18c1284600001518560400151866060015187608001516040516106de949392919061143e565b60405180910390a2610754565b826020015173ffffffffffffffffffffffffffffffffffffffff167f071547af80e3d5a99bba7bbc9bfb5606512d75cfb1d4e2aee66face3f539100a846000015185604001518660600151876080015160405161074b949392919061143e565b60405180910390a25b50505050919050565b60608160e001518261010001518361012001518461014001516040516020016107899493929190611697565b6040516020818303038152906040529050919050565b60607fe862762e9cc423ab9325aacefda6c3feadcb9e6aa390fbbd3667781066ee542960001b82600001518360200151846040015185606001518051906020012086608001518760a001518860c001516040516020016108069897969594939291906114c0565b6040516020818303038152906040529050919050565b60007f47e79534a245952e8b16893a336b85a3d9ea9fa8c573f3d803afb92a7946921860001b61084a61035c565b3060405160200161085d93929190611583565b60405160208183030381529060405280519060200120905090565b610880610bf0565b81806020019051810190610894919061114a565b9050919050565b606082826040516020016108b092919061141a565b604051602081830303815290604052905092915050565b60006001808111156108d557fe5b8360018111156108e157fe5b14156108fa576000808551602087018986f4905061090a565b600080855160208701888a87f190505b95945050505050565b60008282111561092257600080fd5b600082840390508091505092915050565b600080600073ffffffffffffffffffffffffffffffffffffffff168373ffffffffffffffffffffffffffffffffffffffff16146109705782610972565b325b9050600073ffffffffffffffffffffffffffffffffffffffff168473ffffffffffffffffffffffffffffffffffffffff161415610a57576109dc3a86106109b9573a6109bb565b855b6109ce888a610ad390919063ffffffff16565b610af290919063ffffffff16565b91508073ffffffffffffffffffffffffffffffffffffffff166108fc839081150290604051600060405180830381858888f19350505050610a52576040517f08c379a0000000000000000000000000000000000000000000000000000000008152600401610a49906115dc565b60405180910390fd5b610ac9565b610a7c85610a6e888a610ad390919063ffffffff16565b610af290919063ffffffff16565b9150610a89848284610b2c565b610ac8576040517f08c379a0000000000000000000000000000000000000000000000000000000008152600401610abf9061163c565b60405180910390fd5b5b5095945050505050565b600080828401905083811015610ae857600080fd5b8091505092915050565b600080831415610b055760009050610b26565b6000828402905082848281610b1657fe5b0414610b2157600080fd5b809150505b92915050565b60008063a9059cbb8484604051602401808373ffffffffffffffffffffffffffffffffffffffff168152602001828152602001925050506040516020818303038152906040529060e01b6020820180517bffffffffffffffffffffffffffffffffffffffffffffffffffffffff83818316178352505050509050602060008251602084016000896127105a03f13d60008114610bd35760208114610bdb5760009350610be6565b819350610be6565b600051158215171593505b5050509392505050565b604051806101800160405280600073ffffffffffffffffffffffffffffffffffffffff168152602001600073ffffffffffffffffffffffffffffffffffffffff168152602001600081526020016060815260200160006001811115610c5157fe5b8152602001600081526020016000815260200160008152602001600073ffffffffffffffffffffffffffffffffffffffff168152602001600073ffffffffffffffffffffffffffffffffffffffff16815260200160008152602001606081525090565b6000610cc7610cc28461170d565b6116dc565b905082815260208101848484011115610cdf57600080fd5b610cea84828561184e565b509392505050565b6000610d05610d008461170d565b6116dc565b905082815260208101848484011115610d1d57600080fd5b610d2884828561185d565b509392505050565b600081359050610d3f816118cb565b92915050565b600081519050610d54816118cb565b92915050565b600081359050610d69816118e2565b92915050565b600081519050610d7e816118e2565b92915050565b600082601f830112610d9557600080fd5b8135610da5848260208601610cb4565b91505092915050565b600082601f830112610dbf57600080fd5b8151610dcf848260208601610cf2565b91505092915050565b600081359050610de7816118f9565b92915050565b600081519050610dfc816118f9565b92915050565b60006101808284031215610e1557600080fd5b610e206101806116dc565b90506000610e3084828501610d30565b6000830152506020610e4484828501610d30565b6020830152506040610e588482850161109e565b604083015250606082013567ffffffffffffffff811115610e7857600080fd5b610e8484828501610d84565b6060830152506080610e9884828501610dd8565b60808301525060a0610eac8482850161109e565b60a08301525060c0610ec08482850161109e565b60c08301525060e0610ed48482850161109e565b60e083015250610100610ee984828501610d30565b61010083015250610120610eff84828501610d5a565b61012083015250610140610f158482850161109e565b6101408301525061016082013567ffffffffffffffff811115610f3757600080fd5b610f4384828501610d84565b6101608301525092915050565b60006101808284031215610f6357600080fd5b610f6e6101806116dc565b90506000610f7e84828501610d45565b6000830152506020610f9284828501610d45565b6020830152506040610fa6848285016110b3565b604083015250606082015167ffffffffffffffff811115610fc657600080fd5b610fd284828501610dae565b6060830152506080610fe684828501610ded565b60808301525060a0610ffa848285016110b3565b60a08301525060c061100e848285016110b3565b60c08301525060e0611022848285016110b3565b60e08301525061010061103784828501610d45565b6101008301525061012061104d84828501610d6f565b61012083015250610140611063848285016110b3565b6101408301525061016082015167ffffffffffffffff81111561108557600080fd5b61109184828501610dae565b6101608301525092915050565b6000813590506110ad81611909565b92915050565b6000815190506110c281611909565b92915050565b6000602082840312156110da57600080fd5b600082013567ffffffffffffffff8111156110f457600080fd5b61110084828501610d84565b91505092915050565b60006020828403121561111b57600080fd5b600082013567ffffffffffffffff81111561113557600080fd5b61114184828501610e02565b91505092915050565b60006020828403121561115c57600080fd5b600082015167ffffffffffffffff81111561117657600080fd5b61118284828501610f50565b91505092915050565b61119481611787565b82525050565b6111a381611775565b82525050565b6111b281611799565b82525050565b6111c96111c4826117a5565b611890565b82525050565b6111d8816117d1565b82525050565b6111ef6111ea826117d1565b61189a565b82525050565b60006112008261173d565b61120a8185611748565b935061121a81856020860161185d565b611223816118a6565b840191505092915050565b60006112398261173d565b6112438185611759565b935061125381856020860161185d565b80840191505092915050565b61126881611818565b82525050565b6112778161183c565b82525050565b600061128a600583611764565b91507f47533031310000000000000000000000000000000000000000000000000000006000830152602082019050919050565b60006112ca600483611764565b91507f43323031000000000000000000000000000000000000000000000000000000006000830152602082019050919050565b600061130a600483611764565b91507f43323030000000000000000000000000000000000000000000000000000000006000830152602082019050919050565b600061134a600583611764565b91507f47533031320000000000000000000000000000000000000000000000000000006000830152602082019050919050565b600061138a600583611764565b91507f47533031330000000000000000000000000000000000000000000000000000006000830152602082019050919050565b6113c68161180e565b82525050565b60006113d882876111b8565b6001820191506113e882866111b8565b6001820191506113f882856111de565b60208201915061140882846111de565b60208201915081905095945050505050565b6000611426828561122e565b9150611432828461122e565b91508190509392505050565b6000608082019050611453600083018761119a565b61146060208301866113bd565b818103604083015261147281856111f5565b9050611481606083018461126e565b95945050505050565b600060208201905061149f60008301846111a9565b92915050565b60006020820190506114ba60008301846111cf565b92915050565b6000610100820190506114d6600083018b6111cf565b6114e3602083018a61119a565b6114f0604083018961119a565b6114fd60608301886113bd565b61150a60808301876111cf565b61151760a083018661126e565b61152460c08301856113bd565b61153160e08301846113bd565b9998505050505050505050565b600060608201905061155360008301866111cf565b818103602083015261156581856111f5565b9050818103604083015261157981846111f5565b9050949350505050565b600060608201905061159860008301866111cf565b6115a560208301856113bd565b6115b2604083018461125f565b949350505050565b600060208201905081810360008301526115d481846111f5565b905092915050565b600060208201905081810360008301526115f58161127d565b9050919050565b60006020820190508181036000830152611615816112bd565b9050919050565b60006020820190508181036000830152611635816112fd565b9050919050565b600060208201905081810360008301526116558161133d565b9050919050565b600060208201905081810360008301526116758161137d565b9050919050565b600060208201905061169160008301846113bd565b92915050565b60006080820190506116ac60008301876113bd565b6116b9602083018661119a565b6116c6604083018561118b565b6116d360608301846113bd565b95945050505050565b6000604051905081810181811067ffffffffffffffff82111715611703576117026118a4565b5b8060405250919050565b600067ffffffffffffffff821115611728576117276118a4565b5b601f19601f8301169050602081019050919050565b600081519050919050565b600082825260208201905092915050565b600081905092915050565b600082825260208201905092915050565b6000611780826117ee565b9050919050565b6000611792826117ee565b9050919050565b60008115159050919050565b60007fff0000000000000000000000000000000000000000000000000000000000000082169050919050565b6000819050919050565b60008190506117e9826118b7565b919050565b600073ffffffffffffffffffffffffffffffffffffffff82169050919050565b6000819050919050565b60006118238261182a565b9050919050565b6000611835826117ee565b9050919050565b6000611847826117db565b9050919050565b82818337600083830152505050565b60005b8381101561187b578082015181840152602081019050611860565b8381111561188a576000848401525b50505050565b6000819050919050565b6000819050919050565bfe5b6000601f19601f8301169050919050565b600281106118c8576118c76118a4565b5b50565b6118d481611775565b81146118df57600080fd5b50565b6118eb81611787565b81146118f657600080fd5b50565b6002811061190657600080fd5b50565b6119128161180e565b811461191d57600080fd5b5056fea2646970667358221220c62f7aabe43b3fa13329dfe37cd784d466c7036afae30fd31ad86eba94ccea6364736f6c63430007060033","opcodes":"PUSH1 0xA0 PUSH1 0x40 MSTORE CALLVALUE DUP1 ISZERO PUSH3 0x11 JUMPI PUSH1 0x0 DUP1 REVERT JUMPDEST POP PUSH1 0x40 MLOAD PUSH3 0x1A7F CODESIZE SUB DUP1 PUSH3 0x1A7F DUP4 CODECOPY DUP2 DUP2 ADD PUSH1 0x40 MSTORE DUP2 ADD SWAP1 PUSH3 0x37 SWAP2 SWAP1 PUSH3 0x8C JUMP JUMPDEST DUP1 PUSH20 0xFFFFFFFFFFFFFFFFFFFFFFFFFFFFFFFFFFFFFFFF AND PUSH1 0x80 DUP2 PUSH20 0xFFFFFFFFFFFFFFFFFFFFFFFFFFFFFFFFFFFFFFFF AND PUSH1 0x60 SHL DUP2 MSTORE POP POP POP PUSH3 0x106 JUMP JUMPDEST PUSH1 0x0 DUP2 MLOAD SWAP1 POP PUSH3 0x86 DUP2 PUSH3 0xEC JUMP JUMPDEST SWAP3 SWAP2 POP POP JUMP JUMPDEST PUSH1 0x0 PUSH1 0x20 DUP3 DUP5 SUB SLT ISZERO PUSH3 0x9F JUMPI PUSH1 0x0 DUP1 REVERT JUMPDEST PUSH1 0x0 PUSH3 0xAF DUP5 DUP3 DUP6 ADD PUSH3 0x75 JUMP JUMPDEST SWAP2 POP POP SWAP3 SWAP2 POP POP JUMP JUMPDEST PUSH1 0x0 PUSH3 0xC5 DUP3 PUSH3 0xCC JUMP JUMPDEST SWAP1 POP SWAP2 SWAP1 POP JUMP JUMPDEST PUSH1 0x0 PUSH20 0xFFFFFFFFFFFFFFFFFFFFFFFFFFFFFFFFFFFFFFFF DUP3 AND SWAP1 POP SWAP2 SWAP1 POP JUMP JUMPDEST PUSH3 0xF7 DUP2 PUSH3 0xB8 JUMP JUMPDEST DUP2 EQ PUSH3 0x103 JUMPI PUSH1 0x0 DUP1 REVERT JUMPDEST POP JUMP JUMPDEST PUSH1 0x80 MLOAD PUSH1 0x60 SHR PUSH2 0x1956 PUSH3 0x129 PUSH1 0x0 CODECOPY DUP1 PUSH2 0x2C0 MSTORE DUP1 PUSH2 0x503 MSTORE POP PUSH2 0x1956 PUSH1 0x0 RETURN INVALID PUSH1 0x80 PUSH1 0x40 MSTORE PUSH1 0x4 CALLDATASIZE LT PUSH2 0x74 JUMPI PUSH1 0x0 CALLDATALOAD PUSH1 0xE0 SHR DUP1 PUSH4 0x67480D50 GT PUSH2 0x4E JUMPI DUP1 PUSH4 0x67480D50 EQ PUSH2 0x122 JUMPI DUP1 PUSH4 0x6799C770 EQ PUSH2 0x15F JUMPI DUP1 PUSH4 0x7C779784 EQ PUSH2 0x19C JUMPI DUP1 PUSH4 0xF698DA25 EQ PUSH2 0x1D9 JUMPI PUSH2 0x7B JUMP JUMPDEST DUP1 PUSH4 0x2A2A09BC EQ PUSH2 0x7D JUMPI DUP1 PUSH4 0x3408E470 EQ PUSH2 0xBA JUMPI DUP1 PUSH4 0x38BC0B07 EQ PUSH2 0xE5 JUMPI PUSH2 0x7B JUMP JUMPDEST CALLDATASIZE PUSH2 0x7B JUMPI STOP JUMPDEST STOP JUMPDEST CALLVALUE DUP1 ISZERO PUSH2 0x89 JUMPI PUSH1 0x0 DUP1 REVERT JUMPDEST POP PUSH2 0xA4 PUSH1 0x4 DUP1 CALLDATASIZE SUB DUP2 ADD SWAP1 PUSH2 0x9F SWAP2 SWAP1 PUSH2 0x10C8 JUMP JUMPDEST PUSH2 0x204 JUMP JUMPDEST PUSH1 0x40 MLOAD PUSH2 0xB1 SWAP2 SWAP1 PUSH2 0x148A JUMP JUMPDEST PUSH1 0x40 MLOAD DUP1 SWAP2 SUB SWAP1 RETURN JUMPDEST CALLVALUE DUP1 ISZERO PUSH2 0xC6 JUMPI PUSH1 0x0 DUP1 REVERT JUMPDEST POP PUSH2 0xCF PUSH2 0x35C JUMP JUMPDEST PUSH1 0x40 MLOAD PUSH2 0xDC SWAP2 SWAP1 PUSH2 0x167C JUMP JUMPDEST PUSH1 0x40 MLOAD DUP1 SWAP2 SUB SWAP1 RETURN JUMPDEST CALLVALUE DUP1 ISZERO PUSH2 0xF1 JUMPI PUSH1 0x0 DUP1 REVERT JUMPDEST POP PUSH2 0x10C PUSH1 0x4 DUP1 CALLDATASIZE SUB DUP2 ADD SWAP1 PUSH2 0x107 SWAP2 SWAP1 PUSH2 0x1109 JUMP JUMPDEST PUSH2 0x369 JUMP JUMPDEST PUSH1 0x40 MLOAD PUSH2 0x119 SWAP2 SWAP1 PUSH2 0x15BA JUMP JUMPDEST PUSH1 0x40 MLOAD DUP1 SWAP2 SUB SWAP1 RETURN JUMPDEST CALLVALUE DUP1 ISZERO PUSH2 0x12E JUMPI PUSH1 0x0 DUP1 REVERT JUMPDEST POP PUSH2 0x149 PUSH1 0x4 DUP1 CALLDATASIZE SUB DUP2 ADD SWAP1 PUSH2 0x144 SWAP2 SWAP1 PUSH2 0x10C8 JUMP JUMPDEST PUSH2 0x3CD JUMP JUMPDEST PUSH1 0x40 MLOAD PUSH2 0x156 SWAP2 SWAP1 PUSH2 0x148A JUMP JUMPDEST PUSH1 0x40 MLOAD DUP1 SWAP2 SUB SWAP1 RETURN JUMPDEST CALLVALUE DUP1 ISZERO PUSH2 0x16B JUMPI PUSH1 0x0 DUP1 REVERT JUMPDEST POP PUSH2 0x186 PUSH1 0x4 DUP1 CALLDATASIZE SUB DUP2 ADD SWAP1 PUSH2 0x181 SWAP2 SWAP1 PUSH2 0x1109 JUMP JUMPDEST PUSH2 0x75D JUMP JUMPDEST PUSH1 0x40 MLOAD PUSH2 0x193 SWAP2 SWAP1 PUSH2 0x15BA JUMP JUMPDEST PUSH1 0x40 MLOAD DUP1 SWAP2 SUB SWAP1 RETURN JUMPDEST CALLVALUE DUP1 ISZERO PUSH2 0x1A8 JUMPI PUSH1 0x0 DUP1 REVERT JUMPDEST POP PUSH2 0x1C3 PUSH1 0x4 DUP1 CALLDATASIZE SUB DUP2 ADD SWAP1 PUSH2 0x1BE SWAP2 SWAP1 PUSH2 0x1109 JUMP JUMPDEST PUSH2 0x79F JUMP JUMPDEST PUSH1 0x40 MLOAD PUSH2 0x1D0 SWAP2 SWAP1 PUSH2 0x15BA JUMP JUMPDEST PUSH1 0x40 MLOAD DUP1 SWAP2 SUB SWAP1 RETURN JUMPDEST CALLVALUE DUP1 ISZERO PUSH2 0x1E5 JUMPI PUSH1 0x0 DUP1 REVERT JUMPDEST POP PUSH2 0x1EE PUSH2 0x81C JUMP JUMPDEST PUSH1 0x40 MLOAD PUSH2 0x1FB SWAP2 SWAP1 PUSH2 0x14A5 JUMP JUMPDEST PUSH1 0x40 MLOAD DUP1 SWAP2 SUB SWAP1 RETURN JUMPDEST PUSH1 0x0 DUP1 PUSH1 0x0 PUSH2 0x212 DUP5 PUSH2 0x878 JUMP JUMPDEST SWAP1 POP PUSH1 0x0 ISZERO ISZERO PUSH1 0x0 DUP1 DUP4 PUSH2 0x140 ADD MLOAD DUP2 MSTORE PUSH1 0x20 ADD SWAP1 DUP2 MSTORE PUSH1 0x20 ADD PUSH1 0x0 KECCAK256 PUSH1 0x0 SWAP1 SLOAD SWAP1 PUSH2 0x100 EXP SWAP1 DIV PUSH1 0xFF AND ISZERO ISZERO EQ PUSH2 0x27F JUMPI PUSH1 0x40 MLOAD PUSH32 0x8C379A000000000000000000000000000000000000000000000000000000000 DUP2 MSTORE PUSH1 0x4 ADD PUSH2 0x276 SWAP1 PUSH2 0x161C JUMP JUMPDEST PUSH1 0x40 MLOAD DUP1 SWAP2 SUB SWAP1 REVERT JUMPDEST PUSH1 0x0 PUSH2 0x28A DUP3 PUSH2 0x369 JUMP JUMPDEST SWAP1 POP PUSH1 0x1 ISZERO ISZERO PUSH1 0x0 DUP1 DUP5 PUSH2 0x140 ADD MLOAD DUP2 MSTORE PUSH1 0x20 ADD SWAP1 DUP2 MSTORE PUSH1 0x20 ADD PUSH1 0x0 KECCAK256 PUSH1 0x0 SWAP1 SLOAD SWAP1 PUSH2 0x100 EXP SWAP1 POP POP POP DUP1 DUP1 MLOAD SWAP1 PUSH1 0x20 ADD KECCAK256 SWAP3 POP PUSH32 0x0 PUSH20 0xFFFFFFFFFFFFFFFFFFFFFFFFFFFFFFFFFFFFFFFF AND PUSH4 0x934F3A11 DUP5 DUP4 DUP6 PUSH2 0x160 ADD MLOAD PUSH1 0x40 MLOAD DUP5 PUSH4 0xFFFFFFFF AND PUSH1 0xE0 SHL DUP2 MSTORE PUSH1 0x4 ADD PUSH2 0x320 SWAP4 SWAP3 SWAP2 SWAP1 PUSH2 0x153E JUMP JUMPDEST PUSH1 0x0 PUSH1 0x40 MLOAD DUP1 DUP4 SUB DUP2 DUP7 DUP1 EXTCODESIZE ISZERO DUP1 ISZERO PUSH2 0x338 JUMPI PUSH1 0x0 DUP1 REVERT JUMPDEST POP GAS STATICCALL ISZERO DUP1 ISZERO PUSH2 0x34C JUMPI RETURNDATASIZE PUSH1 0x0 DUP1 RETURNDATACOPY RETURNDATASIZE PUSH1 0x0 REVERT JUMPDEST POP POP POP POP POP PUSH1 0x1 SWAP3 POP POP POP SWAP2 SWAP1 POP JUMP JUMPDEST PUSH1 0x0 DUP1 CHAINID SWAP1 POP DUP1 SWAP2 POP POP SWAP1 JUMP JUMPDEST PUSH1 0x60 PUSH1 0x0 PUSH2 0x387 PUSH2 0x379 DUP5 PUSH2 0x79F JUMP JUMPDEST PUSH2 0x382 DUP6 PUSH2 0x75D JUMP JUMPDEST PUSH2 0x89B JUMP JUMPDEST DUP1 MLOAD SWAP1 PUSH1 0x20 ADD KECCAK256 SWAP1 POP PUSH1 0x19 PUSH1 0xF8 SHL PUSH1 0x1 PUSH1 0xF8 SHL PUSH2 0x3A2 PUSH2 0x81C JUMP JUMPDEST DUP4 PUSH1 0x40 MLOAD PUSH1 0x20 ADD PUSH2 0x3B6 SWAP5 SWAP4 SWAP3 SWAP2 SWAP1 PUSH2 0x13CC JUMP JUMPDEST PUSH1 0x40 MLOAD PUSH1 0x20 DUP2 DUP4 SUB SUB DUP2 MSTORE SWAP1 PUSH1 0x40 MSTORE SWAP2 POP POP SWAP2 SWAP1 POP JUMP JUMPDEST PUSH1 0x0 DUP1 PUSH1 0x0 PUSH2 0x3DB DUP5 PUSH2 0x878 JUMP JUMPDEST SWAP1 POP PUSH1 0x0 ISZERO ISZERO PUSH1 0x0 DUP1 DUP4 PUSH2 0x140 ADD MLOAD DUP2 MSTORE PUSH1 0x20 ADD SWAP1 DUP2 MSTORE PUSH1 0x20 ADD PUSH1 0x0 KECCAK256 PUSH1 0x0 SWAP1 SLOAD SWAP1 PUSH2 0x100 EXP SWAP1 DIV PUSH1 0xFF AND ISZERO ISZERO EQ PUSH2 0x448 JUMPI PUSH1 0x40 MLOAD PUSH32 0x8C379A000000000000000000000000000000000000000000000000000000000 DUP2 MSTORE PUSH1 0x4 ADD PUSH2 0x43F SWAP1 PUSH2 0x161C JUMP JUMPDEST PUSH1 0x40 MLOAD DUP1 SWAP2 SUB SWAP1 REVERT JUMPDEST PUSH1 0x1 PUSH1 0x0 DUP1 DUP4 PUSH2 0x140 ADD MLOAD DUP2 MSTORE PUSH1 0x20 ADD SWAP1 DUP2 MSTORE PUSH1 0x20 ADD PUSH1 0x0 KECCAK256 PUSH1 0x0 PUSH2 0x100 EXP DUP2 SLOAD DUP2 PUSH1 0xFF MUL NOT AND SWAP1 DUP4 ISZERO ISZERO MUL OR SWAP1 SSTORE POP DUP1 PUSH1 0x0 ADD MLOAD PUSH20 0xFFFFFFFFFFFFFFFFFFFFFFFFFFFFFFFFFFFFFFFF AND CALLER PUSH20 0xFFFFFFFFFFFFFFFFFFFFFFFFFFFFFFFFFFFFFFFF AND EQ PUSH2 0x4EA JUMPI PUSH1 0x40 MLOAD PUSH32 0x8C379A000000000000000000000000000000000000000000000000000000000 DUP2 MSTORE PUSH1 0x4 ADD PUSH2 0x4E1 SWAP1 PUSH2 0x15FC JUMP JUMPDEST PUSH1 0x40 MLOAD DUP1 SWAP2 SUB SWAP1 REVERT JUMPDEST PUSH1 0x0 PUSH2 0x4F5 DUP3 PUSH2 0x369 JUMP JUMPDEST SWAP1 POP DUP1 DUP1 MLOAD SWAP1 PUSH1 0x20 ADD KECCAK256 SWAP3 POP PUSH32 0x0 PUSH20 0xFFFFFFFFFFFFFFFFFFFFFFFFFFFFFFFFFFFFFFFF AND PUSH4 0x934F3A11 DUP5 DUP4 DUP6 PUSH2 0x160 ADD MLOAD PUSH1 0x40 MLOAD DUP5 PUSH4 0xFFFFFFFF AND PUSH1 0xE0 SHL DUP2 MSTORE PUSH1 0x4 ADD PUSH2 0x563 SWAP4 SWAP3 SWAP2 SWAP1 PUSH2 0x153E JUMP JUMPDEST PUSH1 0x0 PUSH1 0x40 MLOAD DUP1 DUP4 SUB DUP2 DUP7 DUP1 EXTCODESIZE ISZERO DUP1 ISZERO PUSH2 0x57B JUMPI PUSH1 0x0 DUP1 REVERT JUMPDEST POP GAS STATICCALL ISZERO DUP1 ISZERO PUSH2 0x58F JUMPI RETURNDATASIZE PUSH1 0x0 DUP1 RETURNDATACOPY RETURNDATASIZE PUSH1 0x0 REVERT JUMPDEST POP POP POP POP POP PUSH1 0x0 GAS SWAP1 POP PUSH2 0x5D1 DUP3 PUSH1 0x20 ADD MLOAD DUP4 PUSH1 0x40 ADD MLOAD DUP5 PUSH1 0x60 ADD MLOAD DUP6 PUSH1 0x80 ADD MLOAD PUSH1 0x0 DUP8 PUSH1 0xE0 ADD MLOAD EQ PUSH2 0x5C6 JUMPI DUP7 PUSH1 0xA0 ADD MLOAD PUSH2 0x5CC JUMP JUMPDEST PUSH2 0x9C4 GAS SUB JUMPDEST PUSH2 0x8C7 JUMP JUMPDEST SWAP4 POP PUSH2 0x5E6 GAS DUP3 PUSH2 0x913 SWAP1 SWAP2 SWAP1 PUSH4 0xFFFFFFFF AND JUMP JUMPDEST SWAP1 POP DUP4 DUP1 PUSH2 0x5F9 JUMPI POP PUSH1 0x0 DUP3 PUSH1 0xA0 ADD MLOAD EQ ISZERO JUMPDEST DUP1 PUSH2 0x609 JUMPI POP PUSH1 0x0 DUP3 PUSH1 0xE0 ADD MLOAD EQ ISZERO JUMPDEST PUSH2 0x648 JUMPI PUSH1 0x40 MLOAD PUSH32 0x8C379A000000000000000000000000000000000000000000000000000000000 DUP2 MSTORE PUSH1 0x4 ADD PUSH2 0x63F SWAP1 PUSH2 0x165C JUMP JUMPDEST PUSH1 0x40 MLOAD DUP1 SWAP2 SUB SWAP1 REVERT JUMPDEST PUSH1 0x0 DUP1 DUP4 PUSH1 0xE0 ADD MLOAD GT ISZERO PUSH2 0x678 JUMPI PUSH2 0x675 DUP3 DUP5 PUSH1 0xC0 ADD MLOAD DUP6 PUSH1 0xE0 ADD MLOAD DUP7 PUSH2 0x100 ADD MLOAD DUP8 PUSH2 0x120 ADD MLOAD PUSH2 0x933 JUMP JUMPDEST SWAP1 POP JUMPDEST DUP5 ISZERO PUSH2 0x6EB JUMPI DUP3 PUSH1 0x20 ADD MLOAD PUSH20 0xFFFFFFFFFFFFFFFFFFFFFFFFFFFFFFFFFFFFFFFF AND PUSH32 0xB84985EE6912E169F5F446F739BFE323890314CCD37862AE1452CBBA5FE18C12 DUP5 PUSH1 0x0 ADD MLOAD DUP6 PUSH1 0x40 ADD MLOAD DUP7 PUSH1 0x60 ADD MLOAD DUP8 PUSH1 0x80 ADD MLOAD PUSH1 0x40 MLOAD PUSH2 0x6DE SWAP5 SWAP4 SWAP3 SWAP2 SWAP1 PUSH2 0x143E JUMP JUMPDEST PUSH1 0x40 MLOAD DUP1 SWAP2 SUB SWAP1 LOG2 PUSH2 0x754 JUMP JUMPDEST DUP3 PUSH1 0x20 ADD MLOAD PUSH20 0xFFFFFFFFFFFFFFFFFFFFFFFFFFFFFFFFFFFFFFFF AND PUSH32 0x71547AF80E3D5A99BBA7BBC9BFB5606512D75CFB1D4E2AEE66FACE3F539100A DUP5 PUSH1 0x0 ADD MLOAD DUP6 PUSH1 0x40 ADD MLOAD DUP7 PUSH1 0x60 ADD MLOAD DUP8 PUSH1 0x80 ADD MLOAD PUSH1 0x40 MLOAD PUSH2 0x74B SWAP5 SWAP4 SWAP3 SWAP2 SWAP1 PUSH2 0x143E JUMP JUMPDEST PUSH1 0x40 MLOAD DUP1 SWAP2 SUB SWAP1 LOG2 JUMPDEST POP POP POP POP SWAP2 SWAP1 POP JUMP JUMPDEST PUSH1 0x60 DUP2 PUSH1 0xE0 ADD MLOAD DUP3 PUSH2 0x100 ADD MLOAD DUP4 PUSH2 0x120 ADD MLOAD DUP5 PUSH2 0x140 ADD MLOAD PUSH1 0x40 MLOAD PUSH1 0x20 ADD PUSH2 0x789 SWAP5 SWAP4 SWAP3 SWAP2 SWAP1 PUSH2 0x1697 JUMP JUMPDEST PUSH1 0x40 MLOAD PUSH1 0x20 DUP2 DUP4 SUB SUB DUP2 MSTORE SWAP1 PUSH1 0x40 MSTORE SWAP1 POP SWAP2 SWAP1 POP JUMP JUMPDEST PUSH1 0x60 PUSH32 0xE862762E9CC423AB9325AACEFDA6C3FEADCB9E6AA390FBBD3667781066EE5429 PUSH1 0x0 SHL DUP3 PUSH1 0x0 ADD MLOAD DUP4 PUSH1 0x20 ADD MLOAD DUP5 PUSH1 0x40 ADD MLOAD DUP6 PUSH1 0x60 ADD MLOAD DUP1 MLOAD SWAP1 PUSH1 0x20 ADD KECCAK256 DUP7 PUSH1 0x80 ADD MLOAD DUP8 PUSH1 0xA0 ADD MLOAD DUP9 PUSH1 0xC0 ADD MLOAD PUSH1 0x40 MLOAD PUSH1 0x20 ADD PUSH2 0x806 SWAP9 SWAP8 SWAP7 SWAP6 SWAP5 SWAP4 SWAP3 SWAP2 SWAP1 PUSH2 0x14C0 JUMP JUMPDEST PUSH1 0x40 MLOAD PUSH1 0x20 DUP2 DUP4 SUB SUB DUP2 MSTORE SWAP1 PUSH1 0x40 MSTORE SWAP1 POP SWAP2 SWAP1 POP JUMP JUMPDEST PUSH1 0x0 PUSH32 0x47E79534A245952E8B16893A336B85A3D9EA9FA8C573F3D803AFB92A79469218 PUSH1 0x0 SHL PUSH2 0x84A PUSH2 0x35C JUMP JUMPDEST ADDRESS PUSH1 0x40 MLOAD PUSH1 0x20 ADD PUSH2 0x85D SWAP4 SWAP3 SWAP2 SWAP1 PUSH2 0x1583 JUMP JUMPDEST PUSH1 0x40 MLOAD PUSH1 0x20 DUP2 DUP4 SUB SUB DUP2 MSTORE SWAP1 PUSH1 0x40 MSTORE DUP1 MLOAD SWAP1 PUSH1 0x20 ADD KECCAK256 SWAP1 POP SWAP1 JUMP JUMPDEST PUSH2 0x880 PUSH2 0xBF0 JUMP JUMPDEST DUP2 DUP1 PUSH1 0x20 ADD SWAP1 MLOAD DUP2 ADD SWAP1 PUSH2 0x894 SWAP2 SWAP1 PUSH2 0x114A JUMP JUMPDEST SWAP1 POP SWAP2 SWAP1 POP JUMP JUMPDEST PUSH1 0x60 DUP3 DUP3 PUSH1 0x40 MLOAD PUSH1 0x20 ADD PUSH2 0x8B0 SWAP3 SWAP2 SWAP1 PUSH2 0x141A JUMP JUMPDEST PUSH1 0x40 MLOAD PUSH1 0x20 DUP2 DUP4 SUB SUB DUP2 MSTORE SWAP1 PUSH1 0x40 MSTORE SWAP1 POP SWAP3 SWAP2 POP POP JUMP JUMPDEST PUSH1 0x0 PUSH1 0x1 DUP1 DUP2 GT ISZERO PUSH2 0x8D5 JUMPI INVALID JUMPDEST DUP4 PUSH1 0x1 DUP2 GT ISZERO PUSH2 0x8E1 JUMPI INVALID JUMPDEST EQ ISZERO PUSH2 0x8FA JUMPI PUSH1 0x0 DUP1 DUP6 MLOAD PUSH1 0x20 DUP8 ADD DUP10 DUP7 DELEGATECALL SWAP1 POP PUSH2 0x90A JUMP JUMPDEST PUSH1 0x0 DUP1 DUP6 MLOAD PUSH1 0x20 DUP8 ADD DUP9 DUP11 DUP8 CALL SWAP1 POP JUMPDEST SWAP6 SWAP5 POP POP POP POP POP JUMP JUMPDEST PUSH1 0x0 DUP3 DUP3 GT ISZERO PUSH2 0x922 JUMPI PUSH1 0x0 DUP1 REVERT JUMPDEST PUSH1 0x0 DUP3 DUP5 SUB SWAP1 POP DUP1 SWAP2 POP POP SWAP3 SWAP2 POP POP JUMP JUMPDEST PUSH1 0x0 DUP1 PUSH1 0x0 PUSH20 0xFFFFFFFFFFFFFFFFFFFFFFFFFFFFFFFFFFFFFFFF AND DUP4 PUSH20 0xFFFFFFFFFFFFFFFFFFFFFFFFFFFFFFFFFFFFFFFF AND EQ PUSH2 0x970 JUMPI DUP3 PUSH2 0x972 JUMP JUMPDEST ORIGIN JUMPDEST SWAP1 POP PUSH1 0x0 PUSH20 0xFFFFFFFFFFFFFFFFFFFFFFFFFFFFFFFFFFFFFFFF AND DUP5 PUSH20 0xFFFFFFFFFFFFFFFFFFFFFFFFFFFFFFFFFFFFFFFF AND EQ ISZERO PUSH2 0xA57 JUMPI PUSH2 0x9DC GASPRICE DUP7 LT PUSH2 0x9B9 JUMPI GASPRICE PUSH2 0x9BB JUMP JUMPDEST DUP6 JUMPDEST PUSH2 0x9CE DUP9 DUP11 PUSH2 0xAD3 SWAP1 SWAP2 SWAP1 PUSH4 0xFFFFFFFF AND JUMP JUMPDEST PUSH2 0xAF2 SWAP1 SWAP2 SWAP1 PUSH4 0xFFFFFFFF AND JUMP JUMPDEST SWAP2 POP DUP1 PUSH20 0xFFFFFFFFFFFFFFFFFFFFFFFFFFFFFFFFFFFFFFFF AND PUSH2 0x8FC DUP4 SWAP1 DUP2 ISZERO MUL SWAP1 PUSH1 0x40 MLOAD PUSH1 0x0 PUSH1 0x40 MLOAD DUP1 DUP4 SUB DUP2 DUP6 DUP9 DUP9 CALL SWAP4 POP POP POP POP PUSH2 0xA52 JUMPI PUSH1 0x40 MLOAD PUSH32 0x8C379A000000000000000000000000000000000000000000000000000000000 DUP2 MSTORE PUSH1 0x4 ADD PUSH2 0xA49 SWAP1 PUSH2 0x15DC JUMP JUMPDEST PUSH1 0x40 MLOAD DUP1 SWAP2 SUB SWAP1 REVERT JUMPDEST PUSH2 0xAC9 JUMP JUMPDEST PUSH2 0xA7C DUP6 PUSH2 0xA6E DUP9 DUP11 PUSH2 0xAD3 SWAP1 SWAP2 SWAP1 PUSH4 0xFFFFFFFF AND JUMP JUMPDEST PUSH2 0xAF2 SWAP1 SWAP2 SWAP1 PUSH4 0xFFFFFFFF AND JUMP JUMPDEST SWAP2 POP PUSH2 0xA89 DUP5 DUP3 DUP5 PUSH2 0xB2C JUMP JUMPDEST PUSH2 0xAC8 JUMPI PUSH1 0x40 MLOAD PUSH32 0x8C379A000000000000000000000000000000000000000000000000000000000 DUP2 MSTORE PUSH1 0x4 ADD PUSH2 0xABF SWAP1 PUSH2 0x163C JUMP JUMPDEST PUSH1 0x40 MLOAD DUP1 SWAP2 SUB SWAP1 REVERT JUMPDEST JUMPDEST POP SWAP6 SWAP5 POP POP POP POP POP JUMP JUMPDEST PUSH1 0x0 DUP1 DUP3 DUP5 ADD SWAP1 POP DUP4 DUP2 LT ISZERO PUSH2 0xAE8 JUMPI PUSH1 0x0 DUP1 REVERT JUMPDEST DUP1 SWAP2 POP POP SWAP3 SWAP2 POP POP JUMP JUMPDEST PUSH1 0x0 DUP1 DUP4 EQ ISZERO PUSH2 0xB05 JUMPI PUSH1 0x0 SWAP1 POP PUSH2 0xB26 JUMP JUMPDEST PUSH1 0x0 DUP3 DUP5 MUL SWAP1 POP DUP3 DUP5 DUP3 DUP2 PUSH2 0xB16 JUMPI INVALID JUMPDEST DIV EQ PUSH2 0xB21 JUMPI PUSH1 0x0 DUP1 REVERT JUMPDEST DUP1 SWAP2 POP POP JUMPDEST SWAP3 SWAP2 POP POP JUMP JUMPDEST PUSH1 0x0 DUP1 PUSH4 0xA9059CBB DUP5 DUP5 PUSH1 0x40 MLOAD PUSH1 0x24 ADD DUP1 DUP4 PUSH20 0xFFFFFFFFFFFFFFFFFFFFFFFFFFFFFFFFFFFFFFFF AND DUP2 MSTORE PUSH1 0x20 ADD DUP3 DUP2 MSTORE PUSH1 0x20 ADD SWAP3 POP POP POP PUSH1 0x40 MLOAD PUSH1 0x20 DUP2 DUP4 SUB SUB DUP2 MSTORE SWAP1 PUSH1 0x40 MSTORE SWAP1 PUSH1 0xE0 SHL PUSH1 0x20 DUP3 ADD DUP1 MLOAD PUSH28 0xFFFFFFFFFFFFFFFFFFFFFFFFFFFFFFFFFFFFFFFFFFFFFFFFFFFFFFFF DUP4 DUP2 DUP4 AND OR DUP4 MSTORE POP POP POP POP SWAP1 POP PUSH1 0x20 PUSH1 0x0 DUP3 MLOAD PUSH1 0x20 DUP5 ADD PUSH1 0x0 DUP10 PUSH2 0x2710 GAS SUB CALL RETURNDATASIZE PUSH1 0x0 DUP2 EQ PUSH2 0xBD3 JUMPI PUSH1 0x20 DUP2 EQ PUSH2 0xBDB JUMPI PUSH1 0x0 SWAP4 POP PUSH2 0xBE6 JUMP JUMPDEST DUP2 SWAP4 POP PUSH2 0xBE6 JUMP JUMPDEST PUSH1 0x0 MLOAD ISZERO DUP3 ISZERO OR ISZERO SWAP4 POP JUMPDEST POP POP POP SWAP4 SWAP3 POP POP POP JUMP JUMPDEST PUSH1 0x40 MLOAD DUP1 PUSH2 0x180 ADD PUSH1 0x40 MSTORE DUP1 PUSH1 0x0 PUSH20 0xFFFFFFFFFFFFFFFFFFFFFFFFFFFFFFFFFFFFFFFF AND DUP2 MSTORE PUSH1 0x20 ADD PUSH1 0x0 PUSH20 0xFFFFFFFFFFFFFFFFFFFFFFFFFFFFFFFFFFFFFFFF AND DUP2 MSTORE PUSH1 0x20 ADD PUSH1 0x0 DUP2 MSTORE PUSH1 0x20 ADD PUSH1 0x60 DUP2 MSTORE PUSH1 0x20 ADD PUSH1 0x0 PUSH1 0x1 DUP2 GT ISZERO PUSH2 0xC51 JUMPI INVALID JUMPDEST DUP2 MSTORE PUSH1 0x20 ADD PUSH1 0x0 DUP2 MSTORE PUSH1 0x20 ADD PUSH1 0x0 DUP2 MSTORE PUSH1 0x20 ADD PUSH1 0x0 DUP2 MSTORE PUSH1 0x20 ADD PUSH1 0x0 PUSH20 0xFFFFFFFFFFFFFFFFFFFFFFFFFFFFFFFFFFFFFFFF AND DUP2 MSTORE PUSH1 0x20 ADD PUSH1 0x0 PUSH20 0xFFFFFFFFFFFFFFFFFFFFFFFFFFFFFFFFFFFFFFFF AND DUP2 MSTORE PUSH1 0x20 ADD PUSH1 0x0 DUP2 MSTORE PUSH1 0x20 ADD PUSH1 0x60 DUP2 MSTORE POP SWAP1 JUMP JUMPDEST PUSH1 0x0 PUSH2 0xCC7 PUSH2 0xCC2 DUP5 PUSH2 0x170D JUMP JUMPDEST PUSH2 0x16DC JUMP JUMPDEST SWAP1 POP DUP3 DUP2 MSTORE PUSH1 0x20 DUP2 ADD DUP5 DUP5 DUP5 ADD GT ISZERO PUSH2 0xCDF JUMPI PUSH1 0x0 DUP1 REVERT JUMPDEST PUSH2 0xCEA DUP5 DUP3 DUP6 PUSH2 0x184E JUMP JUMPDEST POP SWAP4 SWAP3 POP POP POP JUMP JUMPDEST PUSH1 0x0 PUSH2 0xD05 PUSH2 0xD00 DUP5 PUSH2 0x170D JUMP JUMPDEST PUSH2 0x16DC JUMP JUMPDEST SWAP1 POP DUP3 DUP2 MSTORE PUSH1 0x20 DUP2 ADD DUP5 DUP5 DUP5 ADD GT ISZERO PUSH2 0xD1D JUMPI PUSH1 0x0 DUP1 REVERT JUMPDEST PUSH2 0xD28 DUP5 DUP3 DUP6 PUSH2 0x185D JUMP JUMPDEST POP SWAP4 SWAP3 POP POP POP JUMP JUMPDEST PUSH1 0x0 DUP2 CALLDATALOAD SWAP1 POP PUSH2 0xD3F DUP2 PUSH2 0x18CB JUMP JUMPDEST SWAP3 SWAP2 POP POP JUMP JUMPDEST PUSH1 0x0 DUP2 MLOAD SWAP1 POP PUSH2 0xD54 DUP2 PUSH2 0x18CB JUMP JUMPDEST SWAP3 SWAP2 POP POP JUMP JUMPDEST PUSH1 0x0 DUP2 CALLDATALOAD SWAP1 POP PUSH2 0xD69 DUP2 PUSH2 0x18E2 JUMP JUMPDEST SWAP3 SWAP2 POP POP JUMP JUMPDEST PUSH1 0x0 DUP2 MLOAD SWAP1 POP PUSH2 0xD7E DUP2 PUSH2 0x18E2 JUMP JUMPDEST SWAP3 SWAP2 POP POP JUMP JUMPDEST PUSH1 0x0 DUP3 PUSH1 0x1F DUP4 ADD SLT PUSH2 0xD95 JUMPI PUSH1 0x0 DUP1 REVERT JUMPDEST DUP2 CALLDATALOAD PUSH2 0xDA5 DUP5 DUP3 PUSH1 0x20 DUP7 ADD PUSH2 0xCB4 JUMP JUMPDEST SWAP2 POP POP SWAP3 SWAP2 POP POP JUMP JUMPDEST PUSH1 0x0 DUP3 PUSH1 0x1F DUP4 ADD SLT PUSH2 0xDBF JUMPI PUSH1 0x0 DUP1 REVERT JUMPDEST DUP2 MLOAD PUSH2 0xDCF DUP5 DUP3 PUSH1 0x20 DUP7 ADD PUSH2 0xCF2 JUMP JUMPDEST SWAP2 POP POP SWAP3 SWAP2 POP POP JUMP JUMPDEST PUSH1 0x0 DUP2 CALLDATALOAD SWAP1 POP PUSH2 0xDE7 DUP2 PUSH2 0x18F9 JUMP JUMPDEST SWAP3 SWAP2 POP POP JUMP JUMPDEST PUSH1 0x0 DUP2 MLOAD SWAP1 POP PUSH2 0xDFC DUP2 PUSH2 0x18F9 JUMP JUMPDEST SWAP3 SWAP2 POP POP JUMP JUMPDEST PUSH1 0x0 PUSH2 0x180 DUP3 DUP5 SUB SLT ISZERO PUSH2 0xE15 JUMPI PUSH1 0x0 DUP1 REVERT JUMPDEST PUSH2 0xE20 PUSH2 0x180 PUSH2 0x16DC JUMP JUMPDEST SWAP1 POP PUSH1 0x0 PUSH2 0xE30 DUP5 DUP3 DUP6 ADD PUSH2 0xD30 JUMP JUMPDEST PUSH1 0x0 DUP4 ADD MSTORE POP PUSH1 0x20 PUSH2 0xE44 DUP5 DUP3 DUP6 ADD PUSH2 0xD30 JUMP JUMPDEST PUSH1 0x20 DUP4 ADD MSTORE POP PUSH1 0x40 PUSH2 0xE58 DUP5 DUP3 DUP6 ADD PUSH2 0x109E JUMP JUMPDEST PUSH1 0x40 DUP4 ADD MSTORE POP PUSH1 0x60 DUP3 ADD CALLDATALOAD PUSH8 0xFFFFFFFFFFFFFFFF DUP2 GT ISZERO PUSH2 0xE78 JUMPI PUSH1 0x0 DUP1 REVERT JUMPDEST PUSH2 0xE84 DUP5 DUP3 DUP6 ADD PUSH2 0xD84 JUMP JUMPDEST PUSH1 0x60 DUP4 ADD MSTORE POP PUSH1 0x80 PUSH2 0xE98 DUP5 DUP3 DUP6 ADD PUSH2 0xDD8 JUMP JUMPDEST PUSH1 0x80 DUP4 ADD MSTORE POP PUSH1 0xA0 PUSH2 0xEAC DUP5 DUP3 DUP6 ADD PUSH2 0x109E JUMP JUMPDEST PUSH1 0xA0 DUP4 ADD MSTORE POP PUSH1 0xC0 PUSH2 0xEC0 DUP5 DUP3 DUP6 ADD PUSH2 0x109E JUMP JUMPDEST PUSH1 0xC0 DUP4 ADD MSTORE POP PUSH1 0xE0 PUSH2 0xED4 DUP5 DUP3 DUP6 ADD PUSH2 0x109E JUMP JUMPDEST PUSH1 0xE0 DUP4 ADD MSTORE POP PUSH2 0x100 PUSH2 0xEE9 DUP5 DUP3 DUP6 ADD PUSH2 0xD30 JUMP JUMPDEST PUSH2 0x100 DUP4 ADD MSTORE POP PUSH2 0x120 PUSH2 0xEFF DUP5 DUP3 DUP6 ADD PUSH2 0xD5A JUMP JUMPDEST PUSH2 0x120 DUP4 ADD MSTORE POP PUSH2 0x140 PUSH2 0xF15 DUP5 DUP3 DUP6 ADD PUSH2 0x109E JUMP JUMPDEST PUSH2 0x140 DUP4 ADD MSTORE POP PUSH2 0x160 DUP3 ADD CALLDATALOAD PUSH8 0xFFFFFFFFFFFFFFFF DUP2 GT ISZERO PUSH2 0xF37 JUMPI PUSH1 0x0 DUP1 REVERT JUMPDEST PUSH2 0xF43 DUP5 DUP3 DUP6 ADD PUSH2 0xD84 JUMP JUMPDEST PUSH2 0x160 DUP4 ADD MSTORE POP SWAP3 SWAP2 POP POP JUMP JUMPDEST PUSH1 0x0 PUSH2 0x180 DUP3 DUP5 SUB SLT ISZERO PUSH2 0xF63 JUMPI PUSH1 0x0 DUP1 REVERT JUMPDEST PUSH2 0xF6E PUSH2 0x180 PUSH2 0x16DC JUMP JUMPDEST SWAP1 POP PUSH1 0x0 PUSH2 0xF7E DUP5 DUP3 DUP6 ADD PUSH2 0xD45 JUMP JUMPDEST PUSH1 0x0 DUP4 ADD MSTORE POP PUSH1 0x20 PUSH2 0xF92 DUP5 DUP3 DUP6 ADD PUSH2 0xD45 JUMP JUMPDEST PUSH1 0x20 DUP4 ADD MSTORE POP PUSH1 0x40 PUSH2 0xFA6 DUP5 DUP3 DUP6 ADD PUSH2 0x10B3 JUMP JUMPDEST PUSH1 0x40 DUP4 ADD MSTORE POP PUSH1 0x60 DUP3 ADD MLOAD PUSH8 0xFFFFFFFFFFFFFFFF DUP2 GT ISZERO PUSH2 0xFC6 JUMPI PUSH1 0x0 DUP1 REVERT JUMPDEST PUSH2 0xFD2 DUP5 DUP3 DUP6 ADD PUSH2 0xDAE JUMP JUMPDEST PUSH1 0x60 DUP4 ADD MSTORE POP PUSH1 0x80 PUSH2 0xFE6 DUP5 DUP3 DUP6 ADD PUSH2 0xDED JUMP JUMPDEST PUSH1 0x80 DUP4 ADD MSTORE POP PUSH1 0xA0 PUSH2 0xFFA DUP5 DUP3 DUP6 ADD PUSH2 0x10B3 JUMP JUMPDEST PUSH1 0xA0 DUP4 ADD MSTORE POP PUSH1 0xC0 PUSH2 0x100E DUP5 DUP3 DUP6 ADD PUSH2 0x10B3 JUMP JUMPDEST PUSH1 0xC0 DUP4 ADD MSTORE POP PUSH1 0xE0 PUSH2 0x1022 DUP5 DUP3 DUP6 ADD PUSH2 0x10B3 JUMP JUMPDEST PUSH1 0xE0 DUP4 ADD MSTORE POP PUSH2 0x100 PUSH2 0x1037 DUP5 DUP3 DUP6 ADD PUSH2 0xD45 JUMP JUMPDEST PUSH2 0x100 DUP4 ADD MSTORE POP PUSH2 0x120 PUSH2 0x104D DUP5 DUP3 DUP6 ADD PUSH2 0xD6F JUMP JUMPDEST PUSH2 0x120 DUP4 ADD MSTORE POP PUSH2 0x140 PUSH2 0x1063 DUP5 DUP3 DUP6 ADD PUSH2 0x10B3 JUMP JUMPDEST PUSH2 0x140 DUP4 ADD MSTORE POP PUSH2 0x160 DUP3 ADD MLOAD PUSH8 0xFFFFFFFFFFFFFFFF DUP2 GT ISZERO PUSH2 0x1085 JUMPI PUSH1 0x0 DUP1 REVERT JUMPDEST PUSH2 0x1091 DUP5 DUP3 DUP6 ADD PUSH2 0xDAE JUMP JUMPDEST PUSH2 0x160 DUP4 ADD MSTORE POP SWAP3 SWAP2 POP POP JUMP JUMPDEST PUSH1 0x0 DUP2 CALLDATALOAD SWAP1 POP PUSH2 0x10AD DUP2 PUSH2 0x1909 JUMP JUMPDEST SWAP3 SWAP2 POP POP JUMP JUMPDEST PUSH1 0x0 DUP2 MLOAD SWAP1 POP PUSH2 0x10C2 DUP2 PUSH2 0x1909 JUMP JUMPDEST SWAP3 SWAP2 POP POP JUMP JUMPDEST PUSH1 0x0 PUSH1 0x20 DUP3 DUP5 SUB SLT ISZERO PUSH2 0x10DA JUMPI PUSH1 0x0 DUP1 REVERT JUMPDEST PUSH1 0x0 DUP3 ADD CALLDATALOAD PUSH8 0xFFFFFFFFFFFFFFFF DUP2 GT ISZERO PUSH2 0x10F4 JUMPI PUSH1 0x0 DUP1 REVERT JUMPDEST PUSH2 0x1100 DUP5 DUP3 DUP6 ADD PUSH2 0xD84 JUMP JUMPDEST SWAP2 POP POP SWAP3 SWAP2 POP POP JUMP JUMPDEST PUSH1 0x0 PUSH1 0x20 DUP3 DUP5 SUB SLT ISZERO PUSH2 0x111B JUMPI PUSH1 0x0 DUP1 REVERT JUMPDEST PUSH1 0x0 DUP3 ADD CALLDATALOAD PUSH8 0xFFFFFFFFFFFFFFFF DUP2 GT ISZERO PUSH2 0x1135 JUMPI PUSH1 0x0 DUP1 REVERT JUMPDEST PUSH2 0x1141 DUP5 DUP3 DUP6 ADD PUSH2 0xE02 JUMP JUMPDEST SWAP2 POP POP SWAP3 SWAP2 POP POP JUMP JUMPDEST PUSH1 0x0 PUSH1 0x20 DUP3 DUP5 SUB SLT ISZERO PUSH2 0x115C JUMPI PUSH1 0x0 DUP1 REVERT JUMPDEST PUSH1 0x0 DUP3 ADD MLOAD PUSH8 0xFFFFFFFFFFFFFFFF DUP2 GT ISZERO PUSH2 0x1176 JUMPI PUSH1 0x0 DUP1 REVERT JUMPDEST PUSH2 0x1182 DUP5 DUP3 DUP6 ADD PUSH2 0xF50 JUMP JUMPDEST SWAP2 POP POP SWAP3 SWAP2 POP POP JUMP JUMPDEST PUSH2 0x1194 DUP2 PUSH2 0x1787 JUMP JUMPDEST DUP3 MSTORE POP POP JUMP JUMPDEST PUSH2 0x11A3 DUP2 PUSH2 0x1775 JUMP JUMPDEST DUP3 MSTORE POP POP JUMP JUMPDEST PUSH2 0x11B2 DUP2 PUSH2 0x1799 JUMP JUMPDEST DUP3 MSTORE POP POP JUMP JUMPDEST PUSH2 0x11C9 PUSH2 0x11C4 DUP3 PUSH2 0x17A5 JUMP JUMPDEST PUSH2 0x1890 JUMP JUMPDEST DUP3 MSTORE POP POP JUMP JUMPDEST PUSH2 0x11D8 DUP2 PUSH2 0x17D1 JUMP JUMPDEST DUP3 MSTORE POP POP JUMP JUMPDEST PUSH2 0x11EF PUSH2 0x11EA DUP3 PUSH2 0x17D1 JUMP JUMPDEST PUSH2 0x189A JUMP JUMPDEST DUP3 MSTORE POP POP JUMP JUMPDEST PUSH1 0x0 PUSH2 0x1200 DUP3 PUSH2 0x173D JUMP JUMPDEST PUSH2 0x120A DUP2 DUP6 PUSH2 0x1748 JUMP JUMPDEST SWAP4 POP PUSH2 0x121A DUP2 DUP6 PUSH1 0x20 DUP7 ADD PUSH2 0x185D JUMP JUMPDEST PUSH2 0x1223 DUP2 PUSH2 0x18A6 JUMP JUMPDEST DUP5 ADD SWAP2 POP POP SWAP3 SWAP2 POP POP JUMP JUMPDEST PUSH1 0x0 PUSH2 0x1239 DUP3 PUSH2 0x173D JUMP JUMPDEST PUSH2 0x1243 DUP2 DUP6 PUSH2 0x1759 JUMP JUMPDEST SWAP4 POP PUSH2 0x1253 DUP2 DUP6 PUSH1 0x20 DUP7 ADD PUSH2 0x185D JUMP JUMPDEST DUP1 DUP5 ADD SWAP2 POP POP SWAP3 SWAP2 POP POP JUMP JUMPDEST PUSH2 0x1268 DUP2 PUSH2 0x1818 JUMP JUMPDEST DUP3 MSTORE POP POP JUMP JUMPDEST PUSH2 0x1277 DUP2 PUSH2 0x183C JUMP JUMPDEST DUP3 MSTORE POP POP JUMP JUMPDEST PUSH1 0x0 PUSH2 0x128A PUSH1 0x5 DUP4 PUSH2 0x1764 JUMP JUMPDEST SWAP2 POP PUSH32 0x4753303131000000000000000000000000000000000000000000000000000000 PUSH1 0x0 DUP4 ADD MSTORE PUSH1 0x20 DUP3 ADD SWAP1 POP SWAP2 SWAP1 POP JUMP JUMPDEST PUSH1 0x0 PUSH2 0x12CA PUSH1 0x4 DUP4 PUSH2 0x1764 JUMP JUMPDEST SWAP2 POP PUSH32 0x4332303100000000000000000000000000000000000000000000000000000000 PUSH1 0x0 DUP4 ADD MSTORE PUSH1 0x20 DUP3 ADD SWAP1 POP SWAP2 SWAP1 POP JUMP JUMPDEST PUSH1 0x0 PUSH2 0x130A PUSH1 0x4 DUP4 PUSH2 0x1764 JUMP JUMPDEST SWAP2 POP PUSH32 0x4332303000000000000000000000000000000000000000000000000000000000 PUSH1 0x0 DUP4 ADD MSTORE PUSH1 0x20 DUP3 ADD SWAP1 POP SWAP2 SWAP1 POP JUMP JUMPDEST PUSH1 0x0 PUSH2 0x134A PUSH1 0x5 DUP4 PUSH2 0x1764 JUMP JUMPDEST SWAP2 POP PUSH32 0x4753303132000000000000000000000000000000000000000000000000000000 PUSH1 0x0 DUP4 ADD MSTORE PUSH1 0x20 DUP3 ADD SWAP1 POP SWAP2 SWAP1 POP JUMP JUMPDEST PUSH1 0x0 PUSH2 0x138A PUSH1 0x5 DUP4 PUSH2 0x1764 JUMP JUMPDEST SWAP2 POP PUSH32 0x4753303133000000000000000000000000000000000000000000000000000000 PUSH1 0x0 DUP4 ADD MSTORE PUSH1 0x20 DUP3 ADD SWAP1 POP SWAP2 SWAP1 POP JUMP JUMPDEST PUSH2 0x13C6 DUP2 PUSH2 0x180E JUMP JUMPDEST DUP3 MSTORE POP POP JUMP JUMPDEST PUSH1 0x0 PUSH2 0x13D8 DUP3 DUP8 PUSH2 0x11B8 JUMP JUMPDEST PUSH1 0x1 DUP3 ADD SWAP2 POP PUSH2 0x13E8 DUP3 DUP7 PUSH2 0x11B8 JUMP JUMPDEST PUSH1 0x1 DUP3 ADD SWAP2 POP PUSH2 0x13F8 DUP3 DUP6 PUSH2 0x11DE JUMP JUMPDEST PUSH1 0x20 DUP3 ADD SWAP2 POP PUSH2 0x1408 DUP3 DUP5 PUSH2 0x11DE JUMP JUMPDEST PUSH1 0x20 DUP3 ADD SWAP2 POP DUP2 SWAP1 POP SWAP6 SWAP5 POP POP POP POP POP JUMP JUMPDEST PUSH1 0x0 PUSH2 0x1426 DUP3 DUP6 PUSH2 0x122E JUMP JUMPDEST SWAP2 POP PUSH2 0x1432 DUP3 DUP5 PUSH2 0x122E JUMP JUMPDEST SWAP2 POP DUP2 SWAP1 POP SWAP4 SWAP3 POP POP POP JUMP JUMPDEST PUSH1 0x0 PUSH1 0x80 DUP3 ADD SWAP1 POP PUSH2 0x1453 PUSH1 0x0 DUP4 ADD DUP8 PUSH2 0x119A JUMP JUMPDEST PUSH2 0x1460 PUSH1 0x20 DUP4 ADD DUP7 PUSH2 0x13BD JUMP JUMPDEST DUP2 DUP2 SUB PUSH1 0x40 DUP4 ADD MSTORE PUSH2 0x1472 DUP2 DUP6 PUSH2 0x11F5 JUMP JUMPDEST SWAP1 POP PUSH2 0x1481 PUSH1 0x60 DUP4 ADD DUP5 PUSH2 0x126E JUMP JUMPDEST SWAP6 SWAP5 POP POP POP POP POP JUMP JUMPDEST PUSH1 0x0 PUSH1 0x20 DUP3 ADD SWAP1 POP PUSH2 0x149F PUSH1 0x0 DUP4 ADD DUP5 PUSH2 0x11A9 JUMP JUMPDEST SWAP3 SWAP2 POP POP JUMP JUMPDEST PUSH1 0x0 PUSH1 0x20 DUP3 ADD SWAP1 POP PUSH2 0x14BA PUSH1 0x0 DUP4 ADD DUP5 PUSH2 0x11CF JUMP JUMPDEST SWAP3 SWAP2 POP POP JUMP JUMPDEST PUSH1 0x0 PUSH2 0x100 DUP3 ADD SWAP1 POP PUSH2 0x14D6 PUSH1 0x0 DUP4 ADD DUP12 PUSH2 0x11CF JUMP JUMPDEST PUSH2 0x14E3 PUSH1 0x20 DUP4 ADD DUP11 PUSH2 0x119A JUMP JUMPDEST PUSH2 0x14F0 PUSH1 0x40 DUP4 ADD DUP10 PUSH2 0x119A JUMP JUMPDEST PUSH2 0x14FD PUSH1 0x60 DUP4 ADD DUP9 PUSH2 0x13BD JUMP JUMPDEST PUSH2 0x150A PUSH1 0x80 DUP4 ADD DUP8 PUSH2 0x11CF JUMP JUMPDEST PUSH2 0x1517 PUSH1 0xA0 DUP4 ADD DUP7 PUSH2 0x126E JUMP JUMPDEST PUSH2 0x1524 PUSH1 0xC0 DUP4 ADD DUP6 PUSH2 0x13BD JUMP JUMPDEST PUSH2 0x1531 PUSH1 0xE0 DUP4 ADD DUP5 PUSH2 0x13BD JUMP JUMPDEST SWAP10 SWAP9 POP POP POP POP POP POP POP POP POP JUMP JUMPDEST PUSH1 0x0 PUSH1 0x60 DUP3 ADD SWAP1 POP PUSH2 0x1553 PUSH1 0x0 DUP4 ADD DUP7 PUSH2 0x11CF JUMP JUMPDEST DUP2 DUP2 SUB PUSH1 0x20 DUP4 ADD MSTORE PUSH2 0x1565 DUP2 DUP6 PUSH2 0x11F5 JUMP JUMPDEST SWAP1 POP DUP2 DUP2 SUB PUSH1 0x40 DUP4 ADD MSTORE PUSH2 0x1579 DUP2 DUP5 PUSH2 0x11F5 JUMP JUMPDEST SWAP1 POP SWAP5 SWAP4 POP POP POP POP JUMP JUMPDEST PUSH1 0x0 PUSH1 0x60 DUP3 ADD SWAP1 POP PUSH2 0x1598 PUSH1 0x0 DUP4 ADD DUP7 PUSH2 0x11CF JUMP JUMPDEST PUSH2 0x15A5 PUSH1 0x20 DUP4 ADD DUP6 PUSH2 0x13BD JUMP JUMPDEST PUSH2 0x15B2 PUSH1 0x40 DUP4 ADD DUP5 PUSH2 0x125F JUMP JUMPDEST SWAP5 SWAP4 POP POP POP POP JUMP JUMPDEST PUSH1 0x0 PUSH1 0x20 DUP3 ADD SWAP1 POP DUP2 DUP2 SUB PUSH1 0x0 DUP4 ADD MSTORE PUSH2 0x15D4 DUP2 DUP5 PUSH2 0x11F5 JUMP JUMPDEST SWAP1 POP SWAP3 SWAP2 POP POP JUMP JUMPDEST PUSH1 0x0 PUSH1 0x20 DUP3 ADD SWAP1 POP DUP2 DUP2 SUB PUSH1 0x0 DUP4 ADD MSTORE PUSH2 0x15F5 DUP2 PUSH2 0x127D JUMP JUMPDEST SWAP1 POP SWAP2 SWAP1 POP JUMP JUMPDEST PUSH1 0x0 PUSH1 0x20 DUP3 ADD SWAP1 POP DUP2 DUP2 SUB PUSH1 0x0 DUP4 ADD MSTORE PUSH2 0x1615 DUP2 PUSH2 0x12BD JUMP JUMPDEST SWAP1 POP SWAP2 SWAP1 POP JUMP JUMPDEST PUSH1 0x0 PUSH1 0x20 DUP3 ADD SWAP1 POP DUP2 DUP2 SUB PUSH1 0x0 DUP4 ADD MSTORE PUSH2 0x1635 DUP2 PUSH2 0x12FD JUMP JUMPDEST SWAP1 POP SWAP2 SWAP1 POP JUMP JUMPDEST PUSH1 0x0 PUSH1 0x20 DUP3 ADD SWAP1 POP DUP2 DUP2 SUB PUSH1 0x0 DUP4 ADD MSTORE PUSH2 0x1655 DUP2 PUSH2 0x133D JUMP JUMPDEST SWAP1 POP SWAP2 SWAP1 POP JUMP JUMPDEST PUSH1 0x0 PUSH1 0x20 DUP3 ADD SWAP1 POP DUP2 DUP2 SUB PUSH1 0x0 DUP4 ADD MSTORE PUSH2 0x1675 DUP2 PUSH2 0x137D JUMP JUMPDEST SWAP1 POP SWAP2 SWAP1 POP JUMP JUMPDEST PUSH1 0x0 PUSH1 0x20 DUP3 ADD SWAP1 POP PUSH2 0x1691 PUSH1 0x0 DUP4 ADD DUP5 PUSH2 0x13BD JUMP JUMPDEST SWAP3 SWAP2 POP POP JUMP JUMPDEST PUSH1 0x0 PUSH1 0x80 DUP3 ADD SWAP1 POP PUSH2 0x16AC PUSH1 0x0 DUP4 ADD DUP8 PUSH2 0x13BD JUMP JUMPDEST PUSH2 0x16B9 PUSH1 0x20 DUP4 ADD DUP7 PUSH2 0x119A JUMP JUMPDEST PUSH2 0x16C6 PUSH1 0x40 DUP4 ADD DUP6 PUSH2 0x118B JUMP JUMPDEST PUSH2 0x16D3 PUSH1 0x60 DUP4 ADD DUP5 PUSH2 0x13BD JUMP JUMPDEST SWAP6 SWAP5 POP POP POP POP POP JUMP JUMPDEST PUSH1 0x0 PUSH1 0x40 MLOAD SWAP1 POP DUP2 DUP2 ADD DUP2 DUP2 LT PUSH8 0xFFFFFFFFFFFFFFFF DUP3 GT OR ISZERO PUSH2 0x1703 JUMPI PUSH2 0x1702 PUSH2 0x18A4 JUMP JUMPDEST JUMPDEST DUP1 PUSH1 0x40 MSTORE POP SWAP2 SWAP1 POP JUMP JUMPDEST PUSH1 0x0 PUSH8 0xFFFFFFFFFFFFFFFF DUP3 GT ISZERO PUSH2 0x1728 JUMPI PUSH2 0x1727 PUSH2 0x18A4 JUMP JUMPDEST JUMPDEST PUSH1 0x1F NOT PUSH1 0x1F DUP4 ADD AND SWAP1 POP PUSH1 0x20 DUP2 ADD SWAP1 POP SWAP2 SWAP1 POP JUMP JUMPDEST PUSH1 0x0 DUP2 MLOAD SWAP1 POP SWAP2 SWAP1 POP JUMP JUMPDEST PUSH1 0x0 DUP3 DUP3 MSTORE PUSH1 0x20 DUP3 ADD SWAP1 POP SWAP3 SWAP2 POP POP JUMP JUMPDEST PUSH1 0x0 DUP2 SWAP1 POP SWAP3 SWAP2 POP POP JUMP JUMPDEST PUSH1 0x0 DUP3 DUP3 MSTORE PUSH1 0x20 DUP3 ADD SWAP1 POP SWAP3 SWAP2 POP POP JUMP JUMPDEST PUSH1 0x0 PUSH2 0x1780 DUP3 PUSH2 0x17EE JUMP JUMPDEST SWAP1 POP SWAP2 SWAP1 POP JUMP JUMPDEST PUSH1 0x0 PUSH2 0x1792 DUP3 PUSH2 0x17EE JUMP JUMPDEST SWAP1 POP SWAP2 SWAP1 POP JUMP JUMPDEST PUSH1 0x0 DUP2 ISZERO ISZERO SWAP1 POP SWAP2 SWAP1 POP JUMP JUMPDEST PUSH1 0x0 PUSH32 0xFF00000000000000000000000000000000000000000000000000000000000000 DUP3 AND SWAP1 POP SWAP2 SWAP1 POP JUMP JUMPDEST PUSH1 0x0 DUP2 SWAP1 POP SWAP2 SWAP1 POP JUMP JUMPDEST PUSH1 0x0 DUP2 SWAP1 POP PUSH2 0x17E9 DUP3 PUSH2 0x18B7 JUMP JUMPDEST SWAP2 SWAP1 POP JUMP JUMPDEST PUSH1 0x0 PUSH20 0xFFFFFFFFFFFFFFFFFFFFFFFFFFFFFFFFFFFFFFFF DUP3 AND SWAP1 POP SWAP2 SWAP1 POP JUMP JUMPDEST PUSH1 0x0 DUP2 SWAP1 POP SWAP2 SWAP1 POP JUMP JUMPDEST PUSH1 0x0 PUSH2 0x1823 DUP3 PUSH2 0x182A JUMP JUMPDEST SWAP1 POP SWAP2 SWAP1 POP JUMP JUMPDEST PUSH1 0x0 PUSH2 0x1835 DUP3 PUSH2 0x17EE JUMP JUMPDEST SWAP1 POP SWAP2 SWAP1 POP JUMP JUMPDEST PUSH1 0x0 PUSH2 0x1847 DUP3 PUSH2 0x17DB JUMP JUMPDEST SWAP1 POP SWAP2 SWAP1 POP JUMP JUMPDEST DUP3 DUP2 DUP4 CALLDATACOPY PUSH1 0x0 DUP4 DUP4 ADD MSTORE POP POP POP JUMP JUMPDEST PUSH1 0x0 JUMPDEST DUP4 DUP2 LT ISZERO PUSH2 0x187B JUMPI DUP1 DUP3 ADD MLOAD DUP2 DUP5 ADD MSTORE PUSH1 0x20 DUP2 ADD SWAP1 POP PUSH2 0x1860 JUMP JUMPDEST DUP4 DUP2 GT ISZERO PUSH2 0x188A JUMPI PUSH1 0x0 DUP5 DUP5 ADD MSTORE JUMPDEST POP POP POP POP JUMP JUMPDEST PUSH1 0x0 DUP2 SWAP1 POP SWAP2 SWAP1 POP JUMP JUMPDEST PUSH1 0x0 DUP2 SWAP1 POP SWAP2 SWAP1 POP JUMP JUMPDEST INVALID JUMPDEST PUSH1 0x0 PUSH1 0x1F NOT PUSH1 0x1F DUP4 ADD AND SWAP1 POP SWAP2 SWAP1 POP JUMP JUMPDEST PUSH1 0x2 DUP2 LT PUSH2 0x18C8 JUMPI PUSH2 0x18C7 PUSH2 0x18A4 JUMP JUMPDEST JUMPDEST POP JUMP JUMPDEST PUSH2 0x18D4 DUP2 PUSH2 0x1775 JUMP JUMPDEST DUP2 EQ PUSH2 0x18DF JUMPI PUSH1 0x0 DUP1 REVERT JUMPDEST POP JUMP JUMPDEST PUSH2 0x18EB DUP2 PUSH2 0x1787 JUMP JUMPDEST DUP2 EQ PUSH2 0x18F6 JUMPI PUSH1 0x0 DUP1 REVERT JUMPDEST POP JUMP JUMPDEST PUSH1 0x2 DUP2 LT PUSH2 0x1906 JUMPI PUSH1 0x0 DUP1 REVERT JUMPDEST POP JUMP JUMPDEST PUSH2 0x1912 DUP2 PUSH2 0x180E JUMP JUMPDEST DUP2 EQ PUSH2 0x191D JUMPI PUSH1 0x0 DUP1 REVERT JUMPDEST POP JUMP INVALID LOG2 PUSH5 0x6970667358 0x22 SLT KECCAK256 0xC6 0x2F PUSH27 0xABE43B3FA13329DFE37CD784D466C7036AFAE30FD31AD86EBA94CC 0xEA PUSH4 0x64736F6C PUSH4 0x43000706 STOP CALLER "},"methodIdentifiers":{"checkValidity(bytes)":"2a2a09bc","domainSeparator()":"f698da25","encodeCheckExecutionData((address,address,uint256,bytes,uint8,uint256,uint256,uint256,address,address,uint256,bytes))":"38bc0b07","encodeCheckExecutionData_1((address,address,uint256,bytes,uint8,uint256,uint256,uint256,address,address,uint256,bytes))":"7c779784","encodeCheckExecutionData_2((address,address,uint256,bytes,uint8,uint256,uint256,uint256,address,address,uint256,bytes))":"6799c770","executeCheck(bytes)":"67480d50","getChainId()":"3408e470"}}}}}