{
  "_format": "hh-sol-artifact-1",
  "contractName": "MultiSigWallet",
  "sourceName": "contracts/MultiSigWallet.sol",
  "abi": [
    {
      "anonymous": false,
      "inputs": [
        {
          "indexed": false,
          "internalType": "address",
          "name": "owner",
          "type": "address"
        }
      ],
      "name": "AddedOwner",
      "type": "event"
    },
    {
      "anonymous": false,
      "inputs": [
        {
          "indexed": true,
          "internalType": "bytes32",
          "name": "approvedHash",
          "type": "bytes32"
        },
        {
          "indexed": true,
          "internalType": "address",
          "name": "owner",
          "type": "address"
        }
      ],
      "name": "ApproveHash",
      "type": "event"
    },
    {
      "anonymous": false,
      "inputs": [
        {
          "indexed": false,
          "internalType": "address",
          "name": "handler",
          "type": "address"
        }
      ],
      "name": "ChangedFallbackHandler",
      "type": "event"
    },
    {
      "anonymous": false,
      "inputs": [
        {
          "indexed": false,
          "internalType": "address",
          "name": "guard",
          "type": "address"
        }
      ],
      "name": "ChangedGuard",
      "type": "event"
    },
    {
      "anonymous": false,
      "inputs": [
        {
          "indexed": false,
          "internalType": "uint256",
          "name": "threshold",
          "type": "uint256"
        }
      ],
      "name": "ChangedThreshold",
      "type": "event"
    },
    {
      "anonymous": false,
      "inputs": [
        {
          "indexed": false,
          "internalType": "address",
          "name": "module",
          "type": "address"
        }
      ],
      "name": "DisabledModule",
      "type": "event"
    },
    {
      "anonymous": false,
      "inputs": [
        {
          "indexed": false,
          "internalType": "address",
          "name": "module",
          "type": "address"
        }
      ],
      "name": "EnabledModule",
      "type": "event"
    },
    {
      "anonymous": false,
      "inputs": [
        {
          "indexed": false,
          "internalType": "address",
          "name": "checkOwner",
          "type": "address"
        },
        {
          "indexed": true,
          "internalType": "address",
          "name": "to",
          "type": "address"
        },
        {
          "indexed": false,
          "internalType": "uint256",
          "name": "value",
          "type": "uint256"
        },
        {
          "indexed": false,
          "internalType": "bytes",
          "name": "data",
          "type": "bytes"
        },
        {
          "indexed": false,
          "internalType": "enum Enum.Operation",
          "name": "operation",
          "type": "uint8"
        }
      ],
      "name": "ExecuteCheckFailure",
      "type": "event"
    },
    {
      "anonymous": false,
      "inputs": [
        {
          "indexed": false,
          "internalType": "address",
          "name": "checkOwner",
          "type": "address"
        },
        {
          "indexed": true,
          "internalType": "address",
          "name": "to",
          "type": "address"
        },
        {
          "indexed": false,
          "internalType": "uint256",
          "name": "value",
          "type": "uint256"
        },
        {
          "indexed": false,
          "internalType": "bytes",
          "name": "data",
          "type": "bytes"
        },
        {
          "indexed": false,
          "internalType": "enum Enum.Operation",
          "name": "operation",
          "type": "uint8"
        }
      ],
      "name": "ExecuteCheckSuccess",
      "type": "event"
    },
    {
      "anonymous": false,
      "inputs": [
        {
          "indexed": false,
          "internalType": "bytes32",
          "name": "txHash",
          "type": "bytes32"
        },
        {
          "indexed": false,
          "internalType": "uint256",
          "name": "payment",
          "type": "uint256"
        }
      ],
      "name": "ExecutionFailure",
      "type": "event"
    },
    {
      "anonymous": false,
      "inputs": [
        {
          "indexed": true,
          "internalType": "address",
          "name": "module",
          "type": "address"
        }
      ],
      "name": "ExecutionFromModuleFailure",
      "type": "event"
    },
    {
      "anonymous": false,
      "inputs": [
        {
          "indexed": true,
          "internalType": "address",
          "name": "module",
          "type": "address"
        }
      ],
      "name": "ExecutionFromModuleSuccess",
      "type": "event"
    },
    {
      "anonymous": false,
      "inputs": [
        {
          "indexed": false,
          "internalType": "bytes32",
          "name": "txHash",
          "type": "bytes32"
        },
        {
          "indexed": false,
          "internalType": "uint256",
          "name": "payment",
          "type": "uint256"
        }
      ],
      "name": "ExecutionSuccess",
      "type": "event"
    },
    {
      "anonymous": false,
      "inputs": [
        {
          "indexed": false,
          "internalType": "address",
          "name": "owner",
          "type": "address"
        }
      ],
      "name": "RemovedOwner",
      "type": "event"
    },
    {
      "anonymous": false,
      "inputs": [
        {
          "indexed": true,
          "internalType": "address",
          "name": "sender",
          "type": "address"
        },
        {
          "indexed": false,
          "internalType": "uint256",
          "name": "value",
          "type": "uint256"
        }
      ],
      "name": "SafeReceived",
      "type": "event"
    },
    {
      "anonymous": false,
      "inputs": [
        {
          "indexed": true,
          "internalType": "address",
          "name": "initiator",
          "type": "address"
        },
        {
          "indexed": false,
          "internalType": "address[]",
          "name": "owners",
          "type": "address[]"
        },
        {
          "indexed": false,
          "internalType": "uint256",
          "name": "threshold",
          "type": "uint256"
        },
        {
          "indexed": false,
          "internalType": "address",
          "name": "initializer",
          "type": "address"
        },
        {
          "indexed": false,
          "internalType": "address",
          "name": "fallbackHandler",
          "type": "address"
        }
      ],
      "name": "SafeSetup",
      "type": "event"
    },
    {
      "anonymous": false,
      "inputs": [
        {
          "indexed": true,
          "internalType": "bytes32",
          "name": "msgHash",
          "type": "bytes32"
        }
      ],
      "name": "SignMsg",
      "type": "event"
    },
    {
      "stateMutability": "nonpayable",
      "type": "fallback"
    },
    {
      "inputs": [],
      "name": "VERSION",
      "outputs": [
        {
          "internalType": "string",
          "name": "",
          "type": "string"
        }
      ],
      "stateMutability": "view",
      "type": "function"
    },
    {
      "inputs": [
        {
          "internalType": "address",
          "name": "owner",
          "type": "address"
        },
        {
          "internalType": "uint256",
          "name": "_threshold",
          "type": "uint256"
        }
      ],
      "name": "addOwnerWithThreshold",
      "outputs": [],
      "stateMutability": "nonpayable",
      "type": "function"
    },
    {
      "inputs": [
        {
          "internalType": "bytes32",
          "name": "hashToApprove",
          "type": "bytes32"
        }
      ],
      "name": "approveHash",
      "outputs": [],
      "stateMutability": "nonpayable",
      "type": "function"
    },
    {
      "inputs": [
        {
          "internalType": "address",
          "name": "",
          "type": "address"
        },
        {
          "internalType": "bytes32",
          "name": "",
          "type": "bytes32"
        }
      ],
      "name": "approvedHashes",
      "outputs": [
        {
          "internalType": "uint256",
          "name": "",
          "type": "uint256"
        }
      ],
      "stateMutability": "view",
      "type": "function"
    },
    {
      "inputs": [
        {
          "internalType": "uint256",
          "name": "_threshold",
          "type": "uint256"
        }
      ],
      "name": "changeThreshold",
      "outputs": [],
      "stateMutability": "nonpayable",
      "type": "function"
    },
    {
      "inputs": [
        {
          "internalType": "bytes32",
          "name": "dataHash",
          "type": "bytes32"
        },
        {
          "internalType": "bytes",
          "name": "data",
          "type": "bytes"
        },
        {
          "internalType": "bytes",
          "name": "signatures",
          "type": "bytes"
        },
        {
          "internalType": "uint256",
          "name": "requiredSignatures",
          "type": "uint256"
        }
      ],
      "name": "checkNSignatures",
      "outputs": [],
      "stateMutability": "view",
      "type": "function"
    },
    {
      "inputs": [
        {
          "internalType": "bytes32",
          "name": "dataHash",
          "type": "bytes32"
        },
        {
          "internalType": "bytes",
          "name": "data",
          "type": "bytes"
        },
        {
          "internalType": "bytes",
          "name": "signatures",
          "type": "bytes"
        }
      ],
      "name": "checkSignatures",
      "outputs": [],
      "stateMutability": "view",
      "type": "function"
    },
    {
      "inputs": [
        {
          "internalType": "bytes",
          "name": "checkMsg",
          "type": "bytes"
        }
      ],
      "name": "checkValidity",
      "outputs": [
        {
          "internalType": "bool",
          "name": "",
          "type": "bool"
        }
      ],
      "stateMutability": "view",
      "type": "function"
    },
    {
      "inputs": [
        {
          "internalType": "address",
          "name": "prevModule",
          "type": "address"
        },
        {
          "internalType": "address",
          "name": "module",
          "type": "address"
        }
      ],
      "name": "disableModule",
      "outputs": [],
      "stateMutability": "nonpayable",
      "type": "function"
    },
    {
      "inputs": [],
      "name": "domainSeparator",
      "outputs": [
        {
          "internalType": "bytes32",
          "name": "",
          "type": "bytes32"
        }
      ],
      "stateMutability": "view",
      "type": "function"
    },
    {
      "inputs": [
        {
          "internalType": "address",
          "name": "module",
          "type": "address"
        }
      ],
      "name": "enableModule",
      "outputs": [],
      "stateMutability": "nonpayable",
      "type": "function"
    },
    {
      "inputs": [
        {
          "components": [
            {
              "internalType": "bool",
              "name": "callExternalContract",
              "type": "bool"
            },
            {
              "internalType": "address",
              "name": "checkOwner",
              "type": "address"
            },
            {
              "internalType": "address",
              "name": "to",
              "type": "address"
            },
            {
              "internalType": "uint256",
              "name": "value",
              "type": "uint256"
            },
            {
              "internalType": "bytes",
              "name": "data",
              "type": "bytes"
            },
            {
              "internalType": "enum Enum.Operation",
              "name": "operation",
              "type": "uint8"
            },
            {
              "internalType": "uint256",
              "name": "safeTxGas",
              "type": "uint256"
            },
            {
              "internalType": "uint256",
              "name": "baseGas",
              "type": "uint256"
            },
            {
              "internalType": "uint256",
              "name": "gasPrice",
              "type": "uint256"
            },
            {
              "internalType": "address",
              "name": "gasToken",
              "type": "address"
            },
            {
              "internalType": "address payable",
              "name": "refundReceiver",
              "type": "address"
            },
            {
              "internalType": "bool",
              "name": "transferEther",
              "type": "bool"
            },
            {
              "internalType": "address payable",
              "name": "etherReceiver",
              "type": "address"
            },
            {
              "internalType": "uint256",
              "name": "etherAmount",
              "type": "uint256"
            },
            {
              "internalType": "uint256",
              "name": "checkNonce",
              "type": "uint256"
            },
            {
              "internalType": "bytes",
              "name": "signatures",
              "type": "bytes"
            }
          ],
          "internalType": "struct MultiSigWallet.CheckInfo",
          "name": "checkInfo",
          "type": "tuple"
        }
      ],
      "name": "encodeCheckExecutionData",
      "outputs": [
        {
          "internalType": "bytes",
          "name": "",
          "type": "bytes"
        }
      ],
      "stateMutability": "view",
      "type": "function"
    },
    {
      "inputs": [
        {
          "components": [
            {
              "internalType": "bool",
              "name": "callExternalContract",
              "type": "bool"
            },
            {
              "internalType": "address",
              "name": "checkOwner",
              "type": "address"
            },
            {
              "internalType": "address",
              "name": "to",
              "type": "address"
            },
            {
              "internalType": "uint256",
              "name": "value",
              "type": "uint256"
            },
            {
              "internalType": "bytes",
              "name": "data",
              "type": "bytes"
            },
            {
              "internalType": "enum Enum.Operation",
              "name": "operation",
              "type": "uint8"
            },
            {
              "internalType": "uint256",
              "name": "safeTxGas",
              "type": "uint256"
            },
            {
              "internalType": "uint256",
              "name": "baseGas",
              "type": "uint256"
            },
            {
              "internalType": "uint256",
              "name": "gasPrice",
              "type": "uint256"
            },
            {
              "internalType": "address",
              "name": "gasToken",
              "type": "address"
            },
            {
              "internalType": "address payable",
              "name": "refundReceiver",
              "type": "address"
            },
            {
              "internalType": "bool",
              "name": "transferEther",
              "type": "bool"
            },
            {
              "internalType": "address payable",
              "name": "etherReceiver",
              "type": "address"
            },
            {
              "internalType": "uint256",
              "name": "etherAmount",
              "type": "uint256"
            },
            {
              "internalType": "uint256",
              "name": "checkNonce",
              "type": "uint256"
            },
            {
              "internalType": "bytes",
              "name": "signatures",
              "type": "bytes"
            }
          ],
          "internalType": "struct MultiSigWallet.CheckInfo",
          "name": "checkInfo",
          "type": "tuple"
        }
      ],
      "name": "encodeCheckExecutionData_1",
      "outputs": [
        {
          "internalType": "bytes",
          "name": "",
          "type": "bytes"
        }
      ],
      "stateMutability": "pure",
      "type": "function"
    },
    {
      "inputs": [
        {
          "components": [
            {
              "internalType": "bool",
              "name": "callExternalContract",
              "type": "bool"
            },
            {
              "internalType": "address",
              "name": "checkOwner",
              "type": "address"
            },
            {
              "internalType": "address",
              "name": "to",
              "type": "address"
            },
            {
              "internalType": "uint256",
              "name": "value",
              "type": "uint256"
            },
            {
              "internalType": "bytes",
              "name": "data",
              "type": "bytes"
            },
            {
              "internalType": "enum Enum.Operation",
              "name": "operation",
              "type": "uint8"
            },
            {
              "internalType": "uint256",
              "name": "safeTxGas",
              "type": "uint256"
            },
            {
              "internalType": "uint256",
              "name": "baseGas",
              "type": "uint256"
            },
            {
              "internalType": "uint256",
              "name": "gasPrice",
              "type": "uint256"
            },
            {
              "internalType": "address",
              "name": "gasToken",
              "type": "address"
            },
            {
              "internalType": "address payable",
              "name": "refundReceiver",
              "type": "address"
            },
            {
              "internalType": "bool",
              "name": "transferEther",
              "type": "bool"
            },
            {
              "internalType": "address payable",
              "name": "etherReceiver",
              "type": "address"
            },
            {
              "internalType": "uint256",
              "name": "etherAmount",
              "type": "uint256"
            },
            {
              "internalType": "uint256",
              "name": "checkNonce",
              "type": "uint256"
            },
            {
              "internalType": "bytes",
              "name": "signatures",
              "type": "bytes"
            }
          ],
          "internalType": "struct MultiSigWallet.CheckInfo",
          "name": "checkInfo",
          "type": "tuple"
        }
      ],
      "name": "encodeCheckExecutionData_2",
      "outputs": [
        {
          "internalType": "bytes",
          "name": "",
          "type": "bytes"
        }
      ],
      "stateMutability": "pure",
      "type": "function"
    },
    {
      "inputs": [
        {
          "internalType": "address",
          "name": "to",
          "type": "address"
        },
        {
          "internalType": "uint256",
          "name": "value",
          "type": "uint256"
        },
        {
          "internalType": "bytes",
          "name": "data",
          "type": "bytes"
        },
        {
          "internalType": "enum Enum.Operation",
          "name": "operation",
          "type": "uint8"
        },
        {
          "internalType": "uint256",
          "name": "safeTxGas",
          "type": "uint256"
        },
        {
          "internalType": "uint256",
          "name": "baseGas",
          "type": "uint256"
        },
        {
          "internalType": "uint256",
          "name": "gasPrice",
          "type": "uint256"
        },
        {
          "internalType": "address",
          "name": "gasToken",
          "type": "address"
        },
        {
          "internalType": "address",
          "name": "refundReceiver",
          "type": "address"
        },
        {
          "internalType": "uint256",
          "name": "_nonce",
          "type": "uint256"
        }
      ],
      "name": "encodeTransactionData",
      "outputs": [
        {
          "internalType": "bytes",
          "name": "",
          "type": "bytes"
        }
      ],
      "stateMutability": "view",
      "type": "function"
    },
    {
      "inputs": [
        {
          "internalType": "address",
          "name": "to",
          "type": "address"
        },
        {
          "internalType": "uint256",
          "name": "value",
          "type": "uint256"
        },
        {
          "internalType": "bytes",
          "name": "data",
          "type": "bytes"
        },
        {
          "internalType": "enum Enum.Operation",
          "name": "operation",
          "type": "uint8"
        },
        {
          "internalType": "uint256",
          "name": "safeTxGas",
          "type": "uint256"
        },
        {
          "internalType": "uint256",
          "name": "baseGas",
          "type": "uint256"
        },
        {
          "internalType": "uint256",
          "name": "gasPrice",
          "type": "uint256"
        },
        {
          "internalType": "address",
          "name": "gasToken",
          "type": "address"
        },
        {
          "internalType": "address payable",
          "name": "refundReceiver",
          "type": "address"
        },
        {
          "internalType": "bytes",
          "name": "signatures",
          "type": "bytes"
        }
      ],
      "name": "execTransaction",
      "outputs": [
        {
          "internalType": "bool",
          "name": "success",
          "type": "bool"
        }
      ],
      "stateMutability": "payable",
      "type": "function"
    },
    {
      "inputs": [
        {
          "internalType": "address",
          "name": "to",
          "type": "address"
        },
        {
          "internalType": "uint256",
          "name": "value",
          "type": "uint256"
        },
        {
          "internalType": "bytes",
          "name": "data",
          "type": "bytes"
        },
        {
          "internalType": "enum Enum.Operation",
          "name": "operation",
          "type": "uint8"
        }
      ],
      "name": "execTransactionFromModule",
      "outputs": [
        {
          "internalType": "bool",
          "name": "success",
          "type": "bool"
        }
      ],
      "stateMutability": "nonpayable",
      "type": "function"
    },
    {
      "inputs": [
        {
          "internalType": "address",
          "name": "to",
          "type": "address"
        },
        {
          "internalType": "uint256",
          "name": "value",
          "type": "uint256"
        },
        {
          "internalType": "bytes",
          "name": "data",
          "type": "bytes"
        },
        {
          "internalType": "enum Enum.Operation",
          "name": "operation",
          "type": "uint8"
        }
      ],
      "name": "execTransactionFromModuleReturnData",
      "outputs": [
        {
          "internalType": "bool",
          "name": "success",
          "type": "bool"
        },
        {
          "internalType": "bytes",
          "name": "returnData",
          "type": "bytes"
        }
      ],
      "stateMutability": "nonpayable",
      "type": "function"
    },
    {
      "inputs": [
        {
          "internalType": "bytes",
          "name": "checkMsg",
          "type": "bytes"
        }
      ],
      "name": "executeCheck",
      "outputs": [
        {
          "internalType": "bool",
          "name": "success",
          "type": "bool"
        }
      ],
      "stateMutability": "nonpayable",
      "type": "function"
    },
    {
      "inputs": [],
      "name": "getChainId",
      "outputs": [
        {
          "internalType": "uint256",
          "name": "",
          "type": "uint256"
        }
      ],
      "stateMutability": "view",
      "type": "function"
    },
    {
      "inputs": [
        {
          "internalType": "address",
          "name": "start",
          "type": "address"
        },
        {
          "internalType": "uint256",
          "name": "pageSize",
          "type": "uint256"
        }
      ],
      "name": "getModulesPaginated",
      "outputs": [
        {
          "internalType": "address[]",
          "name": "array",
          "type": "address[]"
        },
        {
          "internalType": "address",
          "name": "next",
          "type": "address"
        }
      ],
      "stateMutability": "view",
      "type": "function"
    },
    {
      "inputs": [],
      "name": "getOwners",
      "outputs": [
        {
          "internalType": "address[]",
          "name": "",
          "type": "address[]"
        }
      ],
      "stateMutability": "view",
      "type": "function"
    },
    {
      "inputs": [
        {
          "internalType": "uint256",
          "name": "offset",
          "type": "uint256"
        },
        {
          "internalType": "uint256",
          "name": "length",
          "type": "uint256"
        }
      ],
      "name": "getStorageAt",
      "outputs": [
        {
          "internalType": "bytes",
          "name": "",
          "type": "bytes"
        }
      ],
      "stateMutability": "view",
      "type": "function"
    },
    {
      "inputs": [],
      "name": "getThreshold",
      "outputs": [
        {
          "internalType": "uint256",
          "name": "",
          "type": "uint256"
        }
      ],
      "stateMutability": "view",
      "type": "function"
    },
    {
      "inputs": [
        {
          "internalType": "address",
          "name": "to",
          "type": "address"
        },
        {
          "internalType": "uint256",
          "name": "value",
          "type": "uint256"
        },
        {
          "internalType": "bytes",
          "name": "data",
          "type": "bytes"
        },
        {
          "internalType": "enum Enum.Operation",
          "name": "operation",
          "type": "uint8"
        },
        {
          "internalType": "uint256",
          "name": "safeTxGas",
          "type": "uint256"
        },
        {
          "internalType": "uint256",
          "name": "baseGas",
          "type": "uint256"
        },
        {
          "internalType": "uint256",
          "name": "gasPrice",
          "type": "uint256"
        },
        {
          "internalType": "address",
          "name": "gasToken",
          "type": "address"
        },
        {
          "internalType": "address",
          "name": "refundReceiver",
          "type": "address"
        },
        {
          "internalType": "uint256",
          "name": "_nonce",
          "type": "uint256"
        }
      ],
      "name": "getTransactionHash",
      "outputs": [
        {
          "internalType": "bytes32",
          "name": "",
          "type": "bytes32"
        }
      ],
      "stateMutability": "view",
      "type": "function"
    },
    {
      "inputs": [
        {
          "internalType": "address",
          "name": "module",
          "type": "address"
        }
      ],
      "name": "isModuleEnabled",
      "outputs": [
        {
          "internalType": "bool",
          "name": "",
          "type": "bool"
        }
      ],
      "stateMutability": "view",
      "type": "function"
    },
    {
      "inputs": [
        {
          "internalType": "address",
          "name": "owner",
          "type": "address"
        }
      ],
      "name": "isOwner",
      "outputs": [
        {
          "internalType": "bool",
          "name": "",
          "type": "bool"
        }
      ],
      "stateMutability": "view",
      "type": "function"
    },
    {
      "inputs": [],
      "name": "nonce",
      "outputs": [
        {
          "internalType": "uint256",
          "name": "",
          "type": "uint256"
        }
      ],
      "stateMutability": "view",
      "type": "function"
    },
    {
      "inputs": [
        {
          "internalType": "address",
          "name": "prevOwner",
          "type": "address"
        },
        {
          "internalType": "address",
          "name": "owner",
          "type": "address"
        },
        {
          "internalType": "uint256",
          "name": "_threshold",
          "type": "uint256"
        }
      ],
      "name": "removeOwner",
      "outputs": [],
      "stateMutability": "nonpayable",
      "type": "function"
    },
    {
      "inputs": [
        {
          "internalType": "address",
          "name": "to",
          "type": "address"
        },
        {
          "internalType": "uint256",
          "name": "value",
          "type": "uint256"
        },
        {
          "internalType": "bytes",
          "name": "data",
          "type": "bytes"
        },
        {
          "internalType": "enum Enum.Operation",
          "name": "operation",
          "type": "uint8"
        }
      ],
      "name": "requiredTxGas",
      "outputs": [
        {
          "internalType": "uint256",
          "name": "",
          "type": "uint256"
        }
      ],
      "stateMutability": "nonpayable",
      "type": "function"
    },
    {
      "inputs": [
        {
          "internalType": "address",
          "name": "handler",
          "type": "address"
        }
      ],
      "name": "setFallbackHandler",
      "outputs": [],
      "stateMutability": "nonpayable",
      "type": "function"
    },
    {
      "inputs": [
        {
          "internalType": "address",
          "name": "guard",
          "type": "address"
        }
      ],
      "name": "setGuard",
      "outputs": [],
      "stateMutability": "nonpayable",
      "type": "function"
    },
    {
      "inputs": [
        {
          "internalType": "address[]",
          "name": "_owners",
          "type": "address[]"
        },
        {
          "internalType": "uint256",
          "name": "_threshold",
          "type": "uint256"
        },
        {
          "internalType": "address",
          "name": "to",
          "type": "address"
        },
        {
          "internalType": "bytes",
          "name": "data",
          "type": "bytes"
        },
        {
          "internalType": "address",
          "name": "fallbackHandler",
          "type": "address"
        },
        {
          "internalType": "address",
          "name": "paymentToken",
          "type": "address"
        },
        {
          "internalType": "uint256",
          "name": "payment",
          "type": "uint256"
        },
        {
          "internalType": "address payable",
          "name": "paymentReceiver",
          "type": "address"
        }
      ],
      "name": "setup",
      "outputs": [],
      "stateMutability": "nonpayable",
      "type": "function"
    },
    {
      "inputs": [
        {
          "internalType": "bytes32",
          "name": "",
          "type": "bytes32"
        }
      ],
      "name": "signedMessages",
      "outputs": [
        {
          "internalType": "uint256",
          "name": "",
          "type": "uint256"
        }
      ],
      "stateMutability": "view",
      "type": "function"
    },
    {
      "inputs": [
        {
          "internalType": "address",
          "name": "targetContract",
          "type": "address"
        },
        {
          "internalType": "bytes",
          "name": "calldataPayload",
          "type": "bytes"
        }
      ],
      "name": "simulateAndRevert",
      "outputs": [],
      "stateMutability": "nonpayable",
      "type": "function"
    },
    {
      "inputs": [
        {
          "internalType": "address",
          "name": "prevOwner",
          "type": "address"
        },
        {
          "internalType": "address",
          "name": "oldOwner",
          "type": "address"
        },
        {
          "internalType": "address",
          "name": "newOwner",
          "type": "address"
        }
      ],
      "name": "swapOwner",
      "outputs": [],
      "stateMutability": "nonpayable",
      "type": "function"
    },
    {
      "stateMutability": "payable",
      "type": "receive"
    }
  ],
  "bytecode": "0x608060405234801561001057600080fd5b506175c480620000216000396000f3fe6080604052600436106102135760003560e01c8063a0e67e2b11610118578063e009cfde116100a0578063e86637db1161006f578063e86637db14610909578063f08a032314610946578063f698da251461096f578063f8dc5dd91461099a578063ffa1ad74146109c357610268565b8063e009cfde14610863578063e19a9dd91461088c578063e318b52b146108b5578063e75235b8146108de57610268565b8063b63e800d116100e7578063b63e800d14610759578063c4ca3a9c14610782578063cc2f8452146107bf578063d4d9bdcd146107fd578063d8d11f781461082657610268565b8063a0e67e2b1461069d578063a751e230146106c8578063affed0e014610705578063b4faba091461073057610268565b8063555010491161019b57806367480d501161016a57806367480d50146105a1578063694e80c3146105de5780636a761202146106075780637d83297414610637578063934f3a111461067457610268565b806355501049146104c15780635624b25b146104fe5780635ae6bd371461053b578063610b59251461057857610268565b80632d9ad53d116101e25780632d9ad53d146103a15780632f54bf6e146103de5780633408e4701461041b578063468721a7146104465780635229073f1461048357610268565b806303a9d831146102d55780630d582f131461031257806312fb68e01461033b5780632a2a09bc1461036457610268565b36610268573373ffffffffffffffffffffffffffffffffffffffff167f3d0ce9bfc3ed7d6862dbb28b2dea94561fe714a1b4d019aa8af39730d1ad7c3d3460405161025e9190616a02565b60405180910390a2005b34801561027457600080fd5b5060007f6c9a6c4a39284e37ed1cf53d337577d14212a4870fb976a4366c693b939918d560001b90508054806102a957600080f35b36600080373360601b365260008060143601600080855af13d6000803e806102d0573d6000fd5b3d6000f35b3480156102e157600080fd5b506102fc60048036038101906102f791906158c2565b6109ee565b60405161030991906165c7565b60405180910390f35b34801561031e57600080fd5b50610339600480360381019061033491906152ca565b610a52565b005b34801561034757600080fd5b50610362600480360381019061035d91906157c5565b610dcc565b005b34801561037057600080fd5b5061038b60048036038101906103869190615881565b6113d3565b6040516103989190616340565b60405180910390f35b3480156103ad57600080fd5b506103c860048036038101906103c39190615137565b6114a8565b6040516103d59190616340565b60405180910390f35b3480156103ea57600080fd5b5061040560048036038101906104009190615137565b61157a565b6040516104129190616340565b60405180910390f35b34801561042757600080fd5b5061043061164c565b60405161043d9190616a02565b60405180910390f35b34801561045257600080fd5b5061046d6004803603810190610468919061558e565b611659565b60405161047a9190616340565b60405180910390f35b34801561048f57600080fd5b506104aa60048036038101906104a5919061558e565b61180c565b6040516104b892919061635b565b60405180910390f35b3480156104cd57600080fd5b506104e860048036038101906104e391906158c2565b611842565b6040516104f591906165c7565b60405180910390f35b34801561050a57600080fd5b506105256004803603810190610520919061596d565b6118cb565b60405161053291906165c7565b60405180910390f35b34801561054757600080fd5b50610562600480360381019061055d919061571d565b611989565b60405161056f9190616a02565b60405180910390f35b34801561058457600080fd5b5061059f600480360381019061059a9190615137565b6119a1565b005b3480156105ad57600080fd5b506105c860048036038101906105c39190615881565b611cb7565b6040516105d59190616340565b60405180910390f35b3480156105ea57600080fd5b5061060560048036038101906106009190615944565b6120d2565b005b610621600480360381019061061c9190615386565b6121a6565b60405161062e9190616340565b60405180910390f35b34801561064357600080fd5b5061065e6004803603810190610659919061523a565b612567565b60405161066b9190616a02565b60405180910390f35b34801561068057600080fd5b5061069b60048036038101906106969190615746565b61258c565b005b3480156106a957600080fd5b506106b26125e8565b6040516106bf91906162ee565b60405180910390f35b3480156106d457600080fd5b506106ef60048036038101906106ea91906158c2565b6127ec565b6040516106fc91906165c7565b60405180910390f35b34801561071157600080fd5b5061071a61284a565b6040516107279190616a02565b60405180910390f35b34801561073c57600080fd5b5061075760048036038101906107529190615276565b612850565b005b34801561076557600080fd5b50610780600480360381019061077b9190615609565b612872565b005b34801561078e57600080fd5b506107a960048036038101906107a49190615306565b6129c5565b6040516107b69190616a02565b60405180910390f35b3480156107cb57600080fd5b506107e660048036038101906107e191906152ca565b612a91565b6040516107f4929190616310565b60405180910390f35b34801561080957600080fd5b50610824600480360381019061081f919061571d565b612cde565b005b34801561083257600080fd5b5061084d60048036038101906108489190615496565b612e4a565b60405161085a919061638b565b60405180910390f35b34801561086f57600080fd5b5061088a60048036038101906108859190615160565b612e77565b005b34801561089857600080fd5b506108b360048036038101906108ae9190615137565b61318c565b005b3480156108c157600080fd5b506108dc60048036038101906108d7919061519c565b613317565b005b3480156108ea57600080fd5b506108f3613891565b6040516109009190616a02565b60405180910390f35b34801561091557600080fd5b50610930600480360381019061092b9190615496565b61389b565b60405161093d91906165c7565b60405180910390f35b34801561095257600080fd5b5061096d60048036038101906109689190615137565b61395d565b005b34801561097b57600080fd5b506109846139a8565b604051610991919061638b565b60405180910390f35b3480156109a657600080fd5b506109c160048036038101906109bc91906151eb565b613a04565b005b3480156109cf57600080fd5b506109d8613d96565b6040516109e59190616620565b60405180910390f35b60606000610a0c6109fe84611842565b610a07856127ec565b613dcf565b805190602001209050601960f81b600160f81b610a276139a8565b83604051602001610a3b9493929190616089565b604051602081830303815290604052915050919050565b610a5a613dfb565b600073ffffffffffffffffffffffffffffffffffffffff168273ffffffffffffffffffffffffffffffffffffffff1614158015610ac45750600173ffffffffffffffffffffffffffffffffffffffff168273ffffffffffffffffffffffffffffffffffffffff1614155b8015610afc57503073ffffffffffffffffffffffffffffffffffffffff168273ffffffffffffffffffffffffffffffffffffffff1614155b610b3b576040517f08c379a0000000000000000000000000000000000000000000000000000000008152600401610b3290616742565b60405180910390fd5b600073ffffffffffffffffffffffffffffffffffffffff16600260008473ffffffffffffffffffffffffffffffffffffffff1673ffffffffffffffffffffffffffffffffffffffff16815260200190815260200160002060009054906101000a900473ffffffffffffffffffffffffffffffffffffffff1673ffffffffffffffffffffffffffffffffffffffff1614610c09576040517f08c379a0000000000000000000000000000000000000000000000000000000008152600401610c00906168e2565b60405180910390fd5b60026000600173ffffffffffffffffffffffffffffffffffffffff1673ffffffffffffffffffffffffffffffffffffffff16815260200190815260200160002060009054906101000a900473ffffffffffffffffffffffffffffffffffffffff16600260008473ffffffffffffffffffffffffffffffffffffffff1673ffffffffffffffffffffffffffffffffffffffff16815260200190815260200160002060006101000a81548173ffffffffffffffffffffffffffffffffffffffff021916908373ffffffffffffffffffffffffffffffffffffffff1602179055508160026000600173ffffffffffffffffffffffffffffffffffffffff1673ffffffffffffffffffffffffffffffffffffffff16815260200190815260200160002060006101000a81548173ffffffffffffffffffffffffffffffffffffffff021916908373ffffffffffffffffffffffffffffffffffffffff16021790555060036000815480929190610d7990616e8f565b91905055507f9465fa0c962cc76958e6373a993326400c1c94f8be2fe3a952adfa7f60b2ea2682604051610dad9190616155565b60405180910390a18060045414610dc857610dc7816120d2565b5b5050565b610de0604182613e6b90919063ffffffff16565b82511015610e23576040517f08c379a0000000000000000000000000000000000000000000000000000000008152600401610e1a906169c2565b60405180910390fd5b6000808060008060005b868110156113c757610e3f8882613eb0565b80945081955082965050505060008460ff1614156110a9578260001c9450610e71604188613e6b90919063ffffffff16565b8260001c1015610eb6576040517f08c379a0000000000000000000000000000000000000000000000000000000008152600401610ead90616982565b60405180910390fd5b8751610ecf60208460001c613edf90919063ffffffff16565b1115610f10576040517f08c379a0000000000000000000000000000000000000000000000000000000008152600401610f0790616702565b60405180910390fd5b60006020838a01015190508851610f4682610f3860208760001c613edf90919063ffffffff16565b613edf90919063ffffffff16565b1115610f87576040517f08c379a0000000000000000000000000000000000000000000000000000000008152600401610f7e90616642565b60405180910390fd5b60606020848b010190506320c13b0b60e01b7bffffffffffffffffffffffffffffffffffffffffffffffffffffffff19168773ffffffffffffffffffffffffffffffffffffffff166320c13b0b8d846040518363ffffffff1660e01b8152600401610ff39291906165e9565b60206040518083038186803b15801561100b57600080fd5b505afa15801561101f573d6000803e3d6000fd5b505050506040513d601f19601f820116820180604052508101906110439190615858565b7bffffffffffffffffffffffffffffffffffffffffffffffffffffffff1916146110a2576040517f08c379a000000000000000000000000000000000000000000000000000000000815260040161109990616682565b60405180910390fd5b5050611272565b60018460ff16141561118a578260001c94508473ffffffffffffffffffffffffffffffffffffffff163373ffffffffffffffffffffffffffffffffffffffff16148061114657506000600860008773ffffffffffffffffffffffffffffffffffffffff1673ffffffffffffffffffffffffffffffffffffffff16815260200190815260200160002060008c81526020019081526020016000205414155b611185576040517f08c379a000000000000000000000000000000000000000000000000000000000815260040161117c906168c2565b60405180910390fd5b611271565b601e8460ff16111561121e5760018a6040516020016111a99190616114565b604051602081830303815290604052805190602001206004866111cc9190616cac565b8585604051600081526020016040526040516111eb9493929190616567565b6020604051602081039080840390855afa15801561120d573d6000803e3d6000fd5b505050602060405103519450611270565b60018a858585604051600081526020016040526040516112419493929190616567565b6020604051602081039080840390855afa158015611263573d6000803e3d6000fd5b5050506020604051035194505b5b5b8573ffffffffffffffffffffffffffffffffffffffff168573ffffffffffffffffffffffffffffffffffffffff161180156113395750600073ffffffffffffffffffffffffffffffffffffffff16600260008773ffffffffffffffffffffffffffffffffffffffff1673ffffffffffffffffffffffffffffffffffffffff16815260200190815260200160002060009054906101000a900473ffffffffffffffffffffffffffffffffffffffff1673ffffffffffffffffffffffffffffffffffffffff1614155b80156113725750600173ffffffffffffffffffffffffffffffffffffffff168573ffffffffffffffffffffffffffffffffffffffff1614155b6113b1576040517f08c379a00000000000000000000000000000000000000000000000000000000081526004016113a890616662565b60405180910390fd5b84955080806113bf90616e8f565b915050610e2d565b50505050505050505050565b60008060006113e184613f07565b90506000151560096000836101c00151815260200190815260200160002060009054906101000a900460ff1615151461144f576040517f08c379a000000000000000000000000000000000000000000000000000000000815260040161144690616962565b60405180910390fd5b600061145a826109ee565b90506001151560096000600554815260200190815260200160002060009054906101000a905050508080519060200120925061149c8382846101e0015161258c565b50600192505050919050565b60008173ffffffffffffffffffffffffffffffffffffffff16600173ffffffffffffffffffffffffffffffffffffffff16141580156115735750600073ffffffffffffffffffffffffffffffffffffffff16600160008473ffffffffffffffffffffffffffffffffffffffff1673ffffffffffffffffffffffffffffffffffffffff16815260200190815260200160002060009054906101000a900473ffffffffffffffffffffffffffffffffffffffff1673ffffffffffffffffffffffffffffffffffffffff1614155b9050919050565b6000600173ffffffffffffffffffffffffffffffffffffffff168273ffffffffffffffffffffffffffffffffffffffff16141580156116455750600073ffffffffffffffffffffffffffffffffffffffff16600260008473ffffffffffffffffffffffffffffffffffffffff1673ffffffffffffffffffffffffffffffffffffffff16815260200190815260200160002060009054906101000a900473ffffffffffffffffffffffffffffffffffffffff1673ffffffffffffffffffffffffffffffffffffffff1614155b9050919050565b6000804690508091505090565b6000600173ffffffffffffffffffffffffffffffffffffffff163373ffffffffffffffffffffffffffffffffffffffff16141580156117245750600073ffffffffffffffffffffffffffffffffffffffff16600160003373ffffffffffffffffffffffffffffffffffffffff1673ffffffffffffffffffffffffffffffffffffffff16815260200190815260200160002060009054906101000a900473ffffffffffffffffffffffffffffffffffffffff1673ffffffffffffffffffffffffffffffffffffffff1614155b611763576040517f08c379a000000000000000000000000000000000000000000000000000000000815260040161175a90616882565b60405180910390fd5b611770858585855a613f2a565b905080156117c0573373ffffffffffffffffffffffffffffffffffffffff167f6895c13664aa4f67288b25d7a21d7aaa34916e355fb9b6fae0a139a9085becb860405160405180910390a2611804565b3373ffffffffffffffffffffffffffffffffffffffff167facd2c8702804128fdb0db2bb49f6d127dd0181c13fd45dbfe16de0930e2bd37560405160405180910390a25b949350505050565b6000606061181c86868686611659565b915060405160203d0181016040523d81523d6000602083013e8091505094509492505050565b606060007fe862762e9cc423ab9325aacefda6c3feadcb9e6aa390fbbd3667781066ee542960001b83600001518460200151856040015186606001518760800151805190602001208860a001518960c001518a60e001516040516020016118b19998979695949392919061647a565b604051602081830303815290604052905080915050919050565b606060006020836118dc9190616c1e565b67ffffffffffffffff81111561191b577f4e487b7100000000000000000000000000000000000000000000000000000000600052604160045260246000fd5b6040519080825280601f01601f19166020018201604052801561194d5781602001600182028036833780820191505090505b50905060005b8381101561197e5780850154806020830260208501015250808061197690616e8f565b915050611953565b508091505092915050565b60076020528060005260406000206000915090505481565b6119a9613dfb565b600073ffffffffffffffffffffffffffffffffffffffff168173ffffffffffffffffffffffffffffffffffffffff1614158015611a135750600173ffffffffffffffffffffffffffffffffffffffff168173ffffffffffffffffffffffffffffffffffffffff1614155b611a52576040517f08c379a0000000000000000000000000000000000000000000000000000000008152600401611a49906169a2565b60405180910390fd5b600073ffffffffffffffffffffffffffffffffffffffff16600160008373ffffffffffffffffffffffffffffffffffffffff1673ffffffffffffffffffffffffffffffffffffffff16815260200190815260200160002060009054906101000a900473ffffffffffffffffffffffffffffffffffffffff1673ffffffffffffffffffffffffffffffffffffffff1614611b20576040517f08c379a0000000000000000000000000000000000000000000000000000000008152600401611b1790616922565b60405180910390fd5b60016000600173ffffffffffffffffffffffffffffffffffffffff1673ffffffffffffffffffffffffffffffffffffffff16815260200190815260200160002060009054906101000a900473ffffffffffffffffffffffffffffffffffffffff16600160008373ffffffffffffffffffffffffffffffffffffffff1673ffffffffffffffffffffffffffffffffffffffff16815260200190815260200160002060006101000a81548173ffffffffffffffffffffffffffffffffffffffff021916908373ffffffffffffffffffffffffffffffffffffffff1602179055508060016000600173ffffffffffffffffffffffffffffffffffffffff1673ffffffffffffffffffffffffffffffffffffffff16815260200190815260200160002060006101000a81548173ffffffffffffffffffffffffffffffffffffffff021916908373ffffffffffffffffffffffffffffffffffffffff1602179055507fecdf3a3effea5783a3c4c2140e677577666428d44ed9d474a0b3a4c9943f844081604051611cac9190616155565b60405180910390a150565b6000806000611cc584613f07565b90506000151560096000836101c00151815260200190815260200160002060009054906101000a900460ff16151514611d33576040517f08c379a0000000000000000000000000000000000000000000000000000000008152600401611d2a90616962565b60405180910390fd5b600160096000836101c00151815260200190815260200160002060006101000a81548160ff021916908315150217905550806020015173ffffffffffffffffffffffffffffffffffffffff163373ffffffffffffffffffffffffffffffffffffffff1614611dd6576040517f08c379a0000000000000000000000000000000000000000000000000000000008152600401611dcd906166e2565b60405180910390fd5b6000611de1826109ee565b90506001151560096000600554815260200190815260200160002060009054906101000a9050505080805190602001209250611e238382846101e0015161258c565b5060005a9050816000015115611e7857611e758260400151836060015184608001518560a00151600087610100015114611e61578660c00151611e70565b6109c45a611e6f9190616c78565b5b613f2a565b93505b81610160015115611f4557600073ffffffffffffffffffffffffffffffffffffffff1682610180015173ffffffffffffffffffffffffffffffffffffffff161415611ec257600080fd5b81610180015173ffffffffffffffffffffffffffffffffffffffff166108fc836101a001519081150290604051600060405180830381858888f19350505050611f40576040517f08c379a0000000000000000000000000000000000000000000000000000000008152600401611f3790616902565b60405180910390fd5b600193505b611f585a82613fd090919063ffffffff16565b90508380611f6b575060008260c0015114155b80611f7c5750600082610100015114155b611fbb576040517f08c379a0000000000000000000000000000000000000000000000000000000008152600401611fb290616822565b60405180910390fd5b6000808361010001511115611fed57611fea828460e00151856101000151866101200151876101400151613ff9565b90505b841561206057826040015173ffffffffffffffffffffffffffffffffffffffff167fb84985ee6912e169f5f446f739bfe323890314ccd37862ae1452cbba5fe18c128460200151856060015186608001518760a001516040516120539493929190616254565b60405180910390a26120c9565b826040015173ffffffffffffffffffffffffffffffffffffffff167f071547af80e3d5a99bba7bbc9bfb5606512d75cfb1d4e2aee66face3f539100a8460200151856060015186608001518760a001516040516120c09493929190616254565b60405180910390a25b50505050919050565b6120da613dfb565b60035481111561211f576040517f08c379a0000000000000000000000000000000000000000000000000000000008152600401612116906166c2565b60405180910390fd5b6001811015612163576040517f08c379a000000000000000000000000000000000000000000000000000000000815260040161215a90616862565b60405180910390fd5b806004819055507f610f7ff2b304ae8903c3de74c60c6ab1f7d6226b3f52c5161905bb5ad4039c9360045460405161219b9190616a02565b60405180910390a150565b60008060006121c08e8e8e8e8e8e8e8e8e8e60055461389b565b9050600560008154809291906121d590616e8f565b9190505550808051906020012091506121ef82828661258c565b5060006121fa614199565b9050600073ffffffffffffffffffffffffffffffffffffffff168173ffffffffffffffffffffffffffffffffffffffff16146122b2578073ffffffffffffffffffffffffffffffffffffffff166375f0bb528f8f8f8f8f8f8f8f8f8f8f336040518d63ffffffff1660e01b815260040161227f9c9b9a99989796959493929190616199565b600060405180830381600087803b15801561229957600080fd5b505af11580156122ad573d6000803e3d6000fd5b505050505b6101f46122ed6109c48b6122c69190616b97565b603f60408d6122d59190616c1e565b6122df9190616bed565b6141ca90919063ffffffff16565b6122f79190616b97565b5a1015612339576040517f08c379a000000000000000000000000000000000000000000000000000000000815260040161233090616842565b60405180910390fd5b60005a90506123ab8f8f8f8f8080601f016020809104026020016040519081016040528093929190818152602001838380828437600081840152601f19601f820116905080830192505050505050508e60008d14612397578e6123a6565b6109c45a6123a59190616c78565b5b613f2a565b93506123c05a82613fd090919063ffffffff16565b905083806123cf575060008a14155b806123db575060008814155b61241a576040517f08c379a000000000000000000000000000000000000000000000000000000000815260040161241190616822565b60405180910390fd5b60008089111561243457612431828b8b8b8b6141e4565b90505b8415612478577f442e715f626346e8c54381002da614f62bee8d27386535b2521ec8540898556e848260405161246b929190616507565b60405180910390a16124b2565b7f23428b18acfb3ea64b08dc0c1d296ea9c09702c09083ca5272e64d115b687d2384826040516124a9929190616507565b60405180910390a15b5050600073ffffffffffffffffffffffffffffffffffffffff168173ffffffffffffffffffffffffffffffffffffffff1614612556578073ffffffffffffffffffffffffffffffffffffffff16639327136883856040518363ffffffff1660e01b8152600401612523929190616451565b600060405180830381600087803b15801561253d57600080fd5b505af1158015612551573d6000803e3d6000fd5b505050505b50509b9a5050505050505050505050565b6008602052816000526040600020602052806000526040600020600091509150505481565b60006004549050600081116125d6576040517f08c379a00000000000000000000000000000000000000000000000000000000081526004016125cd90616802565b60405180910390fd5b6125e284848484610dcc565b50505050565b6060600060035467ffffffffffffffff81111561262e577f4e487b7100000000000000000000000000000000000000000000000000000000600052604160045260246000fd5b60405190808252806020026020018201604052801561265c5781602001602082028036833780820191505090505b50905060008060026000600173ffffffffffffffffffffffffffffffffffffffff1673ffffffffffffffffffffffffffffffffffffffff16815260200190815260200160002060009054906101000a900473ffffffffffffffffffffffffffffffffffffffff1690505b600173ffffffffffffffffffffffffffffffffffffffff168173ffffffffffffffffffffffffffffffffffffffff16146127e35780838381518110612734577f4e487b7100000000000000000000000000000000000000000000000000000000600052603260045260246000fd5b602002602001019073ffffffffffffffffffffffffffffffffffffffff16908173ffffffffffffffffffffffffffffffffffffffff1681525050600260008273ffffffffffffffffffffffffffffffffffffffff1673ffffffffffffffffffffffffffffffffffffffff16815260200190815260200160002060009054906101000a900473ffffffffffffffffffffffffffffffffffffffff16905081806127db90616e8f565b9250506126c6565b82935050505090565b60606000826101000151836101200151846101400151856101600151866101800151876101a00151886101c001516040516020016128309796959493929190616a1d565b604051602081830303815290604052905080915050919050565b60055481565b600080825160208401855af4806000523d6020523d600060403e60403d016000fd5b6128bd8a8a80806020026020016040519081016040528093929190818152602001838360200280828437600081840152601f19601f8201169050808301925050505050505089614384565b600073ffffffffffffffffffffffffffffffffffffffff168473ffffffffffffffffffffffffffffffffffffffff16146128fb576128fa846147b8565b5b6129498787878080601f016020809104026020016040519081016040528093929190818152602001838380828437600081840152601f19601f820116905080830192505050505050506147e7565b600082111561296357612961826000600186856141e4565b505b3373ffffffffffffffffffffffffffffffffffffffff167f141df868a6331af528e38c83b7aa03edc19be66e37ae67f9285bf4f8e3c6a1a88b8b8b8b896040516129b19594939291906162a0565b60405180910390a250505050505050505050565b6000805a9050612a1c878787878080601f016020809104026020016040519081016040528093929190818152602001838380828437600081840152601f19601f82011690508083019250505050505050865a613f2a565b612a2557600080fd5b60005a82612a339190616c78565b905080604051602001612a46919061613a565b6040516020818303038152906040526040517f08c379a0000000000000000000000000000000000000000000000000000000008152600401612a889190616620565b60405180910390fd5b606060008267ffffffffffffffff811115612ad5577f4e487b7100000000000000000000000000000000000000000000000000000000600052604160045260246000fd5b604051908082528060200260200182016040528015612b035781602001602082028036833780820191505090505b509150600080600160008773ffffffffffffffffffffffffffffffffffffffff1673ffffffffffffffffffffffffffffffffffffffff16815260200190815260200160002060009054906101000a900473ffffffffffffffffffffffffffffffffffffffff1690505b600073ffffffffffffffffffffffffffffffffffffffff168173ffffffffffffffffffffffffffffffffffffffff1614158015612bd65750600173ffffffffffffffffffffffffffffffffffffffff168173ffffffffffffffffffffffffffffffffffffffff1614155b8015612be157508482105b15612ccf5780848381518110612c20577f4e487b7100000000000000000000000000000000000000000000000000000000600052603260045260246000fd5b602002602001019073ffffffffffffffffffffffffffffffffffffffff16908173ffffffffffffffffffffffffffffffffffffffff1681525050600160008273ffffffffffffffffffffffffffffffffffffffff1673ffffffffffffffffffffffffffffffffffffffff16815260200190815260200160002060009054906101000a900473ffffffffffffffffffffffffffffffffffffffff1690508180612cc790616e8f565b925050612b6c565b80925081845250509250929050565b600073ffffffffffffffffffffffffffffffffffffffff16600260003373ffffffffffffffffffffffffffffffffffffffff1673ffffffffffffffffffffffffffffffffffffffff16815260200190815260200160002060009054906101000a900473ffffffffffffffffffffffffffffffffffffffff1673ffffffffffffffffffffffffffffffffffffffff161415612dad576040517f08c379a0000000000000000000000000000000000000000000000000000000008152600401612da4906166a2565b60405180910390fd5b6001600860003373ffffffffffffffffffffffffffffffffffffffff1673ffffffffffffffffffffffffffffffffffffffff1681526020019081526020016000206000838152602001908152602001600020819055503373ffffffffffffffffffffffffffffffffffffffff16817ff2a0eb156472d1440255b0d7c1e19cc07115d1051fe605b0dce69acfec884d9c60405160405180910390a350565b6000612e5f8c8c8c8c8c8c8c8c8c8c8c61389b565b8051906020012090509b9a5050505050505050505050565b612e7f613dfb565b600073ffffffffffffffffffffffffffffffffffffffff168173ffffffffffffffffffffffffffffffffffffffff1614158015612ee95750600173ffffffffffffffffffffffffffffffffffffffff168173ffffffffffffffffffffffffffffffffffffffff1614155b612f28576040517f08c379a0000000000000000000000000000000000000000000000000000000008152600401612f1f906169a2565b60405180910390fd5b8073ffffffffffffffffffffffffffffffffffffffff16600160008473ffffffffffffffffffffffffffffffffffffffff1673ffffffffffffffffffffffffffffffffffffffff16815260200190815260200160002060009054906101000a900473ffffffffffffffffffffffffffffffffffffffff1673ffffffffffffffffffffffffffffffffffffffff1614612ff5576040517f08c379a0000000000000000000000000000000000000000000000000000000008152600401612fec906167a2565b60405180910390fd5b600160008273ffffffffffffffffffffffffffffffffffffffff1673ffffffffffffffffffffffffffffffffffffffff16815260200190815260200160002060009054906101000a900473ffffffffffffffffffffffffffffffffffffffff16600160008473ffffffffffffffffffffffffffffffffffffffff1673ffffffffffffffffffffffffffffffffffffffff16815260200190815260200160002060006101000a81548173ffffffffffffffffffffffffffffffffffffffff021916908373ffffffffffffffffffffffffffffffffffffffff1602179055506000600160008373ffffffffffffffffffffffffffffffffffffffff1673ffffffffffffffffffffffffffffffffffffffff16815260200190815260200160002060006101000a81548173ffffffffffffffffffffffffffffffffffffffff021916908373ffffffffffffffffffffffffffffffffffffffff1602179055507faab4fa2b463f581b2b32cb3b7e3b704b9ce37cc209b5fb4d77e593ace4054276816040516131809190616155565b60405180910390a15050565b613194613dfb565b600073ffffffffffffffffffffffffffffffffffffffff168173ffffffffffffffffffffffffffffffffffffffff16146132b1578073ffffffffffffffffffffffffffffffffffffffff166301ffc9a77fe6d7a83a000000000000000000000000000000000000000000000000000000006040518263ffffffff1660e01b815260040161322191906165ac565b60206040518083038186803b15801561323957600080fd5b505afa15801561324d573d6000803e3d6000fd5b505050506040513d601f19601f8201168201806040525081019061327191906156f4565b6132b0576040517f08c379a00000000000000000000000000000000000000000000000000000000081526004016132a790616942565b60405180910390fd5b5b60007f4a204f620c8c5ccdca3fd54d003badd85ba500436a431f0cbda4f558c93c34c860001b90508181557f1151116914515bc0891ff9047a6cb32cf902546f83066499bcf8ba33d2353fa28260405161330b9190616155565b60405180910390a15050565b61331f613dfb565b600073ffffffffffffffffffffffffffffffffffffffff168173ffffffffffffffffffffffffffffffffffffffff16141580156133895750600173ffffffffffffffffffffffffffffffffffffffff168173ffffffffffffffffffffffffffffffffffffffff1614155b80156133c157503073ffffffffffffffffffffffffffffffffffffffff168173ffffffffffffffffffffffffffffffffffffffff1614155b613400576040517f08c379a00000000000000000000000000000000000000000000000000000000081526004016133f790616742565b60405180910390fd5b600073ffffffffffffffffffffffffffffffffffffffff16600260008373ffffffffffffffffffffffffffffffffffffffff1673ffffffffffffffffffffffffffffffffffffffff16815260200190815260200160002060009054906101000a900473ffffffffffffffffffffffffffffffffffffffff1673ffffffffffffffffffffffffffffffffffffffff16146134ce576040517f08c379a00000000000000000000000000000000000000000000000000000000081526004016134c5906168e2565b60405180910390fd5b600073ffffffffffffffffffffffffffffffffffffffff168273ffffffffffffffffffffffffffffffffffffffff16141580156135385750600173ffffffffffffffffffffffffffffffffffffffff168273ffffffffffffffffffffffffffffffffffffffff1614155b613577576040517f08c379a000000000000000000000000000000000000000000000000000000000815260040161356e90616742565b60405180910390fd5b8173ffffffffffffffffffffffffffffffffffffffff16600260008573ffffffffffffffffffffffffffffffffffffffff1673ffffffffffffffffffffffffffffffffffffffff16815260200190815260200160002060009054906101000a900473ffffffffffffffffffffffffffffffffffffffff1673ffffffffffffffffffffffffffffffffffffffff1614613644576040517f08c379a000000000000000000000000000000000000000000000000000000000815260040161363b906169e2565b60405180910390fd5b600260008373ffffffffffffffffffffffffffffffffffffffff1673ffffffffffffffffffffffffffffffffffffffff16815260200190815260200160002060009054906101000a900473ffffffffffffffffffffffffffffffffffffffff16600260008373ffffffffffffffffffffffffffffffffffffffff1673ffffffffffffffffffffffffffffffffffffffff16815260200190815260200160002060006101000a81548173ffffffffffffffffffffffffffffffffffffffff021916908373ffffffffffffffffffffffffffffffffffffffff16021790555080600260008573ffffffffffffffffffffffffffffffffffffffff1673ffffffffffffffffffffffffffffffffffffffff16815260200190815260200160002060006101000a81548173ffffffffffffffffffffffffffffffffffffffff021916908373ffffffffffffffffffffffffffffffffffffffff1602179055506000600260008473ffffffffffffffffffffffffffffffffffffffff1673ffffffffffffffffffffffffffffffffffffffff16815260200190815260200160002060006101000a81548173ffffffffffffffffffffffffffffffffffffffff021916908373ffffffffffffffffffffffffffffffffffffffff1602179055507ff8d49fc529812e9a7c5c50e69c20f0dccc0db8fa95c98bc58cc9a4f1c1299eaf8260405161384d9190616155565b60405180910390a17f9465fa0c962cc76958e6373a993326400c1c94f8be2fe3a952adfa7f60b2ea26816040516138849190616155565b60405180910390a1505050565b6000600454905090565b606060007fbb8310d486368db6bd6f849402fdd73ad53d316b5a4b2644ad6efe0f941286d860001b8d8d8d8d6040516138d59291906160d7565b60405180910390208c8c8c8c8c8c8c6040516020016138fe9b9a999897969594939291906163a6565b604051602081830303815290604052805190602001209050601960f81b600160f81b6139286139a8565b8360405160200161393c9493929190616089565b6040516020818303038152906040529150509b9a5050505050505050505050565b613965613dfb565b61396e816147b8565b7f5ac6c46c93c8d0e53714ba3b53db3e7c046da994313d7ed0d192028bc7c228b08160405161399d9190616155565b60405180910390a150565b60007f47e79534a245952e8b16893a336b85a3d9ea9fa8c573f3d803afb92a7946921860001b6139d661164c565b306040516020016139e993929190616530565b60405160208183030381529060405280519060200120905090565b613a0c613dfb565b806001600354613a1c9190616c78565b1015613a5d576040517f08c379a0000000000000000000000000000000000000000000000000000000008152600401613a54906166c2565b60405180910390fd5b600073ffffffffffffffffffffffffffffffffffffffff168273ffffffffffffffffffffffffffffffffffffffff1614158015613ac75750600173ffffffffffffffffffffffffffffffffffffffff168273ffffffffffffffffffffffffffffffffffffffff1614155b613b06576040517f08c379a0000000000000000000000000000000000000000000000000000000008152600401613afd90616742565b60405180910390fd5b8173ffffffffffffffffffffffffffffffffffffffff16600260008573ffffffffffffffffffffffffffffffffffffffff1673ffffffffffffffffffffffffffffffffffffffff16815260200190815260200160002060009054906101000a900473ffffffffffffffffffffffffffffffffffffffff1673ffffffffffffffffffffffffffffffffffffffff1614613bd3576040517f08c379a0000000000000000000000000000000000000000000000000000000008152600401613bca906169e2565b60405180910390fd5b600260008373ffffffffffffffffffffffffffffffffffffffff1673ffffffffffffffffffffffffffffffffffffffff16815260200190815260200160002060009054906101000a900473ffffffffffffffffffffffffffffffffffffffff16600260008573ffffffffffffffffffffffffffffffffffffffff1673ffffffffffffffffffffffffffffffffffffffff16815260200190815260200160002060006101000a81548173ffffffffffffffffffffffffffffffffffffffff021916908373ffffffffffffffffffffffffffffffffffffffff1602179055506000600260008473ffffffffffffffffffffffffffffffffffffffff1673ffffffffffffffffffffffffffffffffffffffff16815260200190815260200160002060006101000a81548173ffffffffffffffffffffffffffffffffffffffff021916908373ffffffffffffffffffffffffffffffffffffffff16021790555060036000815480929190613d4290616e34565b91905055507ff8d49fc529812e9a7c5c50e69c20f0dccc0db8fa95c98bc58cc9a4f1c1299eaf82604051613d769190616155565b60405180910390a18060045414613d9157613d90816120d2565b5b505050565b6040518060400160405280600581526020017f312e332e3000000000000000000000000000000000000000000000000000000081525081565b60608282604051602001613de49291906160f0565b604051602081830303815290604052905092915050565b3073ffffffffffffffffffffffffffffffffffffffff163373ffffffffffffffffffffffffffffffffffffffff1614613e69576040517f08c379a0000000000000000000000000000000000000000000000000000000008152600401613e60906168a2565b60405180910390fd5b565b600080831415613e7e5760009050613eaa565b60008284613e8c9190616c1e565b9050828482613e9b9190616bed565b14613ea557600080fd5b809150505b92915050565b60008060008360410260208101860151925060408101860151915060ff60418201870151169350509250925092565b6000808284613eee9190616b97565b905083811015613efd57600080fd5b8091505092915050565b613f0f614a64565b81806020019051810190613f239190615903565b9050919050565b6000600180811115613f65577f4e487b7100000000000000000000000000000000000000000000000000000000600052602160045260246000fd5b836001811115613f9e577f4e487b7100000000000000000000000000000000000000000000000000000000600052602160045260246000fd5b1415613fb7576000808551602087018986f49050613fc7565b600080855160208701888a87f190505b95945050505050565b600082821115613fdf57600080fd5b60008284613fed9190616c78565b90508091505092915050565b600080600073ffffffffffffffffffffffffffffffffffffffff168373ffffffffffffffffffffffffffffffffffffffff16146140365782614038565b325b9050600073ffffffffffffffffffffffffffffffffffffffff168473ffffffffffffffffffffffffffffffffffffffff16141561411d576140a23a861061407f573a614081565b855b614094888a613edf90919063ffffffff16565b613e6b90919063ffffffff16565b91508073ffffffffffffffffffffffffffffffffffffffff166108fc839081150290604051600060405180830381858888f19350505050614118576040517f08c379a000000000000000000000000000000000000000000000000000000000815260040161410f90616782565b60405180910390fd5b61418f565b61414285614134888a613edf90919063ffffffff16565b613e6b90919063ffffffff16565b915061414f8482846149bc565b61418e576040517f08c379a0000000000000000000000000000000000000000000000000000000008152600401614185906167c2565b60405180910390fd5b5b5095945050505050565b6000807f4a204f620c8c5ccdca3fd54d003badd85ba500436a431f0cbda4f558c93c34c860001b9050805491505090565b6000818310156141da57816141dc565b825b905092915050565b600080600073ffffffffffffffffffffffffffffffffffffffff168373ffffffffffffffffffffffffffffffffffffffff16146142215782614223565b325b9050600073ffffffffffffffffffffffffffffffffffffffff168473ffffffffffffffffffffffffffffffffffffffff1614156143085761428d3a861061426a573a61426c565b855b61427f888a613edf90919063ffffffff16565b613e6b90919063ffffffff16565b91508073ffffffffffffffffffffffffffffffffffffffff166108fc839081150290604051600060405180830381858888f19350505050614303576040517f08c379a00000000000000000000000000000000000000000000000000000000081526004016142fa90616782565b60405180910390fd5b61437a565b61432d8561431f888a613edf90919063ffffffff16565b613e6b90919063ffffffff16565b915061433a8482846149bc565b614379576040517f08c379a0000000000000000000000000000000000000000000000000000000008152600401614370906167c2565b60405180910390fd5b5b5095945050505050565b6000600454146143c9576040517f08c379a00000000000000000000000000000000000000000000000000000000081526004016143c090616722565b60405180910390fd5b815181111561440d576040517f08c379a0000000000000000000000000000000000000000000000000000000008152600401614404906166c2565b60405180910390fd5b6001811015614451576040517f08c379a000000000000000000000000000000000000000000000000000000000815260040161444890616862565b60405180910390fd5b60006001905060005b835181101561472457600084828151811061449e577f4e487b7100000000000000000000000000000000000000000000000000000000600052603260045260246000fd5b60200260200101519050600073ffffffffffffffffffffffffffffffffffffffff168173ffffffffffffffffffffffffffffffffffffffff16141580156145125750600173ffffffffffffffffffffffffffffffffffffffff168173ffffffffffffffffffffffffffffffffffffffff1614155b801561454a57503073ffffffffffffffffffffffffffffffffffffffff168173ffffffffffffffffffffffffffffffffffffffff1614155b801561458257508073ffffffffffffffffffffffffffffffffffffffff168373ffffffffffffffffffffffffffffffffffffffff1614155b6145c1576040517f08c379a00000000000000000000000000000000000000000000000000000000081526004016145b890616742565b60405180910390fd5b600073ffffffffffffffffffffffffffffffffffffffff16600260008373ffffffffffffffffffffffffffffffffffffffff1673ffffffffffffffffffffffffffffffffffffffff16815260200190815260200160002060009054906101000a900473ffffffffffffffffffffffffffffffffffffffff1673ffffffffffffffffffffffffffffffffffffffff161461468f576040517f08c379a0000000000000000000000000000000000000000000000000000000008152600401614686906168e2565b60405180910390fd5b80600260008573ffffffffffffffffffffffffffffffffffffffff1673ffffffffffffffffffffffffffffffffffffffff16815260200190815260200160002060006101000a81548173ffffffffffffffffffffffffffffffffffffffff021916908373ffffffffffffffffffffffffffffffffffffffff16021790555080925050808061471c90616e8f565b91505061445a565b506001600260008373ffffffffffffffffffffffffffffffffffffffff1673ffffffffffffffffffffffffffffffffffffffff16815260200190815260200160002060006101000a81548173ffffffffffffffffffffffffffffffffffffffff021916908373ffffffffffffffffffffffffffffffffffffffff160217905550825160038190555081600481905550505050565b60007f6c9a6c4a39284e37ed1cf53d337577d14212a4870fb976a4366c693b939918d560001b90508181555050565b600073ffffffffffffffffffffffffffffffffffffffff1660016000600173ffffffffffffffffffffffffffffffffffffffff1673ffffffffffffffffffffffffffffffffffffffff16815260200190815260200160002060009054906101000a900473ffffffffffffffffffffffffffffffffffffffff1673ffffffffffffffffffffffffffffffffffffffff16146148b6576040517f08c379a00000000000000000000000000000000000000000000000000000000081526004016148ad906167e2565b60405180910390fd5b6001806000600173ffffffffffffffffffffffffffffffffffffffff1673ffffffffffffffffffffffffffffffffffffffff16815260200190815260200160002060006101000a81548173ffffffffffffffffffffffffffffffffffffffff021916908373ffffffffffffffffffffffffffffffffffffffff160217905550600073ffffffffffffffffffffffffffffffffffffffff168273ffffffffffffffffffffffffffffffffffffffff16146149b8576149788260008360015a613f2a565b6149b7576040517f08c379a00000000000000000000000000000000000000000000000000000000081526004016149ae90616762565b60405180910390fd5b5b5050565b60008063a9059cbb84846040516024016149d7929190616170565b6040516020818303038152906040529060e01b6020820180517bffffffffffffffffffffffffffffffffffffffffffffffffffffffff83818316178352505050509050602060008251602084016000896127105a03f13d60008114614a475760208114614a4f5760009350614a5a565b819350614a5a565b600051158215171593505b5050509392505050565b604051806102000160405280600015158152602001600073ffffffffffffffffffffffffffffffffffffffff168152602001600073ffffffffffffffffffffffffffffffffffffffff168152602001600081526020016060815260200160006001811115614afb577f4e487b7100000000000000000000000000000000000000000000000000000000600052602160045260246000fd5b8152602001600081526020016000815260200160008152602001600073ffffffffffffffffffffffffffffffffffffffff168152602001600073ffffffffffffffffffffffffffffffffffffffff168152602001600015158152602001600073ffffffffffffffffffffffffffffffffffffffff1681526020016000815260200160008152602001606081525090565b6000614b9e614b9984616ab1565b616a8c565b905082815260208101848484011115614bb657600080fd5b614bc1848285616df2565b509392505050565b6000614bdc614bd784616ab1565b616a8c565b905082815260208101848484011115614bf457600080fd5b614bff848285616e01565b509392505050565b600081359050614c16816174f4565b92915050565b600081519050614c2b816174f4565b92915050565b600081359050614c408161750b565b92915050565b600081519050614c558161750b565b92915050565b60008083601f840112614c6d57600080fd5b8235905067ffffffffffffffff811115614c8657600080fd5b602083019150836020820283011115614c9e57600080fd5b9250929050565b600081359050614cb481617522565b92915050565b600081519050614cc981617522565b92915050565b600081359050614cde81617539565b92915050565b600081519050614cf381617550565b92915050565b60008083601f840112614d0b57600080fd5b8235905067ffffffffffffffff811115614d2457600080fd5b602083019150836001820283011115614d3c57600080fd5b9250929050565b600082601f830112614d5457600080fd5b8135614d64848260208601614b8b565b91505092915050565b600082601f830112614d7e57600080fd5b8151614d8e848260208601614bc9565b91505092915050565b600081359050614da681617567565b92915050565b600081519050614dbb81617567565b92915050565b60006102008284031215614dd457600080fd5b614ddf610200616a8c565b90506000614def84828501614ca5565b6000830152506020614e0384828501614c07565b6020830152506040614e1784828501614c07565b6040830152506060614e2b8482850161510d565b606083015250608082013567ffffffffffffffff811115614e4b57600080fd5b614e5784828501614d43565b60808301525060a0614e6b84828501614d97565b60a08301525060c0614e7f8482850161510d565b60c08301525060e0614e938482850161510d565b60e083015250610100614ea88482850161510d565b61010083015250610120614ebe84828501614c07565b61012083015250610140614ed484828501614c31565b61014083015250610160614eea84828501614ca5565b61016083015250610180614f0084828501614c31565b610180830152506101a0614f168482850161510d565b6101a0830152506101c0614f2c8482850161510d565b6101c0830152506101e082013567ffffffffffffffff811115614f4e57600080fd5b614f5a84828501614d43565b6101e08301525092915050565b60006102008284031215614f7a57600080fd5b614f85610200616a8c565b90506000614f9584828501614cba565b6000830152506020614fa984828501614c1c565b6020830152506040614fbd84828501614c1c565b6040830152506060614fd184828501615122565b606083015250608082015167ffffffffffffffff811115614ff157600080fd5b614ffd84828501614d6d565b60808301525060a061501184828501614dac565b60a08301525060c061502584828501615122565b60c08301525060e061503984828501615122565b60e08301525061010061504e84828501615122565b6101008301525061012061506484828501614c1c565b6101208301525061014061507a84828501614c46565b6101408301525061016061509084828501614cba565b610160830152506101806150a684828501614c46565b610180830152506101a06150bc84828501615122565b6101a0830152506101c06150d284828501615122565b6101c0830152506101e082015167ffffffffffffffff8111156150f457600080fd5b61510084828501614d6d565b6101e08301525092915050565b60008135905061511c81617577565b92915050565b60008151905061513181617577565b92915050565b60006020828403121561514957600080fd5b600061515784828501614c07565b91505092915050565b6000806040838503121561517357600080fd5b600061518185828601614c07565b925050602061519285828601614c07565b9150509250929050565b6000806000606084860312156151b157600080fd5b60006151bf86828701614c07565b93505060206151d086828701614c07565b92505060406151e186828701614c07565b9150509250925092565b60008060006060848603121561520057600080fd5b600061520e86828701614c07565b935050602061521f86828701614c07565b92505060406152308682870161510d565b9150509250925092565b6000806040838503121561524d57600080fd5b600061525b85828601614c07565b925050602061526c85828601614ccf565b9150509250929050565b6000806040838503121561528957600080fd5b600061529785828601614c07565b925050602083013567ffffffffffffffff8111156152b457600080fd5b6152c085828601614d43565b9150509250929050565b600080604083850312156152dd57600080fd5b60006152eb85828601614c07565b92505060206152fc8582860161510d565b9150509250929050565b60008060008060006080868803121561531e57600080fd5b600061532c88828901614c07565b955050602061533d8882890161510d565b945050604086013567ffffffffffffffff81111561535a57600080fd5b61536688828901614cf9565b9350935050606061537988828901614d97565b9150509295509295909350565b60008060008060008060008060008060006101408c8e0312156153a857600080fd5b60006153b68e828f01614c07565b9b505060206153c78e828f0161510d565b9a505060408c013567ffffffffffffffff8111156153e457600080fd5b6153f08e828f01614cf9565b995099505060606154038e828f01614d97565b97505060806154148e828f0161510d565b96505060a06154258e828f0161510d565b95505060c06154368e828f0161510d565b94505060e06154478e828f01614c07565b9350506101006154598e828f01614c31565b9250506101208c013567ffffffffffffffff81111561547757600080fd5b6154838e828f01614d43565b9150509295989b509295989b9093969950565b60008060008060008060008060008060006101408c8e0312156154b857600080fd5b60006154c68e828f01614c07565b9b505060206154d78e828f0161510d565b9a505060408c013567ffffffffffffffff8111156154f457600080fd5b6155008e828f01614cf9565b995099505060606155138e828f01614d97565b97505060806155248e828f0161510d565b96505060a06155358e828f0161510d565b95505060c06155468e828f0161510d565b94505060e06155578e828f01614c07565b9350506101006155698e828f01614c07565b92505061012061557b8e828f0161510d565b9150509295989b509295989b9093969950565b600080600080608085870312156155a457600080fd5b60006155b287828801614c07565b94505060206155c38782880161510d565b935050604085013567ffffffffffffffff8111156155e057600080fd5b6155ec87828801614d43565b92505060606155fd87828801614d97565b91505092959194509250565b6000806000806000806000806000806101008b8d03121561562957600080fd5b60008b013567ffffffffffffffff81111561564357600080fd5b61564f8d828e01614c5b565b9a509a505060206156628d828e0161510d565b98505060406156738d828e01614c07565b97505060608b013567ffffffffffffffff81111561569057600080fd5b61569c8d828e01614cf9565b965096505060806156af8d828e01614c07565b94505060a06156c08d828e01614c07565b93505060c06156d18d828e0161510d565b92505060e06156e28d828e01614c31565b9150509295989b9194979a5092959850565b60006020828403121561570657600080fd5b600061571484828501614cba565b91505092915050565b60006020828403121561572f57600080fd5b600061573d84828501614ccf565b91505092915050565b60008060006060848603121561575b57600080fd5b600061576986828701614ccf565b935050602084013567ffffffffffffffff81111561578657600080fd5b61579286828701614d43565b925050604084013567ffffffffffffffff8111156157af57600080fd5b6157bb86828701614d43565b9150509250925092565b600080600080608085870312156157db57600080fd5b60006157e987828801614ccf565b945050602085013567ffffffffffffffff81111561580657600080fd5b61581287828801614d43565b935050604085013567ffffffffffffffff81111561582f57600080fd5b61583b87828801614d43565b925050606061584c8782880161510d565b91505092959194509250565b60006020828403121561586a57600080fd5b600061587884828501614ce4565b91505092915050565b60006020828403121561589357600080fd5b600082013567ffffffffffffffff8111156158ad57600080fd5b6158b984828501614d43565b91505092915050565b6000602082840312156158d457600080fd5b600082013567ffffffffffffffff8111156158ee57600080fd5b6158fa84828501614dc1565b91505092915050565b60006020828403121561591557600080fd5b600082015167ffffffffffffffff81111561592f57600080fd5b61593b84828501614f67565b91505092915050565b60006020828403121561595657600080fd5b60006159648482850161510d565b91505092915050565b6000806040838503121561598057600080fd5b600061598e8582860161510d565b925050602061599f8582860161510d565b9150509250929050565b60006159b583836159d0565b60208301905092915050565b6159ca81616cf2565b82525050565b6159d981616ce0565b82525050565b6159e881616ce0565b82525050565b60006159fa8385616b37565b9350615a0582616ae2565b8060005b85811015615a3e57615a1b8284616b80565b615a2588826159a9565b9750615a3083616b1d565b925050600181019050615a09565b5085925050509392505050565b6000615a5682616afc565b615a608185616b37565b9350615a6b83616aec565b8060005b83811015615a9c578151615a8388826159a9565b9750615a8e83616b2a565b925050600181019050615a6f565b5085935050505092915050565b615ab281616d04565b82525050565b615ac9615ac482616d10565b616ed8565b82525050565b615ad881616d3c565b82525050565b615aef615aea82616d3c565b616ee2565b82525050565b615afe81616d46565b82525050565b6000615b108385616b48565b9350615b1d838584616df2565b615b2683616fb2565b840190509392505050565b6000615b3d8385616b59565b9350615b4a838584616df2565b82840190509392505050565b6000615b6182616b07565b615b6b8185616b48565b9350615b7b818560208601616e01565b615b8481616fb2565b840191505092915050565b6000615b9a82616b07565b615ba48185616b59565b9350615bb4818560208601616e01565b80840191505092915050565b615bc981616dbc565b82525050565b615bd881616de0565b82525050565b6000615be982616b12565b615bf38185616b64565b9350615c03818560208601616e01565b615c0c81616fb2565b840191505092915050565b6000615c24600583616b64565b9150615c2f82616fc3565b602082019050919050565b6000615c47600583616b64565b9150615c5282616fec565b602082019050919050565b6000615c6a601c83616b75565b9150615c7582617015565b601c82019050919050565b6000615c8d600583616b64565b9150615c988261703e565b602082019050919050565b6000615cb0600583616b64565b9150615cbb82617067565b602082019050919050565b6000615cd3600583616b64565b9150615cde82617090565b602082019050919050565b6000615cf6602683616b64565b9150615d01826170b9565b604082019050919050565b6000615d19600583616b64565b9150615d2482617108565b602082019050919050565b6000615d3c600583616b64565b9150615d4782617131565b602082019050919050565b6000615d5f600583616b64565b9150615d6a8261715a565b602082019050919050565b6000615d82600583616b64565b9150615d8d82617183565b602082019050919050565b6000615da5600583616b64565b9150615db0826171ac565b602082019050919050565b6000615dc8600583616b64565b9150615dd3826171d5565b602082019050919050565b6000615deb600583616b64565b9150615df6826171fe565b602082019050919050565b6000615e0e600583616b64565b9150615e1982617227565b602082019050919050565b6000615e31600583616b64565b9150615e3c82617250565b602082019050919050565b6000615e54600583616b64565b9150615e5f82617279565b602082019050919050565b6000615e77600583616b64565b9150615e82826172a2565b602082019050919050565b6000615e9a600583616b64565b9150615ea5826172cb565b602082019050919050565b6000615ebd600583616b64565b9150615ec8826172f4565b602082019050919050565b6000615ee0600583616b64565b9150615eeb8261731d565b602082019050919050565b6000615f03600583616b64565b9150615f0e82617346565b602082019050919050565b6000615f26600583616b64565b9150615f318261736f565b602082019050919050565b6000615f49601583616b64565b9150615f5482617398565b602082019050919050565b6000615f6c600583616b64565b9150615f77826173c1565b602082019050919050565b6000615f8f600583616b64565b9150615f9a826173ea565b602082019050919050565b6000615fb2600f83616b64565b9150615fbd82617413565b602082019050919050565b6000615fd5600583616b64565b9150615fe08261743c565b602082019050919050565b6000615ff8600583616b64565b915061600382617465565b602082019050919050565b600061601b600583616b64565b91506160268261748e565b602082019050919050565b600061603e600583616b64565b9150616049826174b7565b602082019050919050565b61605d81616da5565b82525050565b61607461606f82616da5565b616eec565b82525050565b61608381616daf565b82525050565b60006160958287615ab8565b6001820191506160a58286615ab8565b6001820191506160b58285615ade565b6020820191506160c58284615ade565b60208201915081905095945050505050565b60006160e4828486615b31565b91508190509392505050565b60006160fc8285615b8f565b91506161088284615b8f565b91508190509392505050565b600061611f82615c5d565b915061612b8284615ade565b60208201915081905092915050565b60006161468284616063565b60208201915081905092915050565b600060208201905061616a60008301846159df565b92915050565b600060408201905061618560008301856159df565b6161926020830184616054565b9392505050565b6000610160820190506161af600083018f6159df565b6161bc602083018e616054565b81810360408301526161cf818c8e615b04565b90506161de606083018b615bcf565b6161eb608083018a616054565b6161f860a0830189616054565b61620560c0830188616054565b61621260e08301876159df565b6162206101008301866159c1565b8181036101208301526162338185615b56565b90506162436101408301846159df565b9d9c50505050505050505050505050565b600060808201905061626960008301876159df565b6162766020830186616054565b81810360408301526162888185615b56565b90506162976060830184615bcf565b95945050505050565b600060808201905081810360008301526162bb8187896159ee565b90506162ca6020830186616054565b6162d760408301856159df565b6162e460608301846159df565b9695505050505050565b600060208201905081810360008301526163088184615a4b565b905092915050565b6000604082019050818103600083015261632a8185615a4b565b905061633960208301846159df565b9392505050565b60006020820190506163556000830184615aa9565b92915050565b60006040820190506163706000830185615aa9565b81810360208301526163828184615b56565b90509392505050565b60006020820190506163a06000830184615acf565b92915050565b6000610160820190506163bc600083018e615acf565b6163c9602083018d6159df565b6163d6604083018c616054565b6163e3606083018b615acf565b6163f0608083018a615bcf565b6163fd60a0830189616054565b61640a60c0830188616054565b61641760e0830187616054565b6164256101008301866159df565b6164336101208301856159df565b616441610140830184616054565b9c9b505050505050505050505050565b60006040820190506164666000830185615acf565b6164736020830184615aa9565b9392505050565b600061012082019050616490600083018c615acf565b61649d602083018b615aa9565b6164aa604083018a6159df565b6164b760608301896159df565b6164c46080830188616054565b6164d160a0830187615acf565b6164de60c0830186615bcf565b6164eb60e0830185616054565b6164f9610100830184616054565b9a9950505050505050505050565b600060408201905061651c6000830185615acf565b6165296020830184616054565b9392505050565b60006060820190506165456000830186615acf565b6165526020830185616054565b61655f6040830184615bc0565b949350505050565b600060808201905061657c6000830187615acf565b616589602083018661607a565b6165966040830185615acf565b6165a36060830184615acf565b95945050505050565b60006020820190506165c16000830184615af5565b92915050565b600060208201905081810360008301526165e18184615b56565b905092915050565b600060408201905081810360008301526166038185615b56565b905081810360208301526166178184615b56565b90509392505050565b6000602082019050818103600083015261663a8184615bde565b905092915050565b6000602082019050818103600083015261665b81615c17565b9050919050565b6000602082019050818103600083015261667b81615c3a565b9050919050565b6000602082019050818103600083015261669b81615c80565b9050919050565b600060208201905081810360008301526166bb81615ca3565b9050919050565b600060208201905081810360008301526166db81615cc6565b9050919050565b600060208201905081810360008301526166fb81615ce9565b9050919050565b6000602082019050818103600083015261671b81615d0c565b9050919050565b6000602082019050818103600083015261673b81615d2f565b9050919050565b6000602082019050818103600083015261675b81615d52565b9050919050565b6000602082019050818103600083015261677b81615d75565b9050919050565b6000602082019050818103600083015261679b81615d98565b9050919050565b600060208201905081810360008301526167bb81615dbb565b9050919050565b600060208201905081810360008301526167db81615dde565b9050919050565b600060208201905081810360008301526167fb81615e01565b9050919050565b6000602082019050818103600083015261681b81615e24565b9050919050565b6000602082019050818103600083015261683b81615e47565b9050919050565b6000602082019050818103600083015261685b81615e6a565b9050919050565b6000602082019050818103600083015261687b81615e8d565b9050919050565b6000602082019050818103600083015261689b81615eb0565b9050919050565b600060208201905081810360008301526168bb81615ed3565b9050919050565b600060208201905081810360008301526168db81615ef6565b9050919050565b600060208201905081810360008301526168fb81615f19565b9050919050565b6000602082019050818103600083015261691b81615f3c565b9050919050565b6000602082019050818103600083015261693b81615f5f565b9050919050565b6000602082019050818103600083015261695b81615f82565b9050919050565b6000602082019050818103600083015261697b81615fa5565b9050919050565b6000602082019050818103600083015261699b81615fc8565b9050919050565b600060208201905081810360008301526169bb81615feb565b9050919050565b600060208201905081810360008301526169db8161600e565b9050919050565b600060208201905081810360008301526169fb81616031565b9050919050565b6000602082019050616a176000830184616054565b92915050565b600060e082019050616a32600083018a616054565b616a3f60208301896159df565b616a4c60408301886159c1565b616a596060830187615aa9565b616a6660808301866159c1565b616a7360a0830185616054565b616a8060c0830184616054565b98975050505050505050565b6000616a96616aa7565b9050616aa28282616e5e565b919050565b6000604051905090565b600067ffffffffffffffff821115616acc57616acb616f83565b5b616ad582616fb2565b9050602081019050919050565b6000819050919050565b6000819050602082019050919050565b600081519050919050565b600081519050919050565b600081519050919050565b6000602082019050919050565b6000602082019050919050565b600082825260208201905092915050565b600082825260208201905092915050565b600081905092915050565b600082825260208201905092915050565b600081905092915050565b6000616b8f6020840184614c07565b905092915050565b6000616ba282616da5565b9150616bad83616da5565b9250827fffffffffffffffffffffffffffffffffffffffffffffffffffffffffffffffff03821115616be257616be1616ef6565b5b828201905092915050565b6000616bf882616da5565b9150616c0383616da5565b925082616c1357616c12616f25565b5b828204905092915050565b6000616c2982616da5565b9150616c3483616da5565b9250817fffffffffffffffffffffffffffffffffffffffffffffffffffffffffffffffff0483118215151615616c6d57616c6c616ef6565b5b828202905092915050565b6000616c8382616da5565b9150616c8e83616da5565b925082821015616ca157616ca0616ef6565b5b828203905092915050565b6000616cb782616daf565b9150616cc283616daf565b925082821015616cd557616cd4616ef6565b5b828203905092915050565b6000616ceb82616d85565b9050919050565b6000616cfd82616d85565b9050919050565b60008115159050919050565b60007fff0000000000000000000000000000000000000000000000000000000000000082169050919050565b6000819050919050565b60007fffffffff0000000000000000000000000000000000000000000000000000000082169050919050565b6000819050616d80826174e0565b919050565b600073ffffffffffffffffffffffffffffffffffffffff82169050919050565b6000819050919050565b600060ff82169050919050565b6000616dc782616dce565b9050919050565b6000616dd982616d85565b9050919050565b6000616deb82616d72565b9050919050565b82818337600083830152505050565b60005b83811015616e1f578082015181840152602081019050616e04565b83811115616e2e576000848401525b50505050565b6000616e3f82616da5565b91506000821415616e5357616e52616ef6565b5b600182039050919050565b616e6782616fb2565b810181811067ffffffffffffffff82111715616e8657616e85616f83565b5b80604052505050565b6000616e9a82616da5565b91507fffffffffffffffffffffffffffffffffffffffffffffffffffffffffffffffff821415616ecd57616ecc616ef6565b5b600182019050919050565b6000819050919050565b6000819050919050565b6000819050919050565b7f4e487b7100000000000000000000000000000000000000000000000000000000600052601160045260246000fd5b7f4e487b7100000000000000000000000000000000000000000000000000000000600052601260045260246000fd5b7f4e487b7100000000000000000000000000000000000000000000000000000000600052602160045260246000fd5b7f4e487b7100000000000000000000000000000000000000000000000000000000600052604160045260246000fd5b6000601f19601f8301169050919050565b7f4753303233000000000000000000000000000000000000000000000000000000600082015250565b7f4753303236000000000000000000000000000000000000000000000000000000600082015250565b7f19457468657265756d205369676e6564204d6573736167653a0a333200000000600082015250565b7f4753303234000000000000000000000000000000000000000000000000000000600082015250565b7f4753303330000000000000000000000000000000000000000000000000000000600082015250565b7f4753323031000000000000000000000000000000000000000000000000000000600082015250565b7f636865636b206f776e657220616e64206d73672073656e64657220646f6e277460008201527f206d617463680000000000000000000000000000000000000000000000000000602082015250565b7f4753303232000000000000000000000000000000000000000000000000000000600082015250565b7f4753323030000000000000000000000000000000000000000000000000000000600082015250565b7f4753323033000000000000000000000000000000000000000000000000000000600082015250565b7f4753303030000000000000000000000000000000000000000000000000000000600082015250565b7f4753303131000000000000000000000000000000000000000000000000000000600082015250565b7f4753313033000000000000000000000000000000000000000000000000000000600082015250565b7f4753303132000000000000000000000000000000000000000000000000000000600082015250565b7f4753313030000000000000000000000000000000000000000000000000000000600082015250565b7f4753303031000000000000000000000000000000000000000000000000000000600082015250565b7f4753303133000000000000000000000000000000000000000000000000000000600082015250565b7f4753303130000000000000000000000000000000000000000000000000000000600082015250565b7f4753323032000000000000000000000000000000000000000000000000000000600082015250565b7f4753313034000000000000000000000000000000000000000000000000000000600082015250565b7f4753303331000000000000000000000000000000000000000000000000000000600082015250565b7f4753303235000000000000000000000000000000000000000000000000000000600082015250565b7f4753323034000000000000000000000000000000000000000000000000000000600082015250565b7f7472616e73666572206574686572206661696c65640000000000000000000000600082015250565b7f4753313032000000000000000000000000000000000000000000000000000000600082015250565b7f4753333030000000000000000000000000000000000000000000000000000000600082015250565b7f7573656420636865636b4e6f6e63650000000000000000000000000000000000600082015250565b7f4753303231000000000000000000000000000000000000000000000000000000600082015250565b7f4753313031000000000000000000000000000000000000000000000000000000600082015250565b7f4753303230000000000000000000000000000000000000000000000000000000600082015250565b7f4753323035000000000000000000000000000000000000000000000000000000600082015250565b600281106174f1576174f0616f54565b5b50565b6174fd81616ce0565b811461750857600080fd5b50565b61751481616cf2565b811461751f57600080fd5b50565b61752b81616d04565b811461753657600080fd5b50565b61754281616d3c565b811461754d57600080fd5b50565b61755981616d46565b811461756457600080fd5b50565b6002811061757457600080fd5b50565b61758081616da5565b811461758b57600080fd5b5056fea26469706673582212207bb6a85688d19562f00239464a5cc8481f5df424b560ca780a1d3f7782686d8664736f6c63430008010033",
  "linkReferences": {},
  "deployedLinkReferences": {}
}