{
  "_format": "hh-sol-artifact-1",
  "contractName": "MultiSigWallet",
  "sourceName": "contracts/MultiSigWallet.sol",
  "abi": [
    {
      "anonymous": false,
      "inputs": [
        {
          "indexed": false,
          "internalType": "address",
          "name": "owner",
          "type": "address"
        }
      ],
      "name": "AddedOwner",
      "type": "event"
    },
    {
      "anonymous": false,
      "inputs": [
        {
          "indexed": true,
          "internalType": "bytes32",
          "name": "approvedHash",
          "type": "bytes32"
        },
        {
          "indexed": true,
          "internalType": "address",
          "name": "owner",
          "type": "address"
        }
      ],
      "name": "ApproveHash",
      "type": "event"
    },
    {
      "anonymous": false,
      "inputs": [
        {
          "indexed": false,
          "internalType": "address",
          "name": "handler",
          "type": "address"
        }
      ],
      "name": "ChangedFallbackHandler",
      "type": "event"
    },
    {
      "anonymous": false,
      "inputs": [
        {
          "indexed": false,
          "internalType": "address",
          "name": "guard",
          "type": "address"
        }
      ],
      "name": "ChangedGuard",
      "type": "event"
    },
    {
      "anonymous": false,
      "inputs": [
        {
          "indexed": false,
          "internalType": "uint256",
          "name": "threshold",
          "type": "uint256"
        }
      ],
      "name": "ChangedThreshold",
      "type": "event"
    },
    {
      "anonymous": false,
      "inputs": [
        {
          "indexed": false,
          "internalType": "address",
          "name": "module",
          "type": "address"
        }
      ],
      "name": "DisabledModule",
      "type": "event"
    },
    {
      "anonymous": false,
      "inputs": [
        {
          "indexed": false,
          "internalType": "address",
          "name": "module",
          "type": "address"
        }
      ],
      "name": "EnabledModule",
      "type": "event"
    },
    {
      "anonymous": false,
      "inputs": [
        {
          "indexed": false,
          "internalType": "address",
          "name": "checkOwner",
          "type": "address"
        },
        {
          "indexed": true,
          "internalType": "address",
          "name": "to",
          "type": "address"
        },
        {
          "indexed": false,
          "internalType": "uint256",
          "name": "value",
          "type": "uint256"
        },
        {
          "indexed": false,
          "internalType": "bytes",
          "name": "data",
          "type": "bytes"
        },
        {
          "indexed": false,
          "internalType": "enum Enum.Operation",
          "name": "operation",
          "type": "uint8"
        }
      ],
      "name": "ExecuteCheckFailure",
      "type": "event"
    },
    {
      "anonymous": false,
      "inputs": [
        {
          "indexed": false,
          "internalType": "address",
          "name": "checkOwner",
          "type": "address"
        },
        {
          "indexed": true,
          "internalType": "address",
          "name": "to",
          "type": "address"
        },
        {
          "indexed": false,
          "internalType": "uint256",
          "name": "value",
          "type": "uint256"
        },
        {
          "indexed": false,
          "internalType": "bytes",
          "name": "data",
          "type": "bytes"
        },
        {
          "indexed": false,
          "internalType": "enum Enum.Operation",
          "name": "operation",
          "type": "uint8"
        }
      ],
      "name": "ExecuteCheckSuccess",
      "type": "event"
    },
    {
      "anonymous": false,
      "inputs": [
        {
          "indexed": false,
          "internalType": "bytes32",
          "name": "txHash",
          "type": "bytes32"
        },
        {
          "indexed": false,
          "internalType": "uint256",
          "name": "payment",
          "type": "uint256"
        }
      ],
      "name": "ExecutionFailure",
      "type": "event"
    },
    {
      "anonymous": false,
      "inputs": [
        {
          "indexed": true,
          "internalType": "address",
          "name": "module",
          "type": "address"
        }
      ],
      "name": "ExecutionFromModuleFailure",
      "type": "event"
    },
    {
      "anonymous": false,
      "inputs": [
        {
          "indexed": true,
          "internalType": "address",
          "name": "module",
          "type": "address"
        }
      ],
      "name": "ExecutionFromModuleSuccess",
      "type": "event"
    },
    {
      "anonymous": false,
      "inputs": [
        {
          "indexed": false,
          "internalType": "bytes32",
          "name": "txHash",
          "type": "bytes32"
        },
        {
          "indexed": false,
          "internalType": "uint256",
          "name": "payment",
          "type": "uint256"
        }
      ],
      "name": "ExecutionSuccess",
      "type": "event"
    },
    {
      "anonymous": false,
      "inputs": [
        {
          "indexed": false,
          "internalType": "address",
          "name": "owner",
          "type": "address"
        }
      ],
      "name": "RemovedOwner",
      "type": "event"
    },
    {
      "anonymous": false,
      "inputs": [
        {
          "indexed": true,
          "internalType": "address",
          "name": "sender",
          "type": "address"
        },
        {
          "indexed": false,
          "internalType": "uint256",
          "name": "value",
          "type": "uint256"
        }
      ],
      "name": "SafeReceived",
      "type": "event"
    },
    {
      "anonymous": false,
      "inputs": [
        {
          "indexed": true,
          "internalType": "address",
          "name": "initiator",
          "type": "address"
        },
        {
          "indexed": false,
          "internalType": "address[]",
          "name": "owners",
          "type": "address[]"
        },
        {
          "indexed": false,
          "internalType": "uint256",
          "name": "threshold",
          "type": "uint256"
        },
        {
          "indexed": false,
          "internalType": "address",
          "name": "initializer",
          "type": "address"
        },
        {
          "indexed": false,
          "internalType": "address",
          "name": "fallbackHandler",
          "type": "address"
        }
      ],
      "name": "SafeSetup",
      "type": "event"
    },
    {
      "anonymous": false,
      "inputs": [
        {
          "indexed": true,
          "internalType": "bytes32",
          "name": "msgHash",
          "type": "bytes32"
        }
      ],
      "name": "SignMsg",
      "type": "event"
    },
    {
      "stateMutability": "nonpayable",
      "type": "fallback"
    },
    {
      "inputs": [],
      "name": "VERSION",
      "outputs": [
        {
          "internalType": "string",
          "name": "",
          "type": "string"
        }
      ],
      "stateMutability": "view",
      "type": "function"
    },
    {
      "inputs": [
        {
          "internalType": "address",
          "name": "owner",
          "type": "address"
        },
        {
          "internalType": "uint256",
          "name": "_threshold",
          "type": "uint256"
        }
      ],
      "name": "addOwnerWithThreshold",
      "outputs": [],
      "stateMutability": "nonpayable",
      "type": "function"
    },
    {
      "inputs": [
        {
          "internalType": "bytes32",
          "name": "hashToApprove",
          "type": "bytes32"
        }
      ],
      "name": "approveHash",
      "outputs": [],
      "stateMutability": "nonpayable",
      "type": "function"
    },
    {
      "inputs": [
        {
          "internalType": "address",
          "name": "",
          "type": "address"
        },
        {
          "internalType": "bytes32",
          "name": "",
          "type": "bytes32"
        }
      ],
      "name": "approvedHashes",
      "outputs": [
        {
          "internalType": "uint256",
          "name": "",
          "type": "uint256"
        }
      ],
      "stateMutability": "view",
      "type": "function"
    },
    {
      "inputs": [
        {
          "internalType": "uint256",
          "name": "_threshold",
          "type": "uint256"
        }
      ],
      "name": "changeThreshold",
      "outputs": [],
      "stateMutability": "nonpayable",
      "type": "function"
    },
    {
      "inputs": [
        {
          "internalType": "bytes32",
          "name": "dataHash",
          "type": "bytes32"
        },
        {
          "internalType": "bytes",
          "name": "data",
          "type": "bytes"
        },
        {
          "internalType": "bytes",
          "name": "signatures",
          "type": "bytes"
        },
        {
          "internalType": "uint256",
          "name": "requiredSignatures",
          "type": "uint256"
        }
      ],
      "name": "checkNSignatures",
      "outputs": [],
      "stateMutability": "view",
      "type": "function"
    },
    {
      "inputs": [
        {
          "internalType": "bytes32",
          "name": "dataHash",
          "type": "bytes32"
        },
        {
          "internalType": "bytes",
          "name": "data",
          "type": "bytes"
        },
        {
          "internalType": "bytes",
          "name": "signatures",
          "type": "bytes"
        }
      ],
      "name": "checkSignatures",
      "outputs": [],
      "stateMutability": "view",
      "type": "function"
    },
    {
      "inputs": [
        {
          "internalType": "address",
          "name": "prevModule",
          "type": "address"
        },
        {
          "internalType": "address",
          "name": "module",
          "type": "address"
        }
      ],
      "name": "disableModule",
      "outputs": [],
      "stateMutability": "nonpayable",
      "type": "function"
    },
    {
      "inputs": [],
      "name": "domainSeparator",
      "outputs": [
        {
          "internalType": "bytes32",
          "name": "",
          "type": "bytes32"
        }
      ],
      "stateMutability": "view",
      "type": "function"
    },
    {
      "inputs": [
        {
          "internalType": "address",
          "name": "module",
          "type": "address"
        }
      ],
      "name": "enableModule",
      "outputs": [],
      "stateMutability": "nonpayable",
      "type": "function"
    },
    {
      "inputs": [
        {
          "internalType": "address",
          "name": "checkOwner",
          "type": "address"
        },
        {
          "internalType": "address",
          "name": "to",
          "type": "address"
        },
        {
          "internalType": "uint256",
          "name": "value",
          "type": "uint256"
        },
        {
          "internalType": "bytes",
          "name": "data",
          "type": "bytes"
        },
        {
          "internalType": "enum Enum.Operation",
          "name": "operation",
          "type": "uint8"
        },
        {
          "internalType": "uint256",
          "name": "safeTxGas",
          "type": "uint256"
        },
        {
          "internalType": "uint256",
          "name": "baseGas",
          "type": "uint256"
        },
        {
          "internalType": "uint256",
          "name": "gasPrice",
          "type": "uint256"
        },
        {
          "internalType": "address",
          "name": "gasToken",
          "type": "address"
        },
        {
          "internalType": "address",
          "name": "refundReceiver",
          "type": "address"
        },
        {
          "internalType": "uint256",
          "name": "checkNonce",
          "type": "uint256"
        }
      ],
      "name": "encodeCheckExecutionData",
      "outputs": [
        {
          "internalType": "bytes",
          "name": "",
          "type": "bytes"
        }
      ],
      "stateMutability": "view",
      "type": "function"
    },
    {
      "inputs": [
        {
          "internalType": "address",
          "name": "to",
          "type": "address"
        },
        {
          "internalType": "uint256",
          "name": "value",
          "type": "uint256"
        },
        {
          "internalType": "bytes",
          "name": "data",
          "type": "bytes"
        },
        {
          "internalType": "enum Enum.Operation",
          "name": "operation",
          "type": "uint8"
        },
        {
          "internalType": "uint256",
          "name": "safeTxGas",
          "type": "uint256"
        },
        {
          "internalType": "uint256",
          "name": "baseGas",
          "type": "uint256"
        },
        {
          "internalType": "uint256",
          "name": "gasPrice",
          "type": "uint256"
        },
        {
          "internalType": "address",
          "name": "gasToken",
          "type": "address"
        },
        {
          "internalType": "address",
          "name": "refundReceiver",
          "type": "address"
        },
        {
          "internalType": "uint256",
          "name": "_nonce",
          "type": "uint256"
        }
      ],
      "name": "encodeTransactionData",
      "outputs": [
        {
          "internalType": "bytes",
          "name": "",
          "type": "bytes"
        }
      ],
      "stateMutability": "view",
      "type": "function"
    },
    {
      "inputs": [
        {
          "internalType": "address",
          "name": "to",
          "type": "address"
        },
        {
          "internalType": "uint256",
          "name": "value",
          "type": "uint256"
        },
        {
          "internalType": "bytes",
          "name": "data",
          "type": "bytes"
        },
        {
          "internalType": "enum Enum.Operation",
          "name": "operation",
          "type": "uint8"
        },
        {
          "internalType": "uint256",
          "name": "safeTxGas",
          "type": "uint256"
        },
        {
          "internalType": "uint256",
          "name": "baseGas",
          "type": "uint256"
        },
        {
          "internalType": "uint256",
          "name": "gasPrice",
          "type": "uint256"
        },
        {
          "internalType": "address",
          "name": "gasToken",
          "type": "address"
        },
        {
          "internalType": "address payable",
          "name": "refundReceiver",
          "type": "address"
        },
        {
          "internalType": "bytes",
          "name": "signatures",
          "type": "bytes"
        }
      ],
      "name": "execTransaction",
      "outputs": [
        {
          "internalType": "bool",
          "name": "success",
          "type": "bool"
        }
      ],
      "stateMutability": "payable",
      "type": "function"
    },
    {
      "inputs": [
        {
          "internalType": "address",
          "name": "to",
          "type": "address"
        },
        {
          "internalType": "uint256",
          "name": "value",
          "type": "uint256"
        },
        {
          "internalType": "bytes",
          "name": "data",
          "type": "bytes"
        },
        {
          "internalType": "enum Enum.Operation",
          "name": "operation",
          "type": "uint8"
        }
      ],
      "name": "execTransactionFromModule",
      "outputs": [
        {
          "internalType": "bool",
          "name": "success",
          "type": "bool"
        }
      ],
      "stateMutability": "nonpayable",
      "type": "function"
    },
    {
      "inputs": [
        {
          "internalType": "address",
          "name": "to",
          "type": "address"
        },
        {
          "internalType": "uint256",
          "name": "value",
          "type": "uint256"
        },
        {
          "internalType": "bytes",
          "name": "data",
          "type": "bytes"
        },
        {
          "internalType": "enum Enum.Operation",
          "name": "operation",
          "type": "uint8"
        }
      ],
      "name": "execTransactionFromModuleReturnData",
      "outputs": [
        {
          "internalType": "bool",
          "name": "success",
          "type": "bool"
        },
        {
          "internalType": "bytes",
          "name": "returnData",
          "type": "bytes"
        }
      ],
      "stateMutability": "nonpayable",
      "type": "function"
    },
    {
      "inputs": [
        {
          "internalType": "bytes",
          "name": "checkMsg",
          "type": "bytes"
        }
      ],
      "name": "executeCheck",
      "outputs": [
        {
          "internalType": "bool",
          "name": "success",
          "type": "bool"
        }
      ],
      "stateMutability": "nonpayable",
      "type": "function"
    },
    {
      "inputs": [],
      "name": "getChainId",
      "outputs": [
        {
          "internalType": "uint256",
          "name": "",
          "type": "uint256"
        }
      ],
      "stateMutability": "view",
      "type": "function"
    },
    {
      "inputs": [
        {
          "internalType": "address",
          "name": "start",
          "type": "address"
        },
        {
          "internalType": "uint256",
          "name": "pageSize",
          "type": "uint256"
        }
      ],
      "name": "getModulesPaginated",
      "outputs": [
        {
          "internalType": "address[]",
          "name": "array",
          "type": "address[]"
        },
        {
          "internalType": "address",
          "name": "next",
          "type": "address"
        }
      ],
      "stateMutability": "view",
      "type": "function"
    },
    {
      "inputs": [],
      "name": "getOwners",
      "outputs": [
        {
          "internalType": "address[]",
          "name": "",
          "type": "address[]"
        }
      ],
      "stateMutability": "view",
      "type": "function"
    },
    {
      "inputs": [
        {
          "internalType": "uint256",
          "name": "offset",
          "type": "uint256"
        },
        {
          "internalType": "uint256",
          "name": "length",
          "type": "uint256"
        }
      ],
      "name": "getStorageAt",
      "outputs": [
        {
          "internalType": "bytes",
          "name": "",
          "type": "bytes"
        }
      ],
      "stateMutability": "view",
      "type": "function"
    },
    {
      "inputs": [],
      "name": "getThreshold",
      "outputs": [
        {
          "internalType": "uint256",
          "name": "",
          "type": "uint256"
        }
      ],
      "stateMutability": "view",
      "type": "function"
    },
    {
      "inputs": [
        {
          "internalType": "address",
          "name": "to",
          "type": "address"
        },
        {
          "internalType": "uint256",
          "name": "value",
          "type": "uint256"
        },
        {
          "internalType": "bytes",
          "name": "data",
          "type": "bytes"
        },
        {
          "internalType": "enum Enum.Operation",
          "name": "operation",
          "type": "uint8"
        },
        {
          "internalType": "uint256",
          "name": "safeTxGas",
          "type": "uint256"
        },
        {
          "internalType": "uint256",
          "name": "baseGas",
          "type": "uint256"
        },
        {
          "internalType": "uint256",
          "name": "gasPrice",
          "type": "uint256"
        },
        {
          "internalType": "address",
          "name": "gasToken",
          "type": "address"
        },
        {
          "internalType": "address",
          "name": "refundReceiver",
          "type": "address"
        },
        {
          "internalType": "uint256",
          "name": "_nonce",
          "type": "uint256"
        }
      ],
      "name": "getTransactionHash",
      "outputs": [
        {
          "internalType": "bytes32",
          "name": "",
          "type": "bytes32"
        }
      ],
      "stateMutability": "view",
      "type": "function"
    },
    {
      "inputs": [
        {
          "internalType": "address",
          "name": "module",
          "type": "address"
        }
      ],
      "name": "isModuleEnabled",
      "outputs": [
        {
          "internalType": "bool",
          "name": "",
          "type": "bool"
        }
      ],
      "stateMutability": "view",
      "type": "function"
    },
    {
      "inputs": [
        {
          "internalType": "address",
          "name": "owner",
          "type": "address"
        }
      ],
      "name": "isOwner",
      "outputs": [
        {
          "internalType": "bool",
          "name": "",
          "type": "bool"
        }
      ],
      "stateMutability": "view",
      "type": "function"
    },
    {
      "inputs": [],
      "name": "nonce",
      "outputs": [
        {
          "internalType": "uint256",
          "name": "",
          "type": "uint256"
        }
      ],
      "stateMutability": "view",
      "type": "function"
    },
    {
      "inputs": [
        {
          "internalType": "address",
          "name": "prevOwner",
          "type": "address"
        },
        {
          "internalType": "address",
          "name": "owner",
          "type": "address"
        },
        {
          "internalType": "uint256",
          "name": "_threshold",
          "type": "uint256"
        }
      ],
      "name": "removeOwner",
      "outputs": [],
      "stateMutability": "nonpayable",
      "type": "function"
    },
    {
      "inputs": [
        {
          "internalType": "address",
          "name": "to",
          "type": "address"
        },
        {
          "internalType": "uint256",
          "name": "value",
          "type": "uint256"
        },
        {
          "internalType": "bytes",
          "name": "data",
          "type": "bytes"
        },
        {
          "internalType": "enum Enum.Operation",
          "name": "operation",
          "type": "uint8"
        }
      ],
      "name": "requiredTxGas",
      "outputs": [
        {
          "internalType": "uint256",
          "name": "",
          "type": "uint256"
        }
      ],
      "stateMutability": "nonpayable",
      "type": "function"
    },
    {
      "inputs": [
        {
          "internalType": "address",
          "name": "handler",
          "type": "address"
        }
      ],
      "name": "setFallbackHandler",
      "outputs": [],
      "stateMutability": "nonpayable",
      "type": "function"
    },
    {
      "inputs": [
        {
          "internalType": "address",
          "name": "guard",
          "type": "address"
        }
      ],
      "name": "setGuard",
      "outputs": [],
      "stateMutability": "nonpayable",
      "type": "function"
    },
    {
      "inputs": [
        {
          "internalType": "address[]",
          "name": "_owners",
          "type": "address[]"
        },
        {
          "internalType": "uint256",
          "name": "_threshold",
          "type": "uint256"
        },
        {
          "internalType": "address",
          "name": "to",
          "type": "address"
        },
        {
          "internalType": "bytes",
          "name": "data",
          "type": "bytes"
        },
        {
          "internalType": "address",
          "name": "fallbackHandler",
          "type": "address"
        },
        {
          "internalType": "address",
          "name": "paymentToken",
          "type": "address"
        },
        {
          "internalType": "uint256",
          "name": "payment",
          "type": "uint256"
        },
        {
          "internalType": "address payable",
          "name": "paymentReceiver",
          "type": "address"
        }
      ],
      "name": "setup",
      "outputs": [],
      "stateMutability": "nonpayable",
      "type": "function"
    },
    {
      "inputs": [
        {
          "internalType": "bytes32",
          "name": "",
          "type": "bytes32"
        }
      ],
      "name": "signedMessages",
      "outputs": [
        {
          "internalType": "uint256",
          "name": "",
          "type": "uint256"
        }
      ],
      "stateMutability": "view",
      "type": "function"
    },
    {
      "inputs": [
        {
          "internalType": "address",
          "name": "targetContract",
          "type": "address"
        },
        {
          "internalType": "bytes",
          "name": "calldataPayload",
          "type": "bytes"
        }
      ],
      "name": "simulateAndRevert",
      "outputs": [],
      "stateMutability": "nonpayable",
      "type": "function"
    },
    {
      "inputs": [
        {
          "internalType": "address",
          "name": "prevOwner",
          "type": "address"
        },
        {
          "internalType": "address",
          "name": "oldOwner",
          "type": "address"
        },
        {
          "internalType": "address",
          "name": "newOwner",
          "type": "address"
        }
      ],
      "name": "swapOwner",
      "outputs": [],
      "stateMutability": "nonpayable",
      "type": "function"
    },
    {
      "stateMutability": "payable",
      "type": "receive"
    }
  ],
  "bytecode": "0x608060405234801561001057600080fd5b506175a180620000216000396000f3fe6080604052600436106101f25760003560e01c8063affed0e01161010d578063e19a9dd9116100a0578063e86637db1161006f578063e86637db14610831578063f08a03231461086e578063f698da2514610897578063f8dc5dd9146108c2578063ffa1ad74146108eb57610247565b8063e19a9dd914610777578063e318b52b146107a0578063e5b6a230146107c9578063e75235b81461080657610247565b8063cc2f8452116100dc578063cc2f8452146106aa578063d4d9bdcd146106e8578063d8d11f7814610711578063e009cfde1461074e57610247565b8063affed0e0146105f0578063b4faba091461061b578063b63e800d14610644578063c4ca3a9c1461066d57610247565b80635ae6bd37116101855780636a761202116101545780636a7612021461052f5780637d8329741461055f578063934f3a111461059c578063a0e67e2b146105c557610247565b80635ae6bd3714610463578063610b5925146104a057806367480d50146104c9578063694e80c31461050657610247565b80633408e470116101c15780633408e47014610380578063468721a7146103ab5780635229073f146103e85780635624b25b1461042657610247565b80630d582f13146102b457806312fb68e0146102dd5780632d9ad53d146103065780632f54bf6e1461034357610247565b36610247573373ffffffffffffffffffffffffffffffffffffffff167f3d0ce9bfc3ed7d6862dbb28b2dea94561fe714a1b4d019aa8af39730d1ad7c3d3460405161023d9190616a77565b60405180910390a2005b34801561025357600080fd5b5060007f6c9a6c4a39284e37ed1cf53d337577d14212a4870fb976a4366c693b939918d560001b905080548061028857600080f35b36600080373360601b365260008060143601600080855af13d6000803e806102af573d6000fd5b3d6000f35b3480156102c057600080fd5b506102db60048036038101906102d69190615332565b610916565b005b3480156102e957600080fd5b5061030460048036038101906102ff919061582d565b610c90565b005b34801561031257600080fd5b5061032d60048036038101906103289190615097565b611343565b60405161033a91906163a8565b60405180910390f35b34801561034f57600080fd5b5061036a60048036038101906103659190615097565b611415565b60405161037791906163a8565b60405180910390f35b34801561038c57600080fd5b506103956114e7565b6040516103a29190616a77565b60405180910390f35b3480156103b757600080fd5b506103d260048036038101906103cd91906155f6565b6114f4565b6040516103df91906163a8565b60405180910390f35b3480156103f457600080fd5b5061040f600480360381019061040a91906155f6565b6116a7565b60405161041d9291906163c3565b60405180910390f35b34801561043257600080fd5b5061044d60048036038101906104489190615994565b6116dd565b60405161045a919061665c565b60405180910390f35b34801561046f57600080fd5b5061048a60048036038101906104859190615785565b61179b565b6040516104979190616a77565b60405180910390f35b3480156104ac57600080fd5b506104c760048036038101906104c29190615097565b6117b3565b005b3480156104d557600080fd5b506104f060048036038101906104eb91906158e9565b611ac9565b6040516104fd91906163a8565b60405180910390f35b34801561051257600080fd5b5061052d6004803603810190610528919061596b565b611fc4565b005b610549600480360381019061054491906153ee565b612098565b60405161055691906163a8565b60405180910390f35b34801561056b57600080fd5b50610586600480360381019061058191906152a2565b612459565b6040516105939190616a77565b60405180910390f35b3480156105a857600080fd5b506105c360048036038101906105be91906157ae565b61247e565b005b3480156105d157600080fd5b506105da6124da565b6040516105e79190616356565b60405180910390f35b3480156105fc57600080fd5b506106056126de565b6040516106129190616a77565b60405180910390f35b34801561062757600080fd5b50610642600480360381019061063d91906152de565b6126e4565b005b34801561065057600080fd5b5061066b60048036038101906106669190615671565b612706565b005b34801561067957600080fd5b50610694600480360381019061068f919061536e565b612859565b6040516106a19190616a77565b60405180910390f35b3480156106b657600080fd5b506106d160048036038101906106cc9190615332565b612925565b6040516106df929190616378565b60405180910390f35b3480156106f457600080fd5b5061070f600480360381019061070a9190615785565b612b72565b005b34801561071d57600080fd5b50610738600480360381019061073391906154fe565b612cde565b60405161074591906163f3565b60405180910390f35b34801561075a57600080fd5b50610775600480360381019061077091906150c0565b612d0b565b005b34801561078357600080fd5b5061079e60048036038101906107999190615097565b613020565b005b3480156107ac57600080fd5b506107c760048036038101906107c291906150fc565b6131ab565b005b3480156107d557600080fd5b506107f060048036038101906107eb919061519a565b613725565b6040516107fd919061665c565b60405180910390f35b34801561081257600080fd5b5061081b6137d9565b6040516108289190616a77565b60405180910390f35b34801561083d57600080fd5b50610858600480360381019061085391906154fe565b6137e3565b604051610865919061665c565b60405180910390f35b34801561087a57600080fd5b5061089560048036038101906108909190615097565b6138a5565b005b3480156108a357600080fd5b506108ac6138f0565b6040516108b991906163f3565b60405180910390f35b3480156108ce57600080fd5b506108e960048036038101906108e4919061514b565b61394c565b005b3480156108f757600080fd5b50610900613cde565b60405161090d91906166b5565b60405180910390f35b61091e613d17565b600073ffffffffffffffffffffffffffffffffffffffff168273ffffffffffffffffffffffffffffffffffffffff16141580156109885750600173ffffffffffffffffffffffffffffffffffffffff168273ffffffffffffffffffffffffffffffffffffffff1614155b80156109c057503073ffffffffffffffffffffffffffffffffffffffff168273ffffffffffffffffffffffffffffffffffffffff1614155b6109ff576040517f08c379a00000000000000000000000000000000000000000000000000000000081526004016109f6906167f7565b60405180910390fd5b600073ffffffffffffffffffffffffffffffffffffffff16600260008473ffffffffffffffffffffffffffffffffffffffff1673ffffffffffffffffffffffffffffffffffffffff16815260200190815260200160002060009054906101000a900473ffffffffffffffffffffffffffffffffffffffff1673ffffffffffffffffffffffffffffffffffffffff1614610acd576040517f08c379a0000000000000000000000000000000000000000000000000000000008152600401610ac490616997565b60405180910390fd5b60026000600173ffffffffffffffffffffffffffffffffffffffff1673ffffffffffffffffffffffffffffffffffffffff16815260200190815260200160002060009054906101000a900473ffffffffffffffffffffffffffffffffffffffff16600260008473ffffffffffffffffffffffffffffffffffffffff1673ffffffffffffffffffffffffffffffffffffffff16815260200190815260200160002060006101000a81548173ffffffffffffffffffffffffffffffffffffffff021916908373ffffffffffffffffffffffffffffffffffffffff1602179055508160026000600173ffffffffffffffffffffffffffffffffffffffff1673ffffffffffffffffffffffffffffffffffffffff16815260200190815260200160002060006101000a81548173ffffffffffffffffffffffffffffffffffffffff021916908373ffffffffffffffffffffffffffffffffffffffff16021790555060036000815480929190610c3d90616e95565b91905055507f9465fa0c962cc76958e6373a993326400c1c94f8be2fe3a952adfa7f60b2ea2682604051610c719190616104565b60405180910390a18060045414610c8c57610c8b81611fc4565b5b5050565b610ca4604182613d8790919063ffffffff16565b82511015610ce7576040517f08c379a0000000000000000000000000000000000000000000000000000000008152600401610cde90616a37565b60405180910390fd5b6000808060008060005b8681101561133757610d038882613dcc565b809450819550829650505050610d1b8460ff16613dfb565b610d2483613e94565b610d2d82613e94565b60008460ff161415610f8b578260001c9450610d53604188613d8790919063ffffffff16565b8260001c1015610d98576040517f08c379a0000000000000000000000000000000000000000000000000000000008152600401610d8f906169f7565b60405180910390fd5b8751610db160208460001c613f2d90919063ffffffff16565b1115610df2576040517f08c379a0000000000000000000000000000000000000000000000000000000008152600401610de990616797565b60405180910390fd5b60006020838a01015190508851610e2882610e1a60208760001c613f2d90919063ffffffff16565b613f2d90919063ffffffff16565b1115610e69576040517f08c379a0000000000000000000000000000000000000000000000000000000008152600401610e60906166d7565b60405180910390fd5b60606020848b010190506320c13b0b60e01b7bffffffffffffffffffffffffffffffffffffffffffffffffffffffff19168773ffffffffffffffffffffffffffffffffffffffff166320c13b0b8d846040518363ffffffff1660e01b8152600401610ed592919061667e565b60206040518083038186803b158015610eed57600080fd5b505afa158015610f01573d6000803e3d6000fd5b505050506040513d601f19601f82011682018060405250810190610f2591906158c0565b7bffffffffffffffffffffffffffffffffffffffffffffffffffffffff191614610f84576040517f08c379a0000000000000000000000000000000000000000000000000000000008152600401610f7b90616717565b60405180910390fd5b50506111e2565b60018460ff16141561106c578260001c94508473ffffffffffffffffffffffffffffffffffffffff163373ffffffffffffffffffffffffffffffffffffffff16148061102857506000600860008773ffffffffffffffffffffffffffffffffffffffff1673ffffffffffffffffffffffffffffffffffffffff16815260200190815260200160002060008c81526020019081526020016000205414155b611067576040517f08c379a000000000000000000000000000000000000000000000000000000000815260040161105e90616977565b60405180910390fd5b6111e1565b601e8460ff1611156111005760018a60405160200161108b91906160c3565b604051602081830303815290604052805190602001206004866110ae9190616cb2565b8585604051600081526020016040526040516110cd94939291906165fc565b6020604051602081039080840390855afa1580156110ef573d6000803e3d6000fd5b5050506020604051035194506111e0565b60018a8585856040516000815260200160405260405161112394939291906165fc565b6020604051602081039080840390855afa158015611145573d6000803e3d6000fd5b50505060206040510351945061118f6040518060400160405280600881526020017f6461746148617368000000000000000000000000000000000000000000000000815250613f55565b6111988a613e94565b6111d66040518060400160405280600c81526020017f63757272656e744f776e65720000000000000000000000000000000000000000815250613f55565b6111df85613fee565b5b5b5b8573ffffffffffffffffffffffffffffffffffffffff168573ffffffffffffffffffffffffffffffffffffffff161180156112a95750600073ffffffffffffffffffffffffffffffffffffffff16600260008773ffffffffffffffffffffffffffffffffffffffff1673ffffffffffffffffffffffffffffffffffffffff16815260200190815260200160002060009054906101000a900473ffffffffffffffffffffffffffffffffffffffff1673ffffffffffffffffffffffffffffffffffffffff1614155b80156112e25750600173ffffffffffffffffffffffffffffffffffffffff168573ffffffffffffffffffffffffffffffffffffffff1614155b611321576040517f08c379a0000000000000000000000000000000000000000000000000000000008152600401611318906166f7565b60405180910390fd5b849550808061132f90616e95565b915050610cf1565b50505050505050505050565b60008173ffffffffffffffffffffffffffffffffffffffff16600173ffffffffffffffffffffffffffffffffffffffff161415801561140e5750600073ffffffffffffffffffffffffffffffffffffffff16600160008473ffffffffffffffffffffffffffffffffffffffff1673ffffffffffffffffffffffffffffffffffffffff16815260200190815260200160002060009054906101000a900473ffffffffffffffffffffffffffffffffffffffff1673ffffffffffffffffffffffffffffffffffffffff1614155b9050919050565b6000600173ffffffffffffffffffffffffffffffffffffffff168273ffffffffffffffffffffffffffffffffffffffff16141580156114e05750600073ffffffffffffffffffffffffffffffffffffffff16600260008473ffffffffffffffffffffffffffffffffffffffff1673ffffffffffffffffffffffffffffffffffffffff16815260200190815260200160002060009054906101000a900473ffffffffffffffffffffffffffffffffffffffff1673ffffffffffffffffffffffffffffffffffffffff1614155b9050919050565b6000804690508091505090565b6000600173ffffffffffffffffffffffffffffffffffffffff163373ffffffffffffffffffffffffffffffffffffffff16141580156115bf5750600073ffffffffffffffffffffffffffffffffffffffff16600160003373ffffffffffffffffffffffffffffffffffffffff1673ffffffffffffffffffffffffffffffffffffffff16815260200190815260200160002060009054906101000a900473ffffffffffffffffffffffffffffffffffffffff1673ffffffffffffffffffffffffffffffffffffffff1614155b6115fe576040517f08c379a00000000000000000000000000000000000000000000000000000000081526004016115f590616937565b60405180910390fd5b61160b858585855a614087565b9050801561165b573373ffffffffffffffffffffffffffffffffffffffff167f6895c13664aa4f67288b25d7a21d7aaa34916e355fb9b6fae0a139a9085becb860405160405180910390a261169f565b3373ffffffffffffffffffffffffffffffffffffffff167facd2c8702804128fdb0db2bb49f6d127dd0181c13fd45dbfe16de0930e2bd37560405160405180910390a25b949350505050565b600060606116b7868686866114f4565b915060405160203d0181016040523d81523d6000602083013e8091505094509492505050565b606060006020836116ee9190616c24565b67ffffffffffffffff81111561172d577f4e487b7100000000000000000000000000000000000000000000000000000000600052604160045260246000fd5b6040519080825280601f01601f19166020018201604052801561175f5781602001600182028036833780820191505090505b50905060005b838110156117905780850154806020830260208501015250808061178890616e95565b915050611765565b508091505092915050565b60076020528060005260406000206000915090505481565b6117bb613d17565b600073ffffffffffffffffffffffffffffffffffffffff168173ffffffffffffffffffffffffffffffffffffffff16141580156118255750600173ffffffffffffffffffffffffffffffffffffffff168173ffffffffffffffffffffffffffffffffffffffff1614155b611864576040517f08c379a000000000000000000000000000000000000000000000000000000000815260040161185b90616a17565b60405180910390fd5b600073ffffffffffffffffffffffffffffffffffffffff16600160008373ffffffffffffffffffffffffffffffffffffffff1673ffffffffffffffffffffffffffffffffffffffff16815260200190815260200160002060009054906101000a900473ffffffffffffffffffffffffffffffffffffffff1673ffffffffffffffffffffffffffffffffffffffff1614611932576040517f08c379a0000000000000000000000000000000000000000000000000000000008152600401611929906169b7565b60405180910390fd5b60016000600173ffffffffffffffffffffffffffffffffffffffff1673ffffffffffffffffffffffffffffffffffffffff16815260200190815260200160002060009054906101000a900473ffffffffffffffffffffffffffffffffffffffff16600160008373ffffffffffffffffffffffffffffffffffffffff1673ffffffffffffffffffffffffffffffffffffffff16815260200190815260200160002060006101000a81548173ffffffffffffffffffffffffffffffffffffffff021916908373ffffffffffffffffffffffffffffffffffffffff1602179055508060016000600173ffffffffffffffffffffffffffffffffffffffff1673ffffffffffffffffffffffffffffffffffffffff16815260200190815260200160002060006101000a81548173ffffffffffffffffffffffffffffffffffffffff021916908373ffffffffffffffffffffffffffffffffffffffff1602179055507fecdf3a3effea5783a3c4c2140e677577666428d44ed9d474a0b3a4c9943f844081604051611abe9190616104565b60405180910390a150565b6000806000611ad78461412d565b90506000151560096000836101400151815260200190815260200160002060009054906101000a900460ff16151514611b45576040517f08c379a0000000000000000000000000000000000000000000000000000000008152600401611b3c906167d7565b60405180910390fd5b6001151560096000600554815260200190815260200160002060009054906101000a90505050806020015173ffffffffffffffffffffffffffffffffffffffff163373ffffffffffffffffffffffffffffffffffffffff1614611bdd576040517f08c379a0000000000000000000000000000000000000000000000000000000008152600401611bd490616777565b60405180910390fd5b6000611c21826020015183600001518460400151856060015186608001518760a001518860c001518960e001518a61010001518b61012001518c6101400151613725565b90506001151560096000600554815260200190815260200160002060009054906101000a9050505080805190602001209250611c63838284610160015161247e565b506000611c6e614150565b9050600073ffffffffffffffffffffffffffffffffffffffff168173ffffffffffffffffffffffffffffffffffffffff1614611d4f578073ffffffffffffffffffffffffffffffffffffffff166375f0bb5283600001518460400151856060015186608001518760a001518860c001518960e001518a61010001518b61012001518c6101600151336040518c63ffffffff1660e01b8152600401611d1c9b9a9998979695949392919061624f565b600060405180830381600087803b158015611d3657600080fd5b505af1158015611d4a573d6000803e3d6000fd5b505050505b60005a9050611d95836000015184604001518560600151866080015160008860e0015114611d81578760a00151611d90565b6109c45a611d8f9190616c7e565b5b614087565b9450611daa5a8261418190919063ffffffff16565b90508480611dbd575060008360a0015114155b80611dcd575060008360e0015114155b611e0c576040517f08c379a0000000000000000000000000000000000000000000000000000000008152600401611e03906168d7565b60405180910390fd5b6000808460e001511115611e3c57611e39828560c001518660e001518761010001518861012001516141aa565b90505b8515611eaf57836000015173ffffffffffffffffffffffffffffffffffffffff167fb84985ee6912e169f5f446f739bfe323890314ccd37862ae1452cbba5fe18c128560200151866040015187606001518860800151604051611ea29493929190616203565b60405180910390a2611f18565b836000015173ffffffffffffffffffffffffffffffffffffffff167f071547af80e3d5a99bba7bbc9bfb5606512d75cfb1d4e2aee66face3f539100a8560200151866040015187606001518860800151604051611f0f9493929190616203565b60405180910390a25b5050600073ffffffffffffffffffffffffffffffffffffffff168173ffffffffffffffffffffffffffffffffffffffff1614611fbc578073ffffffffffffffffffffffffffffffffffffffff16639327136884866040518363ffffffff1660e01b8152600401611f89929190616573565b600060405180830381600087803b158015611fa357600080fd5b505af1158015611fb7573d6000803e3d6000fd5b505050505b505050919050565b611fcc613d17565b600354811115612011576040517f08c379a000000000000000000000000000000000000000000000000000000000815260040161200890616757565b60405180910390fd5b6001811015612055576040517f08c379a000000000000000000000000000000000000000000000000000000000815260040161204c90616917565b60405180910390fd5b806004819055507f610f7ff2b304ae8903c3de74c60c6ab1f7d6226b3f52c5161905bb5ad4039c9360045460405161208d9190616a77565b60405180910390a150565b60008060006120b28e8e8e8e8e8e8e8e8e8e6005546137e3565b9050600560008154809291906120c790616e95565b9190505550808051906020012091506120e182828661247e565b5060006120ec614150565b9050600073ffffffffffffffffffffffffffffffffffffffff168173ffffffffffffffffffffffffffffffffffffffff16146121a4578073ffffffffffffffffffffffffffffffffffffffff166375f0bb528f8f8f8f8f8f8f8f8f8f8f336040518d63ffffffff1660e01b81526004016121719c9b9a99989796959493929190616148565b600060405180830381600087803b15801561218b57600080fd5b505af115801561219f573d6000803e3d6000fd5b505050505b6101f46121df6109c48b6121b89190616b9d565b603f60408d6121c79190616c24565b6121d19190616bf3565b61434a90919063ffffffff16565b6121e99190616b9d565b5a101561222b576040517f08c379a0000000000000000000000000000000000000000000000000000000008152600401612222906168f7565b60405180910390fd5b60005a905061229d8f8f8f8f8080601f016020809104026020016040519081016040528093929190818152602001838380828437600081840152601f19601f820116905080830192505050505050508e60008d14612289578e612298565b6109c45a6122979190616c7e565b5b614087565b93506122b25a8261418190919063ffffffff16565b905083806122c1575060008a14155b806122cd575060008814155b61230c576040517f08c379a0000000000000000000000000000000000000000000000000000000008152600401612303906168d7565b60405180910390fd5b60008089111561232657612323828b8b8b8b614364565b90505b841561236a577f442e715f626346e8c54381002da614f62bee8d27386535b2521ec8540898556e848260405161235d92919061659c565b60405180910390a16123a4565b7f23428b18acfb3ea64b08dc0c1d296ea9c09702c09083ca5272e64d115b687d23848260405161239b92919061659c565b60405180910390a15b5050600073ffffffffffffffffffffffffffffffffffffffff168173ffffffffffffffffffffffffffffffffffffffff1614612448578073ffffffffffffffffffffffffffffffffffffffff16639327136883856040518363ffffffff1660e01b8152600401612415929190616573565b600060405180830381600087803b15801561242f57600080fd5b505af1158015612443573d6000803e3d6000fd5b505050505b50509b9a5050505050505050505050565b6008602052816000526040600020602052806000526040600020600091509150505481565b60006004549050600081116124c8576040517f08c379a00000000000000000000000000000000000000000000000000000000081526004016124bf906168b7565b60405180910390fd5b6124d484848484610c90565b50505050565b6060600060035467ffffffffffffffff811115612520577f4e487b7100000000000000000000000000000000000000000000000000000000600052604160045260246000fd5b60405190808252806020026020018201604052801561254e5781602001602082028036833780820191505090505b50905060008060026000600173ffffffffffffffffffffffffffffffffffffffff1673ffffffffffffffffffffffffffffffffffffffff16815260200190815260200160002060009054906101000a900473ffffffffffffffffffffffffffffffffffffffff1690505b600173ffffffffffffffffffffffffffffffffffffffff168173ffffffffffffffffffffffffffffffffffffffff16146126d55780838381518110612626577f4e487b7100000000000000000000000000000000000000000000000000000000600052603260045260246000fd5b602002602001019073ffffffffffffffffffffffffffffffffffffffff16908173ffffffffffffffffffffffffffffffffffffffff1681525050600260008273ffffffffffffffffffffffffffffffffffffffff1673ffffffffffffffffffffffffffffffffffffffff16815260200190815260200160002060009054906101000a900473ffffffffffffffffffffffffffffffffffffffff16905081806126cd90616e95565b9250506125b8565b82935050505090565b60055481565b600080825160208401855af4806000523d6020523d600060403e60403d016000fd5b6127518a8a80806020026020016040519081016040528093929190818152602001838360200280828437600081840152601f19601f8201169050808301925050505050505089614504565b600073ffffffffffffffffffffffffffffffffffffffff168473ffffffffffffffffffffffffffffffffffffffff161461278f5761278e84614938565b5b6127dd8787878080601f016020809104026020016040519081016040528093929190818152602001838380828437600081840152601f19601f82011690508083019250505050505050614967565b60008211156127f7576127f582600060018685614364565b505b3373ffffffffffffffffffffffffffffffffffffffff167f141df868a6331af528e38c83b7aa03edc19be66e37ae67f9285bf4f8e3c6a1a88b8b8b8b89604051612845959493929190616308565b60405180910390a250505050505050505050565b6000805a90506128b0878787878080601f016020809104026020016040519081016040528093929190818152602001838380828437600081840152601f19601f82011690508083019250505050505050865a614087565b6128b957600080fd5b60005a826128c79190616c7e565b9050806040516020016128da91906160e9565b6040516020818303038152906040526040517f08c379a000000000000000000000000000000000000000000000000000000000815260040161291c91906166b5565b60405180910390fd5b606060008267ffffffffffffffff811115612969577f4e487b7100000000000000000000000000000000000000000000000000000000600052604160045260246000fd5b6040519080825280602002602001820160405280156129975781602001602082028036833780820191505090505b509150600080600160008773ffffffffffffffffffffffffffffffffffffffff1673ffffffffffffffffffffffffffffffffffffffff16815260200190815260200160002060009054906101000a900473ffffffffffffffffffffffffffffffffffffffff1690505b600073ffffffffffffffffffffffffffffffffffffffff168173ffffffffffffffffffffffffffffffffffffffff1614158015612a6a5750600173ffffffffffffffffffffffffffffffffffffffff168173ffffffffffffffffffffffffffffffffffffffff1614155b8015612a7557508482105b15612b635780848381518110612ab4577f4e487b7100000000000000000000000000000000000000000000000000000000600052603260045260246000fd5b602002602001019073ffffffffffffffffffffffffffffffffffffffff16908173ffffffffffffffffffffffffffffffffffffffff1681525050600160008273ffffffffffffffffffffffffffffffffffffffff1673ffffffffffffffffffffffffffffffffffffffff16815260200190815260200160002060009054906101000a900473ffffffffffffffffffffffffffffffffffffffff1690508180612b5b90616e95565b925050612a00565b80925081845250509250929050565b600073ffffffffffffffffffffffffffffffffffffffff16600260003373ffffffffffffffffffffffffffffffffffffffff1673ffffffffffffffffffffffffffffffffffffffff16815260200190815260200160002060009054906101000a900473ffffffffffffffffffffffffffffffffffffffff1673ffffffffffffffffffffffffffffffffffffffff161415612c41576040517f08c379a0000000000000000000000000000000000000000000000000000000008152600401612c3890616737565b60405180910390fd5b6001600860003373ffffffffffffffffffffffffffffffffffffffff1673ffffffffffffffffffffffffffffffffffffffff1681526020019081526020016000206000838152602001908152602001600020819055503373ffffffffffffffffffffffffffffffffffffffff16817ff2a0eb156472d1440255b0d7c1e19cc07115d1051fe605b0dce69acfec884d9c60405160405180910390a350565b6000612cf38c8c8c8c8c8c8c8c8c8c8c6137e3565b8051906020012090509b9a5050505050505050505050565b612d13613d17565b600073ffffffffffffffffffffffffffffffffffffffff168173ffffffffffffffffffffffffffffffffffffffff1614158015612d7d5750600173ffffffffffffffffffffffffffffffffffffffff168173ffffffffffffffffffffffffffffffffffffffff1614155b612dbc576040517f08c379a0000000000000000000000000000000000000000000000000000000008152600401612db390616a17565b60405180910390fd5b8073ffffffffffffffffffffffffffffffffffffffff16600160008473ffffffffffffffffffffffffffffffffffffffff1673ffffffffffffffffffffffffffffffffffffffff16815260200190815260200160002060009054906101000a900473ffffffffffffffffffffffffffffffffffffffff1673ffffffffffffffffffffffffffffffffffffffff1614612e89576040517f08c379a0000000000000000000000000000000000000000000000000000000008152600401612e8090616857565b60405180910390fd5b600160008273ffffffffffffffffffffffffffffffffffffffff1673ffffffffffffffffffffffffffffffffffffffff16815260200190815260200160002060009054906101000a900473ffffffffffffffffffffffffffffffffffffffff16600160008473ffffffffffffffffffffffffffffffffffffffff1673ffffffffffffffffffffffffffffffffffffffff16815260200190815260200160002060006101000a81548173ffffffffffffffffffffffffffffffffffffffff021916908373ffffffffffffffffffffffffffffffffffffffff1602179055506000600160008373ffffffffffffffffffffffffffffffffffffffff1673ffffffffffffffffffffffffffffffffffffffff16815260200190815260200160002060006101000a81548173ffffffffffffffffffffffffffffffffffffffff021916908373ffffffffffffffffffffffffffffffffffffffff1602179055507faab4fa2b463f581b2b32cb3b7e3b704b9ce37cc209b5fb4d77e593ace4054276816040516130149190616104565b60405180910390a15050565b613028613d17565b600073ffffffffffffffffffffffffffffffffffffffff168173ffffffffffffffffffffffffffffffffffffffff1614613145578073ffffffffffffffffffffffffffffffffffffffff166301ffc9a77fe6d7a83a000000000000000000000000000000000000000000000000000000006040518263ffffffff1660e01b81526004016130b59190616641565b60206040518083038186803b1580156130cd57600080fd5b505afa1580156130e1573d6000803e3d6000fd5b505050506040513d601f19601f82011682018060405250810190613105919061575c565b613144576040517f08c379a000000000000000000000000000000000000000000000000000000000815260040161313b906169d7565b60405180910390fd5b5b60007f4a204f620c8c5ccdca3fd54d003badd85ba500436a431f0cbda4f558c93c34c860001b90508181557f1151116914515bc0891ff9047a6cb32cf902546f83066499bcf8ba33d2353fa28260405161319f9190616104565b60405180910390a15050565b6131b3613d17565b600073ffffffffffffffffffffffffffffffffffffffff168173ffffffffffffffffffffffffffffffffffffffff161415801561321d5750600173ffffffffffffffffffffffffffffffffffffffff168173ffffffffffffffffffffffffffffffffffffffff1614155b801561325557503073ffffffffffffffffffffffffffffffffffffffff168173ffffffffffffffffffffffffffffffffffffffff1614155b613294576040517f08c379a000000000000000000000000000000000000000000000000000000000815260040161328b906167f7565b60405180910390fd5b600073ffffffffffffffffffffffffffffffffffffffff16600260008373ffffffffffffffffffffffffffffffffffffffff1673ffffffffffffffffffffffffffffffffffffffff16815260200190815260200160002060009054906101000a900473ffffffffffffffffffffffffffffffffffffffff1673ffffffffffffffffffffffffffffffffffffffff1614613362576040517f08c379a000000000000000000000000000000000000000000000000000000000815260040161335990616997565b60405180910390fd5b600073ffffffffffffffffffffffffffffffffffffffff168273ffffffffffffffffffffffffffffffffffffffff16141580156133cc5750600173ffffffffffffffffffffffffffffffffffffffff168273ffffffffffffffffffffffffffffffffffffffff1614155b61340b576040517f08c379a0000000000000000000000000000000000000000000000000000000008152600401613402906167f7565b60405180910390fd5b8173ffffffffffffffffffffffffffffffffffffffff16600260008573ffffffffffffffffffffffffffffffffffffffff1673ffffffffffffffffffffffffffffffffffffffff16815260200190815260200160002060009054906101000a900473ffffffffffffffffffffffffffffffffffffffff1673ffffffffffffffffffffffffffffffffffffffff16146134d8576040517f08c379a00000000000000000000000000000000000000000000000000000000081526004016134cf90616a57565b60405180910390fd5b600260008373ffffffffffffffffffffffffffffffffffffffff1673ffffffffffffffffffffffffffffffffffffffff16815260200190815260200160002060009054906101000a900473ffffffffffffffffffffffffffffffffffffffff16600260008373ffffffffffffffffffffffffffffffffffffffff1673ffffffffffffffffffffffffffffffffffffffff16815260200190815260200160002060006101000a81548173ffffffffffffffffffffffffffffffffffffffff021916908373ffffffffffffffffffffffffffffffffffffffff16021790555080600260008573ffffffffffffffffffffffffffffffffffffffff1673ffffffffffffffffffffffffffffffffffffffff16815260200190815260200160002060006101000a81548173ffffffffffffffffffffffffffffffffffffffff021916908373ffffffffffffffffffffffffffffffffffffffff1602179055506000600260008473ffffffffffffffffffffffffffffffffffffffff1673ffffffffffffffffffffffffffffffffffffffff16815260200190815260200160002060006101000a81548173ffffffffffffffffffffffffffffffffffffffff021916908373ffffffffffffffffffffffffffffffffffffffff1602179055507ff8d49fc529812e9a7c5c50e69c20f0dccc0db8fa95c98bc58cc9a4f1c1299eaf826040516136e19190616104565b60405180910390a17f9465fa0c962cc76958e6373a993326400c1c94f8be2fe3a952adfa7f60b2ea26816040516137189190616104565b60405180910390a1505050565b606060007fe862762e9cc423ab9325aacefda6c3feadcb9e6aa390fbbd3667781066ee542960001b8d8d8d8d805190602001208d8d8d8d8d8d8d60405160200161377a9c9b9a9998979695949392919061640e565b604051602081830303815290604052805190602001209050601960f81b600160f81b6137a46138f0565b836040516020016137b8949392919061605c565b6040516020818303038152906040529150509b9a5050505050505050505050565b6000600454905090565b606060007fbb8310d486368db6bd6f849402fdd73ad53d316b5a4b2644ad6efe0f941286d860001b8d8d8d8d60405161381d9291906160aa565b60405180910390208c8c8c8c8c8c8c6040516020016138469b9a999897969594939291906164c8565b604051602081830303815290604052805190602001209050601960f81b600160f81b6138706138f0565b83604051602001613884949392919061605c565b6040516020818303038152906040529150509b9a5050505050505050505050565b6138ad613d17565b6138b681614938565b7f5ac6c46c93c8d0e53714ba3b53db3e7c046da994313d7ed0d192028bc7c228b0816040516138e59190616104565b60405180910390a150565b60007f47e79534a245952e8b16893a336b85a3d9ea9fa8c573f3d803afb92a7946921860001b61391e6114e7565b30604051602001613931939291906165c5565b60405160208183030381529060405280519060200120905090565b613954613d17565b8060016003546139649190616c7e565b10156139a5576040517f08c379a000000000000000000000000000000000000000000000000000000000815260040161399c90616757565b60405180910390fd5b600073ffffffffffffffffffffffffffffffffffffffff168273ffffffffffffffffffffffffffffffffffffffff1614158015613a0f5750600173ffffffffffffffffffffffffffffffffffffffff168273ffffffffffffffffffffffffffffffffffffffff1614155b613a4e576040517f08c379a0000000000000000000000000000000000000000000000000000000008152600401613a45906167f7565b60405180910390fd5b8173ffffffffffffffffffffffffffffffffffffffff16600260008573ffffffffffffffffffffffffffffffffffffffff1673ffffffffffffffffffffffffffffffffffffffff16815260200190815260200160002060009054906101000a900473ffffffffffffffffffffffffffffffffffffffff1673ffffffffffffffffffffffffffffffffffffffff1614613b1b576040517f08c379a0000000000000000000000000000000000000000000000000000000008152600401613b1290616a57565b60405180910390fd5b600260008373ffffffffffffffffffffffffffffffffffffffff1673ffffffffffffffffffffffffffffffffffffffff16815260200190815260200160002060009054906101000a900473ffffffffffffffffffffffffffffffffffffffff16600260008573ffffffffffffffffffffffffffffffffffffffff1673ffffffffffffffffffffffffffffffffffffffff16815260200190815260200160002060006101000a81548173ffffffffffffffffffffffffffffffffffffffff021916908373ffffffffffffffffffffffffffffffffffffffff1602179055506000600260008473ffffffffffffffffffffffffffffffffffffffff1673ffffffffffffffffffffffffffffffffffffffff16815260200190815260200160002060006101000a81548173ffffffffffffffffffffffffffffffffffffffff021916908373ffffffffffffffffffffffffffffffffffffffff16021790555060036000815480929190613c8a90616e3a565b91905055507ff8d49fc529812e9a7c5c50e69c20f0dccc0db8fa95c98bc58cc9a4f1c1299eaf82604051613cbe9190616104565b60405180910390a18060045414613cd957613cd881611fc4565b5b505050565b6040518060400160405280600581526020017f312e332e3000000000000000000000000000000000000000000000000000000081525081565b3073ffffffffffffffffffffffffffffffffffffffff163373ffffffffffffffffffffffffffffffffffffffff1614613d85576040517f08c379a0000000000000000000000000000000000000000000000000000000008152600401613d7c90616957565b60405180910390fd5b565b600080831415613d9a5760009050613dc6565b60008284613da89190616c24565b9050828482613db79190616bf3565b14613dc157600080fd5b809150505b92915050565b60008060008360410260208101860151925060408101860151915060ff60418201870151169350509250925092565b613e9181604051602401613e0f9190616a77565b6040516020818303038152906040527ff82c50f1000000000000000000000000000000000000000000000000000000007bffffffffffffffffffffffffffffffffffffffffffffffffffffffff19166020820180517bffffffffffffffffffffffffffffffffffffffffffffffffffffffff8381831617835250505050614b3c565b50565b613f2a81604051602401613ea891906163f3565b6040516020818303038152906040527f27b7cf85000000000000000000000000000000000000000000000000000000007bffffffffffffffffffffffffffffffffffffffffffffffffffffffff19166020820180517bffffffffffffffffffffffffffffffffffffffffffffffffffffffff8381831617835250505050614b3c565b50565b6000808284613f3c9190616b9d565b905083811015613f4b57600080fd5b8091505092915050565b613feb81604051602401613f6991906166b5565b6040516020818303038152906040527f41304fac000000000000000000000000000000000000000000000000000000007bffffffffffffffffffffffffffffffffffffffffffffffffffffffff19166020820180517bffffffffffffffffffffffffffffffffffffffffffffffffffffffff8381831617835250505050614b3c565b50565b614084816040516024016140029190616104565b6040516020818303038152906040527f2c2ecbc2000000000000000000000000000000000000000000000000000000007bffffffffffffffffffffffffffffffffffffffffffffffffffffffff19166020820180517bffffffffffffffffffffffffffffffffffffffffffffffffffffffff8381831617835250505050614b3c565b50565b60006001808111156140c2577f4e487b7100000000000000000000000000000000000000000000000000000000600052602160045260246000fd5b8360018111156140fb577f4e487b7100000000000000000000000000000000000000000000000000000000600052602160045260246000fd5b1415614114576000808551602087018986f49050614124565b600080855160208701888a87f190505b95945050505050565b614135614c0d565b81806020019051810190614149919061592a565b9050919050565b6000807f4a204f620c8c5ccdca3fd54d003badd85ba500436a431f0cbda4f558c93c34c860001b9050805491505090565b60008282111561419057600080fd5b6000828461419e9190616c7e565b90508091505092915050565b600080600073ffffffffffffffffffffffffffffffffffffffff168373ffffffffffffffffffffffffffffffffffffffff16146141e757826141e9565b325b9050600073ffffffffffffffffffffffffffffffffffffffff168473ffffffffffffffffffffffffffffffffffffffff1614156142ce576142533a8610614230573a614232565b855b614245888a613f2d90919063ffffffff16565b613d8790919063ffffffff16565b91508073ffffffffffffffffffffffffffffffffffffffff166108fc839081150290604051600060405180830381858888f193505050506142c9576040517f08c379a00000000000000000000000000000000000000000000000000000000081526004016142c090616837565b60405180910390fd5b614340565b6142f3856142e5888a613f2d90919063ffffffff16565b613d8790919063ffffffff16565b9150614300848284614b65565b61433f576040517f08c379a000000000000000000000000000000000000000000000000000000000815260040161433690616877565b60405180910390fd5b5b5095945050505050565b60008183101561435a578161435c565b825b905092915050565b600080600073ffffffffffffffffffffffffffffffffffffffff168373ffffffffffffffffffffffffffffffffffffffff16146143a157826143a3565b325b9050600073ffffffffffffffffffffffffffffffffffffffff168473ffffffffffffffffffffffffffffffffffffffff1614156144885761440d3a86106143ea573a6143ec565b855b6143ff888a613f2d90919063ffffffff16565b613d8790919063ffffffff16565b91508073ffffffffffffffffffffffffffffffffffffffff166108fc839081150290604051600060405180830381858888f19350505050614483576040517f08c379a000000000000000000000000000000000000000000000000000000000815260040161447a90616837565b60405180910390fd5b6144fa565b6144ad8561449f888a613f2d90919063ffffffff16565b613d8790919063ffffffff16565b91506144ba848284614b65565b6144f9576040517f08c379a00000000000000000000000000000000000000000000000000000000081526004016144f090616877565b60405180910390fd5b5b5095945050505050565b600060045414614549576040517f08c379a0000000000000000000000000000000000000000000000000000000008152600401614540906167b7565b60405180910390fd5b815181111561458d576040517f08c379a000000000000000000000000000000000000000000000000000000000815260040161458490616757565b60405180910390fd5b60018110156145d1576040517f08c379a00000000000000000000000000000000000000000000000000000000081526004016145c890616917565b60405180910390fd5b60006001905060005b83518110156148a457600084828151811061461e577f4e487b7100000000000000000000000000000000000000000000000000000000600052603260045260246000fd5b60200260200101519050600073ffffffffffffffffffffffffffffffffffffffff168173ffffffffffffffffffffffffffffffffffffffff16141580156146925750600173ffffffffffffffffffffffffffffffffffffffff168173ffffffffffffffffffffffffffffffffffffffff1614155b80156146ca57503073ffffffffffffffffffffffffffffffffffffffff168173ffffffffffffffffffffffffffffffffffffffff1614155b801561470257508073ffffffffffffffffffffffffffffffffffffffff168373ffffffffffffffffffffffffffffffffffffffff1614155b614741576040517f08c379a0000000000000000000000000000000000000000000000000000000008152600401614738906167f7565b60405180910390fd5b600073ffffffffffffffffffffffffffffffffffffffff16600260008373ffffffffffffffffffffffffffffffffffffffff1673ffffffffffffffffffffffffffffffffffffffff16815260200190815260200160002060009054906101000a900473ffffffffffffffffffffffffffffffffffffffff1673ffffffffffffffffffffffffffffffffffffffff161461480f576040517f08c379a000000000000000000000000000000000000000000000000000000000815260040161480690616997565b60405180910390fd5b80600260008573ffffffffffffffffffffffffffffffffffffffff1673ffffffffffffffffffffffffffffffffffffffff16815260200190815260200160002060006101000a81548173ffffffffffffffffffffffffffffffffffffffff021916908373ffffffffffffffffffffffffffffffffffffffff16021790555080925050808061489c90616e95565b9150506145da565b506001600260008373ffffffffffffffffffffffffffffffffffffffff1673ffffffffffffffffffffffffffffffffffffffff16815260200190815260200160002060006101000a81548173ffffffffffffffffffffffffffffffffffffffff021916908373ffffffffffffffffffffffffffffffffffffffff160217905550825160038190555081600481905550505050565b60007f6c9a6c4a39284e37ed1cf53d337577d14212a4870fb976a4366c693b939918d560001b90508181555050565b600073ffffffffffffffffffffffffffffffffffffffff1660016000600173ffffffffffffffffffffffffffffffffffffffff1673ffffffffffffffffffffffffffffffffffffffff16815260200190815260200160002060009054906101000a900473ffffffffffffffffffffffffffffffffffffffff1673ffffffffffffffffffffffffffffffffffffffff1614614a36576040517f08c379a0000000000000000000000000000000000000000000000000000000008152600401614a2d90616897565b60405180910390fd5b6001806000600173ffffffffffffffffffffffffffffffffffffffff1673ffffffffffffffffffffffffffffffffffffffff16815260200190815260200160002060006101000a81548173ffffffffffffffffffffffffffffffffffffffff021916908373ffffffffffffffffffffffffffffffffffffffff160217905550600073ffffffffffffffffffffffffffffffffffffffff168273ffffffffffffffffffffffffffffffffffffffff1614614b3857614af88260008360015a614087565b614b37576040517f08c379a0000000000000000000000000000000000000000000000000000000008152600401614b2e90616817565b60405180910390fd5b5b5050565b60008151905060006a636f6e736f6c652e6c6f679050602083016000808483855afa5050505050565b60008063a9059cbb8484604051602401614b8092919061611f565b6040516020818303038152906040529060e01b6020820180517bffffffffffffffffffffffffffffffffffffffffffffffffffffffff83818316178352505050509050602060008251602084016000896127105a03f13d60008114614bf05760208114614bf85760009350614c03565b819350614c03565b600051158215171593505b5050509392505050565b604051806101800160405280600073ffffffffffffffffffffffffffffffffffffffff168152602001600073ffffffffffffffffffffffffffffffffffffffff168152602001600081526020016060815260200160006001811115614c9b577f4e487b7100000000000000000000000000000000000000000000000000000000600052602160045260246000fd5b8152602001600081526020016000815260200160008152602001600073ffffffffffffffffffffffffffffffffffffffff168152602001600073ffffffffffffffffffffffffffffffffffffffff16815260200160008152602001606081525090565b6000614d11614d0c84616ab7565b616a92565b905082815260208101848484011115614d2957600080fd5b614d34848285616df8565b509392505050565b6000614d4f614d4a84616ab7565b616a92565b905082815260208101848484011115614d6757600080fd5b614d72848285616e07565b509392505050565b600081359050614d89816174d1565b92915050565b600081519050614d9e816174d1565b92915050565b600081359050614db3816174e8565b92915050565b600081519050614dc8816174e8565b92915050565b60008083601f840112614de057600080fd5b8235905067ffffffffffffffff811115614df957600080fd5b602083019150836020820283011115614e1157600080fd5b9250929050565b600081519050614e27816174ff565b92915050565b600081359050614e3c81617516565b92915050565b600081519050614e518161752d565b92915050565b60008083601f840112614e6957600080fd5b8235905067ffffffffffffffff811115614e8257600080fd5b602083019150836001820283011115614e9a57600080fd5b9250929050565b600082601f830112614eb257600080fd5b8135614ec2848260208601614cfe565b91505092915050565b600082601f830112614edc57600080fd5b8151614eec848260208601614d3c565b91505092915050565b600081359050614f0481617544565b92915050565b600081519050614f1981617544565b92915050565b60006101808284031215614f3257600080fd5b614f3d610180616a92565b90506000614f4d84828501614d8f565b6000830152506020614f6184828501614d8f565b6020830152506040614f7584828501615082565b604083015250606082015167ffffffffffffffff811115614f9557600080fd5b614fa184828501614ecb565b6060830152506080614fb584828501614f0a565b60808301525060a0614fc984828501615082565b60a08301525060c0614fdd84828501615082565b60c08301525060e0614ff184828501615082565b60e08301525061010061500684828501614d8f565b6101008301525061012061501c84828501614db9565b6101208301525061014061503284828501615082565b6101408301525061016082015167ffffffffffffffff81111561505457600080fd5b61506084828501614ecb565b6101608301525092915050565b60008135905061507c81617554565b92915050565b60008151905061509181617554565b92915050565b6000602082840312156150a957600080fd5b60006150b784828501614d7a565b91505092915050565b600080604083850312156150d357600080fd5b60006150e185828601614d7a565b92505060206150f285828601614d7a565b9150509250929050565b60008060006060848603121561511157600080fd5b600061511f86828701614d7a565b935050602061513086828701614d7a565b925050604061514186828701614d7a565b9150509250925092565b60008060006060848603121561516057600080fd5b600061516e86828701614d7a565b935050602061517f86828701614d7a565b92505060406151908682870161506d565b9150509250925092565b60008060008060008060008060008060006101608c8e0312156151bc57600080fd5b60006151ca8e828f01614d7a565b9b505060206151db8e828f01614d7a565b9a505060406151ec8e828f0161506d565b99505060608c013567ffffffffffffffff81111561520957600080fd5b6152158e828f01614ea1565b98505060806152268e828f01614ef5565b97505060a06152378e828f0161506d565b96505060c06152488e828f0161506d565b95505060e06152598e828f0161506d565b94505061010061526b8e828f01614d7a565b93505061012061527d8e828f01614d7a565b92505061014061528f8e828f0161506d565b9150509295989b509295989b9093969950565b600080604083850312156152b557600080fd5b60006152c385828601614d7a565b92505060206152d485828601614e2d565b9150509250929050565b600080604083850312156152f157600080fd5b60006152ff85828601614d7a565b925050602083013567ffffffffffffffff81111561531c57600080fd5b61532885828601614ea1565b9150509250929050565b6000806040838503121561534557600080fd5b600061535385828601614d7a565b92505060206153648582860161506d565b9150509250929050565b60008060008060006080868803121561538657600080fd5b600061539488828901614d7a565b95505060206153a58882890161506d565b945050604086013567ffffffffffffffff8111156153c257600080fd5b6153ce88828901614e57565b935093505060606153e188828901614ef5565b9150509295509295909350565b60008060008060008060008060008060006101408c8e03121561541057600080fd5b600061541e8e828f01614d7a565b9b5050602061542f8e828f0161506d565b9a505060408c013567ffffffffffffffff81111561544c57600080fd5b6154588e828f01614e57565b9950995050606061546b8e828f01614ef5565b975050608061547c8e828f0161506d565b96505060a061548d8e828f0161506d565b95505060c061549e8e828f0161506d565b94505060e06154af8e828f01614d7a565b9350506101006154c18e828f01614da4565b9250506101208c013567ffffffffffffffff8111156154df57600080fd5b6154eb8e828f01614ea1565b9150509295989b509295989b9093969950565b60008060008060008060008060008060006101408c8e03121561552057600080fd5b600061552e8e828f01614d7a565b9b5050602061553f8e828f0161506d565b9a505060408c013567ffffffffffffffff81111561555c57600080fd5b6155688e828f01614e57565b9950995050606061557b8e828f01614ef5565b975050608061558c8e828f0161506d565b96505060a061559d8e828f0161506d565b95505060c06155ae8e828f0161506d565b94505060e06155bf8e828f01614d7a565b9350506101006155d18e828f01614d7a565b9250506101206155e38e828f0161506d565b9150509295989b509295989b9093969950565b6000806000806080858703121561560c57600080fd5b600061561a87828801614d7a565b945050602061562b8782880161506d565b935050604085013567ffffffffffffffff81111561564857600080fd5b61565487828801614ea1565b925050606061566587828801614ef5565b91505092959194509250565b6000806000806000806000806000806101008b8d03121561569157600080fd5b60008b013567ffffffffffffffff8111156156ab57600080fd5b6156b78d828e01614dce565b9a509a505060206156ca8d828e0161506d565b98505060406156db8d828e01614d7a565b97505060608b013567ffffffffffffffff8111156156f857600080fd5b6157048d828e01614e57565b965096505060806157178d828e01614d7a565b94505060a06157288d828e01614d7a565b93505060c06157398d828e0161506d565b92505060e061574a8d828e01614da4565b9150509295989b9194979a5092959850565b60006020828403121561576e57600080fd5b600061577c84828501614e18565b91505092915050565b60006020828403121561579757600080fd5b60006157a584828501614e2d565b91505092915050565b6000806000606084860312156157c357600080fd5b60006157d186828701614e2d565b935050602084013567ffffffffffffffff8111156157ee57600080fd5b6157fa86828701614ea1565b925050604084013567ffffffffffffffff81111561581757600080fd5b61582386828701614ea1565b9150509250925092565b6000806000806080858703121561584357600080fd5b600061585187828801614e2d565b945050602085013567ffffffffffffffff81111561586e57600080fd5b61587a87828801614ea1565b935050604085013567ffffffffffffffff81111561589757600080fd5b6158a387828801614ea1565b92505060606158b48782880161506d565b91505092959194509250565b6000602082840312156158d257600080fd5b60006158e084828501614e42565b91505092915050565b6000602082840312156158fb57600080fd5b600082013567ffffffffffffffff81111561591557600080fd5b61592184828501614ea1565b91505092915050565b60006020828403121561593c57600080fd5b600082015167ffffffffffffffff81111561595657600080fd5b61596284828501614f1f565b91505092915050565b60006020828403121561597d57600080fd5b600061598b8482850161506d565b91505092915050565b600080604083850312156159a757600080fd5b60006159b58582860161506d565b92505060206159c68582860161506d565b9150509250929050565b60006159dc83836159f7565b60208301905092915050565b6159f181616cf8565b82525050565b615a0081616ce6565b82525050565b615a0f81616ce6565b82525050565b6000615a218385616b3d565b9350615a2c82616ae8565b8060005b85811015615a6557615a428284616b86565b615a4c88826159d0565b9750615a5783616b23565b925050600181019050615a30565b5085925050509392505050565b6000615a7d82616b02565b615a878185616b3d565b9350615a9283616af2565b8060005b83811015615ac3578151615aaa88826159d0565b9750615ab583616b30565b925050600181019050615a96565b5085935050505092915050565b615ad981616d0a565b82525050565b615af0615aeb82616d16565b616ede565b82525050565b615aff81616d42565b82525050565b615b16615b1182616d42565b616ee8565b82525050565b615b2581616d4c565b82525050565b6000615b378385616b4e565b9350615b44838584616df8565b615b4d83616fb8565b840190509392505050565b6000615b648385616b5f565b9350615b71838584616df8565b82840190509392505050565b6000615b8882616b0d565b615b928185616b4e565b9350615ba2818560208601616e07565b615bab81616fb8565b840191505092915050565b615bbf81616dc2565b82525050565b615bce81616de6565b82525050565b6000615bdf82616b18565b615be98185616b6a565b9350615bf9818560208601616e07565b615c0281616fb8565b840191505092915050565b6000615c1a600583616b6a565b9150615c2582616fc9565b602082019050919050565b6000615c3d600583616b6a565b9150615c4882616ff2565b602082019050919050565b6000615c60601c83616b7b565b9150615c6b8261701b565b601c82019050919050565b6000615c83600583616b6a565b9150615c8e82617044565b602082019050919050565b6000615ca6600583616b6a565b9150615cb18261706d565b602082019050919050565b6000615cc9600583616b6a565b9150615cd482617096565b602082019050919050565b6000615cec602683616b6a565b9150615cf7826170bf565b604082019050919050565b6000615d0f600583616b6a565b9150615d1a8261710e565b602082019050919050565b6000615d32600583616b6a565b9150615d3d82617137565b602082019050919050565b6000615d55600a83616b6a565b9150615d6082617160565b602082019050919050565b6000615d78600583616b6a565b9150615d8382617189565b602082019050919050565b6000615d9b600583616b6a565b9150615da6826171b2565b602082019050919050565b6000615dbe600583616b6a565b9150615dc9826171db565b602082019050919050565b6000615de1600583616b6a565b9150615dec82617204565b602082019050919050565b6000615e04600583616b6a565b9150615e0f8261722d565b602082019050919050565b6000615e27600583616b6a565b9150615e3282617256565b602082019050919050565b6000615e4a600583616b6a565b9150615e558261727f565b602082019050919050565b6000615e6d600583616b6a565b9150615e78826172a8565b602082019050919050565b6000615e90600583616b6a565b9150615e9b826172d1565b602082019050919050565b6000615eb3600583616b6a565b9150615ebe826172fa565b602082019050919050565b6000615ed6600583616b6a565b9150615ee182617323565b602082019050919050565b6000615ef9600583616b6a565b9150615f048261734c565b602082019050919050565b6000615f1c600583616b6a565b9150615f2782617375565b602082019050919050565b6000615f3f600583616b6a565b9150615f4a8261739e565b602082019050919050565b6000615f62600583616b6a565b9150615f6d826173c7565b602082019050919050565b6000615f85600583616b6a565b9150615f90826173f0565b602082019050919050565b6000615fa8600583616b6a565b9150615fb382617419565b602082019050919050565b6000615fcb600583616b6a565b9150615fd682617442565b602082019050919050565b6000615fee600583616b6a565b9150615ff98261746b565b602082019050919050565b6000616011600583616b6a565b915061601c82617494565b602082019050919050565b61603081616dab565b82525050565b61604761604282616dab565b616ef2565b82525050565b61605681616db5565b82525050565b60006160688287615adf565b6001820191506160788286615adf565b6001820191506160888285615b05565b6020820191506160988284615b05565b60208201915081905095945050505050565b60006160b7828486615b58565b91508190509392505050565b60006160ce82615c53565b91506160da8284615b05565b60208201915081905092915050565b60006160f58284616036565b60208201915081905092915050565b60006020820190506161196000830184615a06565b92915050565b60006040820190506161346000830185615a06565b6161416020830184616027565b9392505050565b60006101608201905061615e600083018f615a06565b61616b602083018e616027565b818103604083015261617e818c8e615b2b565b905061618d606083018b615bc5565b61619a608083018a616027565b6161a760a0830189616027565b6161b460c0830188616027565b6161c160e0830187615a06565b6161cf6101008301866159e8565b8181036101208301526161e28185615b7d565b90506161f2610140830184615a06565b9d9c50505050505050505050505050565b60006080820190506162186000830187615a06565b6162256020830186616027565b81810360408301526162378185615b7d565b90506162466060830184615bc5565b95945050505050565b600061016082019050616265600083018e615a06565b616272602083018d616027565b8181036040830152616284818c615b7d565b9050616293606083018b615bc5565b6162a0608083018a616027565b6162ad60a0830189616027565b6162ba60c0830188616027565b6162c760e0830187615a06565b6162d56101008301866159e8565b8181036101208301526162e88185615b7d565b90506162f8610140830184615a06565b9c9b505050505050505050505050565b60006080820190508181036000830152616323818789615a15565b90506163326020830186616027565b61633f6040830185615a06565b61634c6060830184615a06565b9695505050505050565b600060208201905081810360008301526163708184615a72565b905092915050565b600060408201905081810360008301526163928185615a72565b90506163a16020830184615a06565b9392505050565b60006020820190506163bd6000830184615ad0565b92915050565b60006040820190506163d86000830185615ad0565b81810360208301526163ea8184615b7d565b90509392505050565b60006020820190506164086000830184615af6565b92915050565b600061018082019050616424600083018f615af6565b616431602083018e615a06565b61643e604083018d615a06565b61644b606083018c616027565b616458608083018b615af6565b61646560a083018a615bc5565b61647260c0830189616027565b61647f60e0830188616027565b61648d610100830187616027565b61649b610120830186615a06565b6164a9610140830185615a06565b6164b7610160830184616027565b9d9c50505050505050505050505050565b6000610160820190506164de600083018e615af6565b6164eb602083018d615a06565b6164f8604083018c616027565b616505606083018b615af6565b616512608083018a615bc5565b61651f60a0830189616027565b61652c60c0830188616027565b61653960e0830187616027565b616547610100830186615a06565b616555610120830185615a06565b616563610140830184616027565b9c9b505050505050505050505050565b60006040820190506165886000830185615af6565b6165956020830184615ad0565b9392505050565b60006040820190506165b16000830185615af6565b6165be6020830184616027565b9392505050565b60006060820190506165da6000830186615af6565b6165e76020830185616027565b6165f46040830184615bb6565b949350505050565b60006080820190506166116000830187615af6565b61661e602083018661604d565b61662b6040830185615af6565b6166386060830184615af6565b95945050505050565b60006020820190506166566000830184615b1c565b92915050565b600060208201905081810360008301526166768184615b7d565b905092915050565b600060408201905081810360008301526166988185615b7d565b905081810360208301526166ac8184615b7d565b90509392505050565b600060208201905081810360008301526166cf8184615bd4565b905092915050565b600060208201905081810360008301526166f081615c0d565b9050919050565b6000602082019050818103600083015261671081615c30565b9050919050565b6000602082019050818103600083015261673081615c76565b9050919050565b6000602082019050818103600083015261675081615c99565b9050919050565b6000602082019050818103600083015261677081615cbc565b9050919050565b6000602082019050818103600083015261679081615cdf565b9050919050565b600060208201905081810360008301526167b081615d02565b9050919050565b600060208201905081810360008301526167d081615d25565b9050919050565b600060208201905081810360008301526167f081615d48565b9050919050565b6000602082019050818103600083015261681081615d6b565b9050919050565b6000602082019050818103600083015261683081615d8e565b9050919050565b6000602082019050818103600083015261685081615db1565b9050919050565b6000602082019050818103600083015261687081615dd4565b9050919050565b6000602082019050818103600083015261689081615df7565b9050919050565b600060208201905081810360008301526168b081615e1a565b9050919050565b600060208201905081810360008301526168d081615e3d565b9050919050565b600060208201905081810360008301526168f081615e60565b9050919050565b6000602082019050818103600083015261691081615e83565b9050919050565b6000602082019050818103600083015261693081615ea6565b9050919050565b6000602082019050818103600083015261695081615ec9565b9050919050565b6000602082019050818103600083015261697081615eec565b9050919050565b6000602082019050818103600083015261699081615f0f565b9050919050565b600060208201905081810360008301526169b081615f32565b9050919050565b600060208201905081810360008301526169d081615f55565b9050919050565b600060208201905081810360008301526169f081615f78565b9050919050565b60006020820190508181036000830152616a1081615f9b565b9050919050565b60006020820190508181036000830152616a3081615fbe565b9050919050565b60006020820190508181036000830152616a5081615fe1565b9050919050565b60006020820190508181036000830152616a7081616004565b9050919050565b6000602082019050616a8c6000830184616027565b92915050565b6000616a9c616aad565b9050616aa88282616e64565b919050565b6000604051905090565b600067ffffffffffffffff821115616ad257616ad1616f89565b5b616adb82616fb8565b9050602081019050919050565b6000819050919050565b6000819050602082019050919050565b600081519050919050565b600081519050919050565b600081519050919050565b6000602082019050919050565b6000602082019050919050565b600082825260208201905092915050565b600082825260208201905092915050565b600081905092915050565b600082825260208201905092915050565b600081905092915050565b6000616b956020840184614d7a565b905092915050565b6000616ba882616dab565b9150616bb383616dab565b9250827fffffffffffffffffffffffffffffffffffffffffffffffffffffffffffffffff03821115616be857616be7616efc565b5b828201905092915050565b6000616bfe82616dab565b9150616c0983616dab565b925082616c1957616c18616f2b565b5b828204905092915050565b6000616c2f82616dab565b9150616c3a83616dab565b9250817fffffffffffffffffffffffffffffffffffffffffffffffffffffffffffffffff0483118215151615616c7357616c72616efc565b5b828202905092915050565b6000616c8982616dab565b9150616c9483616dab565b925082821015616ca757616ca6616efc565b5b828203905092915050565b6000616cbd82616db5565b9150616cc883616db5565b925082821015616cdb57616cda616efc565b5b828203905092915050565b6000616cf182616d8b565b9050919050565b6000616d0382616d8b565b9050919050565b60008115159050919050565b60007fff0000000000000000000000000000000000000000000000000000000000000082169050919050565b6000819050919050565b60007fffffffff0000000000000000000000000000000000000000000000000000000082169050919050565b6000819050616d86826174bd565b919050565b600073ffffffffffffffffffffffffffffffffffffffff82169050919050565b6000819050919050565b600060ff82169050919050565b6000616dcd82616dd4565b9050919050565b6000616ddf82616d8b565b9050919050565b6000616df182616d78565b9050919050565b82818337600083830152505050565b60005b83811015616e25578082015181840152602081019050616e0a565b83811115616e34576000848401525b50505050565b6000616e4582616dab565b91506000821415616e5957616e58616efc565b5b600182039050919050565b616e6d82616fb8565b810181811067ffffffffffffffff82111715616e8c57616e8b616f89565b5b80604052505050565b6000616ea082616dab565b91507fffffffffffffffffffffffffffffffffffffffffffffffffffffffffffffffff821415616ed357616ed2616efc565b5b600182019050919050565b6000819050919050565b6000819050919050565b6000819050919050565b7f4e487b7100000000000000000000000000000000000000000000000000000000600052601160045260246000fd5b7f4e487b7100000000000000000000000000000000000000000000000000000000600052601260045260246000fd5b7f4e487b7100000000000000000000000000000000000000000000000000000000600052602160045260246000fd5b7f4e487b7100000000000000000000000000000000000000000000000000000000600052604160045260246000fd5b6000601f19601f8301169050919050565b7f4753303233000000000000000000000000000000000000000000000000000000600082015250565b7f4753303236000000000000000000000000000000000000000000000000000000600082015250565b7f19457468657265756d205369676e6564204d6573736167653a0a333200000000600082015250565b7f4753303234000000000000000000000000000000000000000000000000000000600082015250565b7f4753303330000000000000000000000000000000000000000000000000000000600082015250565b7f4753323031000000000000000000000000000000000000000000000000000000600082015250565b7f636865636b206f776e657220616e64206d73672073656e64657220646f6e277460008201527f206d617463680000000000000000000000000000000000000000000000000000602082015250565b7f4753303232000000000000000000000000000000000000000000000000000000600082015250565b7f4753323030000000000000000000000000000000000000000000000000000000600082015250565b7f75736564206e6f6e636500000000000000000000000000000000000000000000600082015250565b7f4753323033000000000000000000000000000000000000000000000000000000600082015250565b7f4753303030000000000000000000000000000000000000000000000000000000600082015250565b7f4753303131000000000000000000000000000000000000000000000000000000600082015250565b7f4753313033000000000000000000000000000000000000000000000000000000600082015250565b7f4753303132000000000000000000000000000000000000000000000000000000600082015250565b7f4753313030000000000000000000000000000000000000000000000000000000600082015250565b7f4753303031000000000000000000000000000000000000000000000000000000600082015250565b7f4753303133000000000000000000000000000000000000000000000000000000600082015250565b7f4753303130000000000000000000000000000000000000000000000000000000600082015250565b7f4753323032000000000000000000000000000000000000000000000000000000600082015250565b7f4753313034000000000000000000000000000000000000000000000000000000600082015250565b7f4753303331000000000000000000000000000000000000000000000000000000600082015250565b7f4753303235000000000000000000000000000000000000000000000000000000600082015250565b7f4753323034000000000000000000000000000000000000000000000000000000600082015250565b7f4753313032000000000000000000000000000000000000000000000000000000600082015250565b7f4753333030000000000000000000000000000000000000000000000000000000600082015250565b7f4753303231000000000000000000000000000000000000000000000000000000600082015250565b7f4753313031000000000000000000000000000000000000000000000000000000600082015250565b7f4753303230000000000000000000000000000000000000000000000000000000600082015250565b7f4753323035000000000000000000000000000000000000000000000000000000600082015250565b600281106174ce576174cd616f5a565b5b50565b6174da81616ce6565b81146174e557600080fd5b50565b6174f181616cf8565b81146174fc57600080fd5b50565b61750881616d0a565b811461751357600080fd5b50565b61751f81616d42565b811461752a57600080fd5b50565b61753681616d4c565b811461754157600080fd5b50565b6002811061755157600080fd5b50565b61755d81616dab565b811461756857600080fd5b5056fea2646970667358221220eee43dad4b4efd8e5920ac87430c15021017dfd7478cdad63d0f96b3ccbfa74164736f6c63430008010033",
  "linkReferences": {},
  "deployedLinkReferences": {}
}