{
  "_format": "hh-sol-artifact-1",
  "contractName": "TestHandler",
  "sourceName": "contracts/test/TestHandler.sol",
  "abi": [
    {
      "inputs": [],
      "name": "dudududu",
      "outputs": [
        {
          "internalType": "address",
          "name": "sender",
          "type": "address"
        },
        {
          "internalType": "address",
          "name": "manager",
          "type": "address"
        }
      ],
      "stateMutability": "view",
      "type": "function"
    }
  ],
  "bytecode": "0x608060405234801561001057600080fd5b5061010e806100206000396000f3fe6080604052348015600f57600080fd5b506004361060285760003560e01c806354955e5914602d575b600080fd5b60336048565b604051603f9291906083565b60405180910390f35b6000806051605f565b6057606e565b915091509091565b6000601436033560601c905090565b600033905090565b607d8160a8565b82525050565b6000604082019050609660008301856076565b60a160208301846076565b9392505050565b600060b18260b8565b9050919050565b600073ffffffffffffffffffffffffffffffffffffffff8216905091905056fea26469706673582212200ad1c892de12a1331d1ad05b0fd73461f13fccabd8a4a685849a2ed106989d4564736f6c63430008010033",
  "linkReferences": {},
  "deployedLinkReferences": {}
}