{
  "_format": "hh-sol-artifact-1",
  "contractName": "CheckExecutor",
  "sourceName": "contracts/CheckExecutor.sol",
  "abi": [
    {
      "inputs": [
        {
          "internalType": "address",
          "name": "a",
          "type": "address"
        }
      ],
      "stateMutability": "nonpayable",
      "type": "constructor"
    },
    {
      "anonymous": false,
      "inputs": [
        {
          "indexed": false,
          "internalType": "address",
          "name": "checkOwner",
          "type": "address"
        },
        {
          "indexed": true,
          "internalType": "address",
          "name": "to",
          "type": "address"
        },
        {
          "indexed": false,
          "internalType": "uint256",
          "name": "value",
          "type": "uint256"
        },
        {
          "indexed": false,
          "internalType": "bytes",
          "name": "data",
          "type": "bytes"
        },
        {
          "indexed": false,
          "internalType": "enum Enum.Operation",
          "name": "operation",
          "type": "uint8"
        }
      ],
      "name": "ExecuteCheckFailure",
      "type": "event"
    },
    {
      "anonymous": false,
      "inputs": [
        {
          "indexed": false,
          "internalType": "address",
          "name": "checkOwner",
          "type": "address"
        },
        {
          "indexed": true,
          "internalType": "address",
          "name": "to",
          "type": "address"
        },
        {
          "indexed": false,
          "internalType": "uint256",
          "name": "value",
          "type": "uint256"
        },
        {
          "indexed": false,
          "internalType": "bytes",
          "name": "data",
          "type": "bytes"
        },
        {
          "indexed": false,
          "internalType": "enum Enum.Operation",
          "name": "operation",
          "type": "uint8"
        }
      ],
      "name": "ExecuteCheckSuccess",
      "type": "event"
    },
    {
      "stateMutability": "payable",
      "type": "fallback"
    },
    {
      "inputs": [
        {
          "internalType": "bytes",
          "name": "checkMsg",
          "type": "bytes"
        }
      ],
      "name": "checkValidity",
      "outputs": [
        {
          "internalType": "bool",
          "name": "",
          "type": "bool"
        }
      ],
      "stateMutability": "view",
      "type": "function"
    },
    {
      "inputs": [],
      "name": "domainSeparator",
      "outputs": [
        {
          "internalType": "bytes32",
          "name": "",
          "type": "bytes32"
        }
      ],
      "stateMutability": "view",
      "type": "function"
    },
    {
      "inputs": [
        {
          "components": [
            {
              "internalType": "address",
              "name": "checkOwner",
              "type": "address"
            },
            {
              "internalType": "address",
              "name": "to",
              "type": "address"
            },
            {
              "internalType": "uint256",
              "name": "value",
              "type": "uint256"
            },
            {
              "internalType": "bytes",
              "name": "data",
              "type": "bytes"
            },
            {
              "internalType": "enum Enum.Operation",
              "name": "operation",
              "type": "uint8"
            },
            {
              "internalType": "uint256",
              "name": "safeTxGas",
              "type": "uint256"
            },
            {
              "internalType": "uint256",
              "name": "baseGas",
              "type": "uint256"
            },
            {
              "internalType": "uint256",
              "name": "gasPrice",
              "type": "uint256"
            },
            {
              "internalType": "address",
              "name": "gasToken",
              "type": "address"
            },
            {
              "internalType": "address payable",
              "name": "refundReceiver",
              "type": "address"
            },
            {
              "internalType": "uint256",
              "name": "checkNonce",
              "type": "uint256"
            },
            {
              "internalType": "bytes",
              "name": "signatures",
              "type": "bytes"
            }
          ],
          "internalType": "struct CheckExecutor.CheckInfo",
          "name": "checkInfo",
          "type": "tuple"
        }
      ],
      "name": "encodeCheckExecutionData",
      "outputs": [
        {
          "internalType": "bytes",
          "name": "",
          "type": "bytes"
        }
      ],
      "stateMutability": "view",
      "type": "function"
    },
    {
      "inputs": [
        {
          "internalType": "bytes",
          "name": "checkMsg",
          "type": "bytes"
        }
      ],
      "name": "executeCheck",
      "outputs": [
        {
          "internalType": "bool",
          "name": "success",
          "type": "bool"
        }
      ],
      "stateMutability": "nonpayable",
      "type": "function"
    },
    {
      "inputs": [],
      "name": "getChainId",
      "outputs": [
        {
          "internalType": "uint256",
          "name": "",
          "type": "uint256"
        }
      ],
      "stateMutability": "pure",
      "type": "function"
    },
    {
      "stateMutability": "payable",
      "type": "receive"
    }
  ],
  "bytecode": "0x60a06040523480156200001157600080fd5b50604051620019003803806200190083398181016040528101906200003791906200008c565b8073ffffffffffffffffffffffffffffffffffffffff1660808173ffffffffffffffffffffffffffffffffffffffff1660601b815250505062000106565b6000815190506200008681620000ec565b92915050565b6000602082840312156200009f57600080fd5b6000620000af8482850162000075565b91505092915050565b6000620000c582620000cc565b9050919050565b600073ffffffffffffffffffffffffffffffffffffffff82169050919050565b620000f781620000b8565b81146200010357600080fd5b50565b60805160601c6117d7620001296000398061022052806104d852506117d76000f3fe60806040526004361061004e5760003560e01c80632a2a09bc146100575780633408e4701461009457806338bc0b07146100bf57806367480d50146100fc578063f698da251461013957610055565b3661005557005b005b34801561006357600080fd5b5061007e60048036038101906100799190610fb2565b610164565b60405161008b919061131f565b60405180910390f35b3480156100a057600080fd5b506100a96102bc565b6040516100b6919061154d565b60405180910390f35b3480156100cb57600080fd5b506100e660048036038101906100e19190610ff3565b6102c9565b6040516100f3919061148b565b60405180910390f35b34801561010857600080fd5b50610123600480360381019061011e9190610fb2565b6103a2565b604051610130919061131f565b60405180910390f35b34801561014557600080fd5b5061014e610732565b60405161015b919061133a565b60405180910390f35b60008060006101728461078e565b905060001515600080836101400151815260200190815260200160002060009054906101000a900460ff161515146101df576040517f08c379a00000000000000000000000000000000000000000000000000000000081526004016101d6906114ed565b60405180910390fd5b60006101ea826102c9565b905060011515600080846101400151815260200190815260200160002060009054906101000a90505050808051906020012092507f000000000000000000000000000000000000000000000000000000000000000073ffffffffffffffffffffffffffffffffffffffff1663934f3a1184838561016001516040518463ffffffff1660e01b81526004016102809392919061140f565b60006040518083038186803b15801561029857600080fd5b505afa1580156102ac573d6000803e3d6000fd5b5050505050600192505050919050565b6000804690508091505090565b606060007fe862762e9cc423ab9325aacefda6c3feadcb9e6aa390fbbd3667781066ee542960001b83600001518460200151856040015186606001518051906020012087608001518860a001518960c001518a60e001518b61010001518c61012001518d610140015160405160200161034d9c9b9a99989796959493929190611355565b604051602081830303815290604052805190602001209050601960f81b600160f81b610377610732565b8360405160200161038b9493929190611285565b604051602081830303815290604052915050919050565b60008060006103b08461078e565b905060001515600080836101400151815260200190815260200160002060009054906101000a900460ff1615151461041d576040517f08c379a0000000000000000000000000000000000000000000000000000000008152600401610414906114ed565b60405180910390fd5b6001600080836101400151815260200190815260200160002060006101000a81548160ff021916908315150217905550806000015173ffffffffffffffffffffffffffffffffffffffff163373ffffffffffffffffffffffffffffffffffffffff16146104bf576040517f08c379a00000000000000000000000000000000000000000000000000000000081526004016104b6906114cd565b60405180910390fd5b60006104ca826102c9565b9050808051906020012092507f000000000000000000000000000000000000000000000000000000000000000073ffffffffffffffffffffffffffffffffffffffff1663934f3a1184838561016001516040518463ffffffff1660e01b81526004016105389392919061140f565b60006040518083038186803b15801561055057600080fd5b505afa158015610564573d6000803e3d6000fd5b505050505060005a90506105a6826020015183604001518460600151856080015160008760e001511461059b578660a001516105a1565b6109c45a035b6107b1565b93506105bb5a826107fd90919063ffffffff16565b905083806105ce575060008260a0015114155b806105de575060008260e0015114155b61061d576040517f08c379a00000000000000000000000000000000000000000000000000000000081526004016106149061152d565b60405180910390fd5b6000808360e00151111561064d5761064a828460c001518560e0015186610100015187610120015161081d565b90505b84156106c057826020015173ffffffffffffffffffffffffffffffffffffffff167fb84985ee6912e169f5f446f739bfe323890314ccd37862ae1452cbba5fe18c1284600001518560400151866060015187608001516040516106b394939291906112d3565b60405180910390a2610729565b826020015173ffffffffffffffffffffffffffffffffffffffff167f071547af80e3d5a99bba7bbc9bfb5606512d75cfb1d4e2aee66face3f539100a846000015185604001518660600151876080015160405161072094939291906112d3565b60405180910390a25b50505050919050565b60007f47e79534a245952e8b16893a336b85a3d9ea9fa8c573f3d803afb92a7946921860001b6107606102bc565b3060405160200161077393929190611454565b60405160208183030381529060405280519060200120905090565b610796610ada565b818060200190518101906107aa9190611034565b9050919050565b60006001808111156107bf57fe5b8360018111156107cb57fe5b14156107e4576000808551602087018986f490506107f4565b600080855160208701888a87f190505b95945050505050565b60008282111561080c57600080fd5b600082840390508091505092915050565b600080600073ffffffffffffffffffffffffffffffffffffffff168373ffffffffffffffffffffffffffffffffffffffff161461085a578261085c565b325b9050600073ffffffffffffffffffffffffffffffffffffffff168473ffffffffffffffffffffffffffffffffffffffff161415610941576108c63a86106108a3573a6108a5565b855b6108b8888a6109bd90919063ffffffff16565b6109dc90919063ffffffff16565b91508073ffffffffffffffffffffffffffffffffffffffff166108fc839081150290604051600060405180830381858888f1935050505061093c576040517f08c379a0000000000000000000000000000000000000000000000000000000008152600401610933906114ad565b60405180910390fd5b6109b3565b61096685610958888a6109bd90919063ffffffff16565b6109dc90919063ffffffff16565b9150610973848284610a16565b6109b2576040517f08c379a00000000000000000000000000000000000000000000000000000000081526004016109a99061150d565b60405180910390fd5b5b5095945050505050565b6000808284019050838110156109d257600080fd5b8091505092915050565b6000808314156109ef5760009050610a10565b6000828402905082848281610a0057fe5b0414610a0b57600080fd5b809150505b92915050565b60008063a9059cbb8484604051602401808373ffffffffffffffffffffffffffffffffffffffff168152602001828152602001925050506040516020818303038152906040529060e01b6020820180517bffffffffffffffffffffffffffffffffffffffffffffffffffffffff83818316178352505050509050602060008251602084016000896127105a03f13d60008114610abd5760208114610ac55760009350610ad0565b819350610ad0565b600051158215171593505b5050509392505050565b604051806101800160405280600073ffffffffffffffffffffffffffffffffffffffff168152602001600073ffffffffffffffffffffffffffffffffffffffff168152602001600081526020016060815260200160006001811115610b3b57fe5b8152602001600081526020016000815260200160008152602001600073ffffffffffffffffffffffffffffffffffffffff168152602001600073ffffffffffffffffffffffffffffffffffffffff16815260200160008152602001606081525090565b6000610bb1610bac84611599565b611568565b905082815260208101848484011115610bc957600080fd5b610bd48482856116cf565b509392505050565b6000610bef610bea84611599565b611568565b905082815260208101848484011115610c0757600080fd5b610c128482856116de565b509392505050565b600081359050610c298161174c565b92915050565b600081519050610c3e8161174c565b92915050565b600081359050610c5381611763565b92915050565b600081519050610c6881611763565b92915050565b600082601f830112610c7f57600080fd5b8135610c8f848260208601610b9e565b91505092915050565b600082601f830112610ca957600080fd5b8151610cb9848260208601610bdc565b91505092915050565b600081359050610cd18161177a565b92915050565b600081519050610ce68161177a565b92915050565b60006101808284031215610cff57600080fd5b610d0a610180611568565b90506000610d1a84828501610c1a565b6000830152506020610d2e84828501610c1a565b6020830152506040610d4284828501610f88565b604083015250606082013567ffffffffffffffff811115610d6257600080fd5b610d6e84828501610c6e565b6060830152506080610d8284828501610cc2565b60808301525060a0610d9684828501610f88565b60a08301525060c0610daa84828501610f88565b60c08301525060e0610dbe84828501610f88565b60e083015250610100610dd384828501610c1a565b61010083015250610120610de984828501610c44565b61012083015250610140610dff84828501610f88565b6101408301525061016082013567ffffffffffffffff811115610e2157600080fd5b610e2d84828501610c6e565b6101608301525092915050565b60006101808284031215610e4d57600080fd5b610e58610180611568565b90506000610e6884828501610c2f565b6000830152506020610e7c84828501610c2f565b6020830152506040610e9084828501610f9d565b604083015250606082015167ffffffffffffffff811115610eb057600080fd5b610ebc84828501610c98565b6060830152506080610ed084828501610cd7565b60808301525060a0610ee484828501610f9d565b60a08301525060c0610ef884828501610f9d565b60c08301525060e0610f0c84828501610f9d565b60e083015250610100610f2184828501610c2f565b61010083015250610120610f3784828501610c59565b61012083015250610140610f4d84828501610f9d565b6101408301525061016082015167ffffffffffffffff811115610f6f57600080fd5b610f7b84828501610c98565b6101608301525092915050565b600081359050610f978161178a565b92915050565b600081519050610fac8161178a565b92915050565b600060208284031215610fc457600080fd5b600082013567ffffffffffffffff811115610fde57600080fd5b610fea84828501610c6e565b91505092915050565b60006020828403121561100557600080fd5b600082013567ffffffffffffffff81111561101f57600080fd5b61102b84828501610cec565b91505092915050565b60006020828403121561104657600080fd5b600082015167ffffffffffffffff81111561106057600080fd5b61106c84828501610e3a565b91505092915050565b61107e81611608565b82525050565b61108d816115f6565b82525050565b61109c8161161a565b82525050565b6110b36110ae82611626565b611711565b82525050565b6110c281611652565b82525050565b6110d96110d482611652565b61171b565b82525050565b60006110ea826115c9565b6110f481856115d4565b93506111048185602086016116de565b61110d81611727565b840191505092915050565b61112181611699565b82525050565b611130816116bd565b82525050565b60006111436005836115e5565b91507f47533031310000000000000000000000000000000000000000000000000000006000830152602082019050919050565b60006111836004836115e5565b91507f43323031000000000000000000000000000000000000000000000000000000006000830152602082019050919050565b60006111c36004836115e5565b91507f43323030000000000000000000000000000000000000000000000000000000006000830152602082019050919050565b60006112036005836115e5565b91507f47533031320000000000000000000000000000000000000000000000000000006000830152602082019050919050565b60006112436005836115e5565b91507f47533031330000000000000000000000000000000000000000000000000000006000830152602082019050919050565b61127f8161168f565b82525050565b600061129182876110a2565b6001820191506112a182866110a2565b6001820191506112b182856110c8565b6020820191506112c182846110c8565b60208201915081905095945050505050565b60006080820190506112e86000830187611084565b6112f56020830186611276565b818103604083015261130781856110df565b90506113166060830184611127565b95945050505050565b60006020820190506113346000830184611093565b92915050565b600060208201905061134f60008301846110b9565b92915050565b60006101808201905061136b600083018f6110b9565b611378602083018e611084565b611385604083018d611084565b611392606083018c611276565b61139f608083018b6110b9565b6113ac60a083018a611127565b6113b960c0830189611276565b6113c660e0830188611276565b6113d4610100830187611276565b6113e2610120830186611084565b6113f0610140830185611075565b6113fe610160830184611276565b9d9c50505050505050505050505050565b600060608201905061142460008301866110b9565b818103602083015261143681856110df565b9050818103604083015261144a81846110df565b9050949350505050565b600060608201905061146960008301866110b9565b6114766020830185611276565b6114836040830184611118565b949350505050565b600060208201905081810360008301526114a581846110df565b905092915050565b600060208201905081810360008301526114c681611136565b9050919050565b600060208201905081810360008301526114e681611176565b9050919050565b60006020820190508181036000830152611506816111b6565b9050919050565b60006020820190508181036000830152611526816111f6565b9050919050565b6000602082019050818103600083015261154681611236565b9050919050565b60006020820190506115626000830184611276565b92915050565b6000604051905081810181811067ffffffffffffffff8211171561158f5761158e611725565b5b8060405250919050565b600067ffffffffffffffff8211156115b4576115b3611725565b5b601f19601f8301169050602081019050919050565b600081519050919050565b600082825260208201905092915050565b600082825260208201905092915050565b60006116018261166f565b9050919050565b60006116138261166f565b9050919050565b60008115159050919050565b60007fff0000000000000000000000000000000000000000000000000000000000000082169050919050565b6000819050919050565b600081905061166a82611738565b919050565b600073ffffffffffffffffffffffffffffffffffffffff82169050919050565b6000819050919050565b60006116a4826116ab565b9050919050565b60006116b68261166f565b9050919050565b60006116c88261165c565b9050919050565b82818337600083830152505050565b60005b838110156116fc5780820151818401526020810190506116e1565b8381111561170b576000848401525b50505050565b6000819050919050565b6000819050919050565bfe5b6000601f19601f8301169050919050565b6002811061174957611748611725565b5b50565b611755816115f6565b811461176057600080fd5b50565b61176c81611608565b811461177757600080fd5b50565b6002811061178757600080fd5b50565b6117938161168f565b811461179e57600080fd5b5056fea26469706673582212205cde7a068a18eb4be68e77de0e00411968b32998647d23708bf16c107605b38c64736f6c63430007060033",
  "linkReferences": {},
  "deployedLinkReferences": {}
}