{
  "_format": "hh-sol-artifact-1",
  "contractName": "CheckExecutor",
  "sourceName": "contracts/CheckExecutor.sol",
  "abi": [
    {
      "inputs": [
        {
          "internalType": "address",
          "name": "a",
          "type": "address"
        }
      ],
      "stateMutability": "nonpayable",
      "type": "constructor"
    },
    {
      "anonymous": false,
      "inputs": [
        {
          "indexed": false,
          "internalType": "address",
          "name": "checkOwner",
          "type": "address"
        },
        {
          "indexed": true,
          "internalType": "address",
          "name": "to",
          "type": "address"
        },
        {
          "indexed": false,
          "internalType": "uint256",
          "name": "value",
          "type": "uint256"
        },
        {
          "indexed": false,
          "internalType": "bytes",
          "name": "data",
          "type": "bytes"
        },
        {
          "indexed": false,
          "internalType": "enum Enum.Operation",
          "name": "operation",
          "type": "uint8"
        }
      ],
      "name": "ExecuteCheckFailure",
      "type": "event"
    },
    {
      "anonymous": false,
      "inputs": [
        {
          "indexed": false,
          "internalType": "address",
          "name": "checkOwner",
          "type": "address"
        },
        {
          "indexed": true,
          "internalType": "address",
          "name": "to",
          "type": "address"
        },
        {
          "indexed": false,
          "internalType": "uint256",
          "name": "value",
          "type": "uint256"
        },
        {
          "indexed": false,
          "internalType": "bytes",
          "name": "data",
          "type": "bytes"
        },
        {
          "indexed": false,
          "internalType": "enum Enum.Operation",
          "name": "operation",
          "type": "uint8"
        }
      ],
      "name": "ExecuteCheckSuccess",
      "type": "event"
    },
    {
      "stateMutability": "payable",
      "type": "fallback"
    },
    {
      "inputs": [
        {
          "internalType": "bytes",
          "name": "checkMsg",
          "type": "bytes"
        }
      ],
      "name": "checkValidity",
      "outputs": [
        {
          "internalType": "bool",
          "name": "",
          "type": "bool"
        }
      ],
      "stateMutability": "view",
      "type": "function"
    },
    {
      "inputs": [],
      "name": "domainSeparator",
      "outputs": [
        {
          "internalType": "bytes32",
          "name": "",
          "type": "bytes32"
        }
      ],
      "stateMutability": "view",
      "type": "function"
    },
    {
      "inputs": [
        {
          "components": [
            {
              "internalType": "address",
              "name": "checkOwner",
              "type": "address"
            },
            {
              "internalType": "address",
              "name": "to",
              "type": "address"
            },
            {
              "internalType": "uint256",
              "name": "value",
              "type": "uint256"
            },
            {
              "internalType": "bytes",
              "name": "data",
              "type": "bytes"
            },
            {
              "internalType": "enum Enum.Operation",
              "name": "operation",
              "type": "uint8"
            },
            {
              "internalType": "uint256",
              "name": "safeTxGas",
              "type": "uint256"
            },
            {
              "internalType": "uint256",
              "name": "baseGas",
              "type": "uint256"
            },
            {
              "internalType": "uint256",
              "name": "gasPrice",
              "type": "uint256"
            },
            {
              "internalType": "address",
              "name": "gasToken",
              "type": "address"
            },
            {
              "internalType": "address payable",
              "name": "refundReceiver",
              "type": "address"
            },
            {
              "internalType": "uint256",
              "name": "checkNonce",
              "type": "uint256"
            },
            {
              "internalType": "bytes",
              "name": "signatures",
              "type": "bytes"
            }
          ],
          "internalType": "struct CheckExecutor.CheckInfo",
          "name": "checkInfo",
          "type": "tuple"
        }
      ],
      "name": "encodeCheckExecutionData",
      "outputs": [
        {
          "internalType": "bytes",
          "name": "",
          "type": "bytes"
        }
      ],
      "stateMutability": "view",
      "type": "function"
    },
    {
      "inputs": [
        {
          "components": [
            {
              "internalType": "address",
              "name": "checkOwner",
              "type": "address"
            },
            {
              "internalType": "address",
              "name": "to",
              "type": "address"
            },
            {
              "internalType": "uint256",
              "name": "value",
              "type": "uint256"
            },
            {
              "internalType": "bytes",
              "name": "data",
              "type": "bytes"
            },
            {
              "internalType": "enum Enum.Operation",
              "name": "operation",
              "type": "uint8"
            },
            {
              "internalType": "uint256",
              "name": "safeTxGas",
              "type": "uint256"
            },
            {
              "internalType": "uint256",
              "name": "baseGas",
              "type": "uint256"
            },
            {
              "internalType": "uint256",
              "name": "gasPrice",
              "type": "uint256"
            },
            {
              "internalType": "address",
              "name": "gasToken",
              "type": "address"
            },
            {
              "internalType": "address payable",
              "name": "refundReceiver",
              "type": "address"
            },
            {
              "internalType": "uint256",
              "name": "checkNonce",
              "type": "uint256"
            },
            {
              "internalType": "bytes",
              "name": "signatures",
              "type": "bytes"
            }
          ],
          "internalType": "struct CheckExecutor.CheckInfo",
          "name": "checkInfo",
          "type": "tuple"
        }
      ],
      "name": "encodeCheckExecutionData_1",
      "outputs": [
        {
          "internalType": "bytes",
          "name": "e1",
          "type": "bytes"
        }
      ],
      "stateMutability": "pure",
      "type": "function"
    },
    {
      "inputs": [
        {
          "components": [
            {
              "internalType": "address",
              "name": "checkOwner",
              "type": "address"
            },
            {
              "internalType": "address",
              "name": "to",
              "type": "address"
            },
            {
              "internalType": "uint256",
              "name": "value",
              "type": "uint256"
            },
            {
              "internalType": "bytes",
              "name": "data",
              "type": "bytes"
            },
            {
              "internalType": "enum Enum.Operation",
              "name": "operation",
              "type": "uint8"
            },
            {
              "internalType": "uint256",
              "name": "safeTxGas",
              "type": "uint256"
            },
            {
              "internalType": "uint256",
              "name": "baseGas",
              "type": "uint256"
            },
            {
              "internalType": "uint256",
              "name": "gasPrice",
              "type": "uint256"
            },
            {
              "internalType": "address",
              "name": "gasToken",
              "type": "address"
            },
            {
              "internalType": "address payable",
              "name": "refundReceiver",
              "type": "address"
            },
            {
              "internalType": "uint256",
              "name": "checkNonce",
              "type": "uint256"
            },
            {
              "internalType": "bytes",
              "name": "signatures",
              "type": "bytes"
            }
          ],
          "internalType": "struct CheckExecutor.CheckInfo",
          "name": "checkInfo",
          "type": "tuple"
        }
      ],
      "name": "encodeCheckExecutionData_2",
      "outputs": [
        {
          "internalType": "bytes",
          "name": "e2",
          "type": "bytes"
        }
      ],
      "stateMutability": "pure",
      "type": "function"
    },
    {
      "inputs": [
        {
          "internalType": "bytes",
          "name": "checkMsg",
          "type": "bytes"
        }
      ],
      "name": "executeCheck",
      "outputs": [
        {
          "internalType": "bool",
          "name": "success",
          "type": "bool"
        }
      ],
      "stateMutability": "nonpayable",
      "type": "function"
    },
    {
      "inputs": [],
      "name": "getChainId",
      "outputs": [
        {
          "internalType": "uint256",
          "name": "",
          "type": "uint256"
        }
      ],
      "stateMutability": "pure",
      "type": "function"
    },
    {
      "stateMutability": "payable",
      "type": "receive"
    }
  ],
  "bytecode": "0x60a06040523480156200001157600080fd5b5060405162001b2238038062001b2283398181016040528101906200003791906200008c565b8073ffffffffffffffffffffffffffffffffffffffff1660808173ffffffffffffffffffffffffffffffffffffffff1660601b815250505062000106565b6000815190506200008681620000ec565b92915050565b6000602082840312156200009f57600080fd5b6000620000af8482850162000075565b91505092915050565b6000620000c582620000cc565b9050919050565b600073ffffffffffffffffffffffffffffffffffffffff82169050919050565b620000f781620000b8565b81146200010357600080fd5b50565b60805160601c6119f962000129600039806102c0528061057852506119f96000f3fe6080604052600436106100745760003560e01c806367480d501161004e57806367480d50146101225780636799c7701461015f5780637c7797841461019c578063f698da25146101d95761007b565b80632a2a09bc1461007d5780633408e470146100ba57806338bc0b07146100e55761007b565b3661007b57005b005b34801561008957600080fd5b506100a4600480360381019061009f9190611111565b610204565b6040516100b1919061147e565b60405180910390f35b3480156100c657600080fd5b506100cf61035c565b6040516100dc919061172a565b60405180910390f35b3480156100f157600080fd5b5061010c60048036038101906101079190611152565b610369565b6040516101199190611668565b60405180910390f35b34801561012e57600080fd5b5061014960048036038101906101449190611111565b610442565b604051610156919061147e565b60405180910390f35b34801561016b57600080fd5b5061018660048036038101906101819190611152565b6107d2565b6040516101939190611668565b60405180910390f35b3480156101a857600080fd5b506101c360048036038101906101be9190611152565b610814565b6040516101d09190611668565b60405180910390f35b3480156101e557600080fd5b506101ee610891565b6040516101fb9190611499565b60405180910390f35b6000806000610212846108ed565b905060001515600080836101400151815260200190815260200160002060009054906101000a900460ff1615151461027f576040517f08c379a0000000000000000000000000000000000000000000000000000000008152600401610276906116ca565b60405180910390fd5b600061028a82610369565b905060011515600080846101400151815260200190815260200160002060009054906101000a90505050808051906020012092507f000000000000000000000000000000000000000000000000000000000000000073ffffffffffffffffffffffffffffffffffffffff1663934f3a1184838561016001516040518463ffffffff1660e01b8152600401610320939291906115ec565b60006040518083038186803b15801561033857600080fd5b505afa15801561034c573d6000803e3d6000fd5b5050505050600192505050919050565b6000804690508091505090565b606060007fe862762e9cc423ab9325aacefda6c3feadcb9e6aa390fbbd3667781066ee542960001b83600001518460200151856040015186606001518051906020012087608001518860a001518960c001518a60e001518b61010001518c61012001518d61014001516040516020016103ed9c9b9a99989796959493929190611532565b604051602081830303815290604052805190602001209050601960f81b600160f81b610417610891565b8360405160200161042b94939291906113e4565b604051602081830303815290604052915050919050565b6000806000610450846108ed565b905060001515600080836101400151815260200190815260200160002060009054906101000a900460ff161515146104bd576040517f08c379a00000000000000000000000000000000000000000000000000000000081526004016104b4906116ca565b60405180910390fd5b6001600080836101400151815260200190815260200160002060006101000a81548160ff021916908315150217905550806000015173ffffffffffffffffffffffffffffffffffffffff163373ffffffffffffffffffffffffffffffffffffffff161461055f576040517f08c379a0000000000000000000000000000000000000000000000000000000008152600401610556906116aa565b60405180910390fd5b600061056a82610369565b9050808051906020012092507f000000000000000000000000000000000000000000000000000000000000000073ffffffffffffffffffffffffffffffffffffffff1663934f3a1184838561016001516040518463ffffffff1660e01b81526004016105d8939291906115ec565b60006040518083038186803b1580156105f057600080fd5b505afa158015610604573d6000803e3d6000fd5b505050505060005a9050610646826020015183604001518460600151856080015160008760e001511461063b578660a00151610641565b6109c45a035b610910565b935061065b5a8261095c90919063ffffffff16565b9050838061066e575060008260a0015114155b8061067e575060008260e0015114155b6106bd576040517f08c379a00000000000000000000000000000000000000000000000000000000081526004016106b49061170a565b60405180910390fd5b6000808360e0015111156106ed576106ea828460c001518560e0015186610100015187610120015161097c565b90505b841561076057826020015173ffffffffffffffffffffffffffffffffffffffff167fb84985ee6912e169f5f446f739bfe323890314ccd37862ae1452cbba5fe18c1284600001518560400151866060015187608001516040516107539493929190611432565b60405180910390a26107c9565b826020015173ffffffffffffffffffffffffffffffffffffffff167f071547af80e3d5a99bba7bbc9bfb5606512d75cfb1d4e2aee66face3f539100a84600001518560400151866060015187608001516040516107c09493929190611432565b60405180910390a25b50505050919050565b60608160e001518261010001518361012001518461014001516040516020016107fe9493929190611745565b6040516020818303038152906040529050919050565b60607fe862762e9cc423ab9325aacefda6c3feadcb9e6aa390fbbd3667781066ee542960001b82600001518360200151846040015185606001518051906020012086608001518760a001518860c0015160405160200161087b9897969594939291906114b4565b6040516020818303038152906040529050919050565b60007f47e79534a245952e8b16893a336b85a3d9ea9fa8c573f3d803afb92a7946921860001b6108bf61035c565b306040516020016108d293929190611631565b60405160208183030381529060405280519060200120905090565b6108f5610c39565b818060200190518101906109099190611193565b9050919050565b600060018081111561091e57fe5b83600181111561092a57fe5b1415610943576000808551602087018986f49050610953565b600080855160208701888a87f190505b95945050505050565b60008282111561096b57600080fd5b600082840390508091505092915050565b600080600073ffffffffffffffffffffffffffffffffffffffff168373ffffffffffffffffffffffffffffffffffffffff16146109b957826109bb565b325b9050600073ffffffffffffffffffffffffffffffffffffffff168473ffffffffffffffffffffffffffffffffffffffff161415610aa057610a253a8610610a02573a610a04565b855b610a17888a610b1c90919063ffffffff16565b610b3b90919063ffffffff16565b91508073ffffffffffffffffffffffffffffffffffffffff166108fc839081150290604051600060405180830381858888f19350505050610a9b576040517f08c379a0000000000000000000000000000000000000000000000000000000008152600401610a929061168a565b60405180910390fd5b610b12565b610ac585610ab7888a610b1c90919063ffffffff16565b610b3b90919063ffffffff16565b9150610ad2848284610b75565b610b11576040517f08c379a0000000000000000000000000000000000000000000000000000000008152600401610b08906116ea565b60405180910390fd5b5b5095945050505050565b600080828401905083811015610b3157600080fd5b8091505092915050565b600080831415610b4e5760009050610b6f565b6000828402905082848281610b5f57fe5b0414610b6a57600080fd5b809150505b92915050565b60008063a9059cbb8484604051602401808373ffffffffffffffffffffffffffffffffffffffff168152602001828152602001925050506040516020818303038152906040529060e01b6020820180517bffffffffffffffffffffffffffffffffffffffffffffffffffffffff83818316178352505050509050602060008251602084016000896127105a03f13d60008114610c1c5760208114610c245760009350610c2f565b819350610c2f565b600051158215171593505b5050509392505050565b604051806101800160405280600073ffffffffffffffffffffffffffffffffffffffff168152602001600073ffffffffffffffffffffffffffffffffffffffff168152602001600081526020016060815260200160006001811115610c9a57fe5b8152602001600081526020016000815260200160008152602001600073ffffffffffffffffffffffffffffffffffffffff168152602001600073ffffffffffffffffffffffffffffffffffffffff16815260200160008152602001606081525090565b6000610d10610d0b846117bb565b61178a565b905082815260208101848484011115610d2857600080fd5b610d338482856118f1565b509392505050565b6000610d4e610d49846117bb565b61178a565b905082815260208101848484011115610d6657600080fd5b610d71848285611900565b509392505050565b600081359050610d888161196e565b92915050565b600081519050610d9d8161196e565b92915050565b600081359050610db281611985565b92915050565b600081519050610dc781611985565b92915050565b600082601f830112610dde57600080fd5b8135610dee848260208601610cfd565b91505092915050565b600082601f830112610e0857600080fd5b8151610e18848260208601610d3b565b91505092915050565b600081359050610e308161199c565b92915050565b600081519050610e458161199c565b92915050565b60006101808284031215610e5e57600080fd5b610e6961018061178a565b90506000610e7984828501610d79565b6000830152506020610e8d84828501610d79565b6020830152506040610ea1848285016110e7565b604083015250606082013567ffffffffffffffff811115610ec157600080fd5b610ecd84828501610dcd565b6060830152506080610ee184828501610e21565b60808301525060a0610ef5848285016110e7565b60a08301525060c0610f09848285016110e7565b60c08301525060e0610f1d848285016110e7565b60e083015250610100610f3284828501610d79565b61010083015250610120610f4884828501610da3565b61012083015250610140610f5e848285016110e7565b6101408301525061016082013567ffffffffffffffff811115610f8057600080fd5b610f8c84828501610dcd565b6101608301525092915050565b60006101808284031215610fac57600080fd5b610fb761018061178a565b90506000610fc784828501610d8e565b6000830152506020610fdb84828501610d8e565b6020830152506040610fef848285016110fc565b604083015250606082015167ffffffffffffffff81111561100f57600080fd5b61101b84828501610df7565b606083015250608061102f84828501610e36565b60808301525060a0611043848285016110fc565b60a08301525060c0611057848285016110fc565b60c08301525060e061106b848285016110fc565b60e08301525061010061108084828501610d8e565b6101008301525061012061109684828501610db8565b610120830152506101406110ac848285016110fc565b6101408301525061016082015167ffffffffffffffff8111156110ce57600080fd5b6110da84828501610df7565b6101608301525092915050565b6000813590506110f6816119ac565b92915050565b60008151905061110b816119ac565b92915050565b60006020828403121561112357600080fd5b600082013567ffffffffffffffff81111561113d57600080fd5b61114984828501610dcd565b91505092915050565b60006020828403121561116457600080fd5b600082013567ffffffffffffffff81111561117e57600080fd5b61118a84828501610e4b565b91505092915050565b6000602082840312156111a557600080fd5b600082015167ffffffffffffffff8111156111bf57600080fd5b6111cb84828501610f99565b91505092915050565b6111dd8161182a565b82525050565b6111ec81611818565b82525050565b6111fb8161183c565b82525050565b61121261120d82611848565b611933565b82525050565b61122181611874565b82525050565b61123861123382611874565b61193d565b82525050565b6000611249826117eb565b61125381856117f6565b9350611263818560208601611900565b61126c81611949565b840191505092915050565b611280816118bb565b82525050565b61128f816118df565b82525050565b60006112a2600583611807565b91507f47533031310000000000000000000000000000000000000000000000000000006000830152602082019050919050565b60006112e2600483611807565b91507f43323031000000000000000000000000000000000000000000000000000000006000830152602082019050919050565b6000611322600483611807565b91507f43323030000000000000000000000000000000000000000000000000000000006000830152602082019050919050565b6000611362600583611807565b91507f47533031320000000000000000000000000000000000000000000000000000006000830152602082019050919050565b60006113a2600583611807565b91507f47533031330000000000000000000000000000000000000000000000000000006000830152602082019050919050565b6113de816118b1565b82525050565b60006113f08287611201565b6001820191506114008286611201565b6001820191506114108285611227565b6020820191506114208284611227565b60208201915081905095945050505050565b600060808201905061144760008301876111e3565b61145460208301866113d5565b8181036040830152611466818561123e565b90506114756060830184611286565b95945050505050565b600060208201905061149360008301846111f2565b92915050565b60006020820190506114ae6000830184611218565b92915050565b6000610100820190506114ca600083018b611218565b6114d7602083018a6111e3565b6114e460408301896111e3565b6114f160608301886113d5565b6114fe6080830187611218565b61150b60a0830186611286565b61151860c08301856113d5565b61152560e08301846113d5565b9998505050505050505050565b600061018082019050611548600083018f611218565b611555602083018e6111e3565b611562604083018d6111e3565b61156f606083018c6113d5565b61157c608083018b611218565b61158960a083018a611286565b61159660c08301896113d5565b6115a360e08301886113d5565b6115b16101008301876113d5565b6115bf6101208301866111e3565b6115cd6101408301856111d4565b6115db6101608301846113d5565b9d9c50505050505050505050505050565b60006060820190506116016000830186611218565b8181036020830152611613818561123e565b90508181036040830152611627818461123e565b9050949350505050565b60006060820190506116466000830186611218565b61165360208301856113d5565b6116606040830184611277565b949350505050565b60006020820190508181036000830152611682818461123e565b905092915050565b600060208201905081810360008301526116a381611295565b9050919050565b600060208201905081810360008301526116c3816112d5565b9050919050565b600060208201905081810360008301526116e381611315565b9050919050565b6000602082019050818103600083015261170381611355565b9050919050565b6000602082019050818103600083015261172381611395565b9050919050565b600060208201905061173f60008301846113d5565b92915050565b600060808201905061175a60008301876113d5565b61176760208301866111e3565b61177460408301856111d4565b61178160608301846113d5565b95945050505050565b6000604051905081810181811067ffffffffffffffff821117156117b1576117b0611947565b5b8060405250919050565b600067ffffffffffffffff8211156117d6576117d5611947565b5b601f19601f8301169050602081019050919050565b600081519050919050565b600082825260208201905092915050565b600082825260208201905092915050565b600061182382611891565b9050919050565b600061183582611891565b9050919050565b60008115159050919050565b60007fff0000000000000000000000000000000000000000000000000000000000000082169050919050565b6000819050919050565b600081905061188c8261195a565b919050565b600073ffffffffffffffffffffffffffffffffffffffff82169050919050565b6000819050919050565b60006118c6826118cd565b9050919050565b60006118d882611891565b9050919050565b60006118ea8261187e565b9050919050565b82818337600083830152505050565b60005b8381101561191e578082015181840152602081019050611903565b8381111561192d576000848401525b50505050565b6000819050919050565b6000819050919050565bfe5b6000601f19601f8301169050919050565b6002811061196b5761196a611947565b5b50565b61197781611818565b811461198257600080fd5b50565b61198e8161182a565b811461199957600080fd5b50565b600281106119a957600080fd5b50565b6119b5816118b1565b81146119c057600080fd5b5056fea2646970667358221220db48a0b0b04f09d8b29a140db27f4f5639e28eca276e80f0b7645035f532f94d64736f6c63430007060033",
  "linkReferences": {},
  "deployedLinkReferences": {}
}