{
    "_format": "hh-sol-artifact-1",
    "contractName": "CheckExecutor",
    "sourceName": "contracts/CheckExecutor.sol",
    "abi": [
        {
            "inputs": [
                {
                    "internalType": "address",
                    "name": "a",
                    "type": "address"
                }
            ],
            "stateMutability": "nonpayable",
            "type": "constructor"
        },
        {
            "anonymous": false,
            "inputs": [
                {
                    "indexed": false,
                    "internalType": "address",
                    "name": "checkOwner",
                    "type": "address"
                },
                {
                    "indexed": true,
                    "internalType": "address",
                    "name": "to",
                    "type": "address"
                },
                {
                    "indexed": false,
                    "internalType": "uint256",
                    "name": "value",
                    "type": "uint256"
                },
                {
                    "indexed": false,
                    "internalType": "bytes",
                    "name": "data",
                    "type": "bytes"
                },
                {
                    "indexed": false,
                    "internalType": "enum Enum.Operation",
                    "name": "operation",
                    "type": "uint8"
                }
            ],
            "name": "ExecuteCheckFailure",
            "type": "event"
        },
        {
            "anonymous": false,
            "inputs": [
                {
                    "indexed": false,
                    "internalType": "address",
                    "name": "checkOwner",
                    "type": "address"
                },
                {
                    "indexed": true,
                    "internalType": "address",
                    "name": "to",
                    "type": "address"
                },
                {
                    "indexed": false,
                    "internalType": "uint256",
                    "name": "value",
                    "type": "uint256"
                },
                {
                    "indexed": false,
                    "internalType": "bytes",
                    "name": "data",
                    "type": "bytes"
                },
                {
                    "indexed": false,
                    "internalType": "enum Enum.Operation",
                    "name": "operation",
                    "type": "uint8"
                }
            ],
            "name": "ExecuteCheckSuccess",
            "type": "event"
        },
        {
            "stateMutability": "payable",
            "type": "fallback"
        },
        {
            "inputs": [
                {
                    "internalType": "bytes",
                    "name": "checkMsg",
                    "type": "bytes"
                }
            ],
            "name": "checkValidity",
            "outputs": [
                {
                    "internalType": "bool",
                    "name": "",
                    "type": "bool"
                }
            ],
            "stateMutability": "view",
            "type": "function"
        },
        {
            "inputs": [],
            "name": "domainSeparator",
            "outputs": [
                {
                    "internalType": "bytes32",
                    "name": "",
                    "type": "bytes32"
                }
            ],
            "stateMutability": "view",
            "type": "function"
        },
        {
            "inputs": [
                {
                    "components": [
                        {
                            "internalType": "address",
                            "name": "checkOwner",
                            "type": "address"
                        },
                        {
                            "internalType": "address",
                            "name": "to",
                            "type": "address"
                        },
                        {
                            "internalType": "uint256",
                            "name": "value",
                            "type": "uint256"
                        },
                        {
                            "internalType": "bytes",
                            "name": "data",
                            "type": "bytes"
                        },
                        {
                            "internalType": "enum Enum.Operation",
                            "name": "operation",
                            "type": "uint8"
                        },
                        {
                            "internalType": "uint256",
                            "name": "safeTxGas",
                            "type": "uint256"
                        },
                        {
                            "internalType": "uint256",
                            "name": "baseGas",
                            "type": "uint256"
                        },
                        {
                            "internalType": "uint256",
                            "name": "gasPrice",
                            "type": "uint256"
                        },
                        {
                            "internalType": "address",
                            "name": "gasToken",
                            "type": "address"
                        },
                        {
                            "internalType": "address payable",
                            "name": "refundReceiver",
                            "type": "address"
                        },
                        {
                            "internalType": "uint256",
                            "name": "checkNonce",
                            "type": "uint256"
                        },
                        {
                            "internalType": "bytes",
                            "name": "signatures",
                            "type": "bytes"
                        }
                    ],
                    "internalType": "struct CheckExecutor.CheckInfo",
                    "name": "checkInfo",
                    "type": "tuple"
                }
            ],
            "name": "encodeCheckExecutionData",
            "outputs": [
                {
                    "internalType": "bytes",
                    "name": "",
                    "type": "bytes"
                }
            ],
            "stateMutability": "view",
            "type": "function"
        },
        {
            "inputs": [
                {
                    "components": [
                        {
                            "internalType": "address",
                            "name": "checkOwner",
                            "type": "address"
                        },
                        {
                            "internalType": "address",
                            "name": "to",
                            "type": "address"
                        },
                        {
                            "internalType": "uint256",
                            "name": "value",
                            "type": "uint256"
                        },
                        {
                            "internalType": "bytes",
                            "name": "data",
                            "type": "bytes"
                        },
                        {
                            "internalType": "enum Enum.Operation",
                            "name": "operation",
                            "type": "uint8"
                        },
                        {
                            "internalType": "uint256",
                            "name": "safeTxGas",
                            "type": "uint256"
                        },
                        {
                            "internalType": "uint256",
                            "name": "baseGas",
                            "type": "uint256"
                        },
                        {
                            "internalType": "uint256",
                            "name": "gasPrice",
                            "type": "uint256"
                        },
                        {
                            "internalType": "address",
                            "name": "gasToken",
                            "type": "address"
                        },
                        {
                            "internalType": "address payable",
                            "name": "refundReceiver",
                            "type": "address"
                        },
                        {
                            "internalType": "uint256",
                            "name": "checkNonce",
                            "type": "uint256"
                        },
                        {
                            "internalType": "bytes",
                            "name": "signatures",
                            "type": "bytes"
                        }
                    ],
                    "internalType": "struct CheckExecutor.CheckInfo",
                    "name": "checkInfo",
                    "type": "tuple"
                }
            ],
            "name": "encodeCheckExecutionData_1",
            "outputs": [
                {
                    "internalType": "bytes",
                    "name": "e1",
                    "type": "bytes"
                }
            ],
            "stateMutability": "pure",
            "type": "function"
        },
        {
            "inputs": [
                {
                    "components": [
                        {
                            "internalType": "address",
                            "name": "checkOwner",
                            "type": "address"
                        },
                        {
                            "internalType": "address",
                            "name": "to",
                            "type": "address"
                        },
                        {
                            "internalType": "uint256",
                            "name": "value",
                            "type": "uint256"
                        },
                        {
                            "internalType": "bytes",
                            "name": "data",
                            "type": "bytes"
                        },
                        {
                            "internalType": "enum Enum.Operation",
                            "name": "operation",
                            "type": "uint8"
                        },
                        {
                            "internalType": "uint256",
                            "name": "safeTxGas",
                            "type": "uint256"
                        },
                        {
                            "internalType": "uint256",
                            "name": "baseGas",
                            "type": "uint256"
                        },
                        {
                            "internalType": "uint256",
                            "name": "gasPrice",
                            "type": "uint256"
                        },
                        {
                            "internalType": "address",
                            "name": "gasToken",
                            "type": "address"
                        },
                        {
                            "internalType": "address payable",
                            "name": "refundReceiver",
                            "type": "address"
                        },
                        {
                            "internalType": "uint256",
                            "name": "checkNonce",
                            "type": "uint256"
                        },
                        {
                            "internalType": "bytes",
                            "name": "signatures",
                            "type": "bytes"
                        }
                    ],
                    "internalType": "struct CheckExecutor.CheckInfo",
                    "name": "checkInfo",
                    "type": "tuple"
                }
            ],
            "name": "encodeCheckExecutionData_2",
            "outputs": [
                {
                    "internalType": "bytes",
                    "name": "e2",
                    "type": "bytes"
                }
            ],
            "stateMutability": "pure",
            "type": "function"
        },
        {
            "inputs": [
                {
                    "internalType": "bytes",
                    "name": "checkMsg",
                    "type": "bytes"
                }
            ],
            "name": "executeCheck",
            "outputs": [
                {
                    "internalType": "bool",
                    "name": "success",
                    "type": "bool"
                }
            ],
            "stateMutability": "nonpayable",
            "type": "function"
        },
        {
            "inputs": [],
            "name": "getChainId",
            "outputs": [
                {
                    "internalType": "uint256",
                    "name": "",
                    "type": "uint256"
                }
            ],
            "stateMutability": "pure",
            "type": "function"
        },
        {
            "stateMutability": "payable",
            "type": "receive"
        }
    ],
    "bytecode": "0x60a06040523480156200001157600080fd5b5060405162001a7f38038062001a7f83398181016040528101906200003791906200008c565b8073ffffffffffffffffffffffffffffffffffffffff1660808173ffffffffffffffffffffffffffffffffffffffff1660601b815250505062000106565b6000815190506200008681620000ec565b92915050565b6000602082840312156200009f57600080fd5b6000620000af8482850162000075565b91505092915050565b6000620000c582620000cc565b9050919050565b600073ffffffffffffffffffffffffffffffffffffffff82169050919050565b620000f781620000b8565b81146200010357600080fd5b50565b60805160601c61195662000129600039806102c0528061050352506119566000f3fe6080604052600436106100745760003560e01c806367480d501161004e57806367480d50146101225780636799c7701461015f5780637c7797841461019c578063f698da25146101d95761007b565b80632a2a09bc1461007d5780633408e470146100ba57806338bc0b07146100e55761007b565b3661007b57005b005b34801561008957600080fd5b506100a4600480360381019061009f91906110c8565b610204565b6040516100b1919061148a565b60405180910390f35b3480156100c657600080fd5b506100cf61035c565b6040516100dc919061167c565b60405180910390f35b3480156100f157600080fd5b5061010c60048036038101906101079190611109565b610369565b60405161011991906115ba565b60405180910390f35b34801561012e57600080fd5b50610149600480360381019061014491906110c8565b6103cd565b604051610156919061148a565b60405180910390f35b34801561016b57600080fd5b5061018660048036038101906101819190611109565b61075d565b60405161019391906115ba565b60405180910390f35b3480156101a857600080fd5b506101c360048036038101906101be9190611109565b61079f565b6040516101d091906115ba565b60405180910390f35b3480156101e557600080fd5b506101ee61081c565b6040516101fb91906114a5565b60405180910390f35b600080600061021284610878565b905060001515600080836101400151815260200190815260200160002060009054906101000a900460ff1615151461027f576040517f08c379a00000000000000000000000000000000000000000000000000000000081526004016102769061161c565b60405180910390fd5b600061028a82610369565b905060011515600080846101400151815260200190815260200160002060009054906101000a90505050808051906020012092507f000000000000000000000000000000000000000000000000000000000000000073ffffffffffffffffffffffffffffffffffffffff1663934f3a1184838561016001516040518463ffffffff1660e01b81526004016103209392919061153e565b60006040518083038186803b15801561033857600080fd5b505afa15801561034c573d6000803e3d6000fd5b5050505050600192505050919050565b6000804690508091505090565b606060006103876103798461079f565b6103828561075d565b61089b565b805190602001209050601960f81b600160f81b6103a261081c565b836040516020016103b694939291906113cc565b604051602081830303815290604052915050919050565b60008060006103db84610878565b905060001515600080836101400151815260200190815260200160002060009054906101000a900460ff16151514610448576040517f08c379a000000000000000000000000000000000000000000000000000000000815260040161043f9061161c565b60405180910390fd5b6001600080836101400151815260200190815260200160002060006101000a81548160ff021916908315150217905550806000015173ffffffffffffffffffffffffffffffffffffffff163373ffffffffffffffffffffffffffffffffffffffff16146104ea576040517f08c379a00000000000000000000000000000000000000000000000000000000081526004016104e1906115fc565b60405180910390fd5b60006104f582610369565b9050808051906020012092507f000000000000000000000000000000000000000000000000000000000000000073ffffffffffffffffffffffffffffffffffffffff1663934f3a1184838561016001516040518463ffffffff1660e01b81526004016105639392919061153e565b60006040518083038186803b15801561057b57600080fd5b505afa15801561058f573d6000803e3d6000fd5b505050505060005a90506105d1826020015183604001518460600151856080015160008760e00151146105c6578660a001516105cc565b6109c45a035b6108c7565b93506105e65a8261091390919063ffffffff16565b905083806105f9575060008260a0015114155b80610609575060008260e0015114155b610648576040517f08c379a000000000000000000000000000000000000000000000000000000000815260040161063f9061165c565b60405180910390fd5b6000808360e00151111561067857610675828460c001518560e00151866101000151876101200151610933565b90505b84156106eb57826020015173ffffffffffffffffffffffffffffffffffffffff167fb84985ee6912e169f5f446f739bfe323890314ccd37862ae1452cbba5fe18c1284600001518560400151866060015187608001516040516106de949392919061143e565b60405180910390a2610754565b826020015173ffffffffffffffffffffffffffffffffffffffff167f071547af80e3d5a99bba7bbc9bfb5606512d75cfb1d4e2aee66face3f539100a846000015185604001518660600151876080015160405161074b949392919061143e565b60405180910390a25b50505050919050565b60608160e001518261010001518361012001518461014001516040516020016107899493929190611697565b6040516020818303038152906040529050919050565b60607fe862762e9cc423ab9325aacefda6c3feadcb9e6aa390fbbd3667781066ee542960001b82600001518360200151846040015185606001518051906020012086608001518760a001518860c001516040516020016108069897969594939291906114c0565b6040516020818303038152906040529050919050565b60007f47e79534a245952e8b16893a336b85a3d9ea9fa8c573f3d803afb92a7946921860001b61084a61035c565b3060405160200161085d93929190611583565b60405160208183030381529060405280519060200120905090565b610880610bf0565b81806020019051810190610894919061114a565b9050919050565b606082826040516020016108b092919061141a565b604051602081830303815290604052905092915050565b60006001808111156108d557fe5b8360018111156108e157fe5b14156108fa576000808551602087018986f4905061090a565b600080855160208701888a87f190505b95945050505050565b60008282111561092257600080fd5b600082840390508091505092915050565b600080600073ffffffffffffffffffffffffffffffffffffffff168373ffffffffffffffffffffffffffffffffffffffff16146109705782610972565b325b9050600073ffffffffffffffffffffffffffffffffffffffff168473ffffffffffffffffffffffffffffffffffffffff161415610a57576109dc3a86106109b9573a6109bb565b855b6109ce888a610ad390919063ffffffff16565b610af290919063ffffffff16565b91508073ffffffffffffffffffffffffffffffffffffffff166108fc839081150290604051600060405180830381858888f19350505050610a52576040517f08c379a0000000000000000000000000000000000000000000000000000000008152600401610a49906115dc565b60405180910390fd5b610ac9565b610a7c85610a6e888a610ad390919063ffffffff16565b610af290919063ffffffff16565b9150610a89848284610b2c565b610ac8576040517f08c379a0000000000000000000000000000000000000000000000000000000008152600401610abf9061163c565b60405180910390fd5b5b5095945050505050565b600080828401905083811015610ae857600080fd5b8091505092915050565b600080831415610b055760009050610b26565b6000828402905082848281610b1657fe5b0414610b2157600080fd5b809150505b92915050565b60008063a9059cbb8484604051602401808373ffffffffffffffffffffffffffffffffffffffff168152602001828152602001925050506040516020818303038152906040529060e01b6020820180517bffffffffffffffffffffffffffffffffffffffffffffffffffffffff83818316178352505050509050602060008251602084016000896127105a03f13d60008114610bd35760208114610bdb5760009350610be6565b819350610be6565b600051158215171593505b5050509392505050565b604051806101800160405280600073ffffffffffffffffffffffffffffffffffffffff168152602001600073ffffffffffffffffffffffffffffffffffffffff168152602001600081526020016060815260200160006001811115610c5157fe5b8152602001600081526020016000815260200160008152602001600073ffffffffffffffffffffffffffffffffffffffff168152602001600073ffffffffffffffffffffffffffffffffffffffff16815260200160008152602001606081525090565b6000610cc7610cc28461170d565b6116dc565b905082815260208101848484011115610cdf57600080fd5b610cea84828561184e565b509392505050565b6000610d05610d008461170d565b6116dc565b905082815260208101848484011115610d1d57600080fd5b610d2884828561185d565b509392505050565b600081359050610d3f816118cb565b92915050565b600081519050610d54816118cb565b92915050565b600081359050610d69816118e2565b92915050565b600081519050610d7e816118e2565b92915050565b600082601f830112610d9557600080fd5b8135610da5848260208601610cb4565b91505092915050565b600082601f830112610dbf57600080fd5b8151610dcf848260208601610cf2565b91505092915050565b600081359050610de7816118f9565b92915050565b600081519050610dfc816118f9565b92915050565b60006101808284031215610e1557600080fd5b610e206101806116dc565b90506000610e3084828501610d30565b6000830152506020610e4484828501610d30565b6020830152506040610e588482850161109e565b604083015250606082013567ffffffffffffffff811115610e7857600080fd5b610e8484828501610d84565b6060830152506080610e9884828501610dd8565b60808301525060a0610eac8482850161109e565b60a08301525060c0610ec08482850161109e565b60c08301525060e0610ed48482850161109e565b60e083015250610100610ee984828501610d30565b61010083015250610120610eff84828501610d5a565b61012083015250610140610f158482850161109e565b6101408301525061016082013567ffffffffffffffff811115610f3757600080fd5b610f4384828501610d84565b6101608301525092915050565b60006101808284031215610f6357600080fd5b610f6e6101806116dc565b90506000610f7e84828501610d45565b6000830152506020610f9284828501610d45565b6020830152506040610fa6848285016110b3565b604083015250606082015167ffffffffffffffff811115610fc657600080fd5b610fd284828501610dae565b6060830152506080610fe684828501610ded565b60808301525060a0610ffa848285016110b3565b60a08301525060c061100e848285016110b3565b60c08301525060e0611022848285016110b3565b60e08301525061010061103784828501610d45565b6101008301525061012061104d84828501610d6f565b61012083015250610140611063848285016110b3565b6101408301525061016082015167ffffffffffffffff81111561108557600080fd5b61109184828501610dae565b6101608301525092915050565b6000813590506110ad81611909565b92915050565b6000815190506110c281611909565b92915050565b6000602082840312156110da57600080fd5b600082013567ffffffffffffffff8111156110f457600080fd5b61110084828501610d84565b91505092915050565b60006020828403121561111b57600080fd5b600082013567ffffffffffffffff81111561113557600080fd5b61114184828501610e02565b91505092915050565b60006020828403121561115c57600080fd5b600082015167ffffffffffffffff81111561117657600080fd5b61118284828501610f50565b91505092915050565b61119481611787565b82525050565b6111a381611775565b82525050565b6111b281611799565b82525050565b6111c96111c4826117a5565b611890565b82525050565b6111d8816117d1565b82525050565b6111ef6111ea826117d1565b61189a565b82525050565b60006112008261173d565b61120a8185611748565b935061121a81856020860161185d565b611223816118a6565b840191505092915050565b60006112398261173d565b6112438185611759565b935061125381856020860161185d565b80840191505092915050565b61126881611818565b82525050565b6112778161183c565b82525050565b600061128a600583611764565b91507f47533031310000000000000000000000000000000000000000000000000000006000830152602082019050919050565b60006112ca600483611764565b91507f43323031000000000000000000000000000000000000000000000000000000006000830152602082019050919050565b600061130a600483611764565b91507f43323030000000000000000000000000000000000000000000000000000000006000830152602082019050919050565b600061134a600583611764565b91507f47533031320000000000000000000000000000000000000000000000000000006000830152602082019050919050565b600061138a600583611764565b91507f47533031330000000000000000000000000000000000000000000000000000006000830152602082019050919050565b6113c68161180e565b82525050565b60006113d882876111b8565b6001820191506113e882866111b8565b6001820191506113f882856111de565b60208201915061140882846111de565b60208201915081905095945050505050565b6000611426828561122e565b9150611432828461122e565b91508190509392505050565b6000608082019050611453600083018761119a565b61146060208301866113bd565b818103604083015261147281856111f5565b9050611481606083018461126e565b95945050505050565b600060208201905061149f60008301846111a9565b92915050565b60006020820190506114ba60008301846111cf565b92915050565b6000610100820190506114d6600083018b6111cf565b6114e3602083018a61119a565b6114f0604083018961119a565b6114fd60608301886113bd565b61150a60808301876111cf565b61151760a083018661126e565b61152460c08301856113bd565b61153160e08301846113bd565b9998505050505050505050565b600060608201905061155360008301866111cf565b818103602083015261156581856111f5565b9050818103604083015261157981846111f5565b9050949350505050565b600060608201905061159860008301866111cf565b6115a560208301856113bd565b6115b2604083018461125f565b949350505050565b600060208201905081810360008301526115d481846111f5565b905092915050565b600060208201905081810360008301526115f58161127d565b9050919050565b60006020820190508181036000830152611615816112bd565b9050919050565b60006020820190508181036000830152611635816112fd565b9050919050565b600060208201905081810360008301526116558161133d565b9050919050565b600060208201905081810360008301526116758161137d565b9050919050565b600060208201905061169160008301846113bd565b92915050565b60006080820190506116ac60008301876113bd565b6116b9602083018661119a565b6116c6604083018561118b565b6116d360608301846113bd565b95945050505050565b6000604051905081810181811067ffffffffffffffff82111715611703576117026118a4565b5b8060405250919050565b600067ffffffffffffffff821115611728576117276118a4565b5b601f19601f8301169050602081019050919050565b600081519050919050565b600082825260208201905092915050565b600081905092915050565b600082825260208201905092915050565b6000611780826117ee565b9050919050565b6000611792826117ee565b9050919050565b60008115159050919050565b60007fff0000000000000000000000000000000000000000000000000000000000000082169050919050565b6000819050919050565b60008190506117e9826118b7565b919050565b600073ffffffffffffffffffffffffffffffffffffffff82169050919050565b6000819050919050565b60006118238261182a565b9050919050565b6000611835826117ee565b9050919050565b6000611847826117db565b9050919050565b82818337600083830152505050565b60005b8381101561187b578082015181840152602081019050611860565b8381111561188a576000848401525b50505050565b6000819050919050565b6000819050919050565bfe5b6000601f19601f8301169050919050565b600281106118c8576118c76118a4565b5b50565b6118d481611775565b81146118df57600080fd5b50565b6118eb81611787565b81146118f657600080fd5b50565b6002811061190657600080fd5b50565b6119128161180e565b811461191d57600080fd5b5056fea2646970667358221220c62f7aabe43b3fa13329dfe37cd784d466c7036afae30fd31ad86eba94ccea6364736f6c63430007060033",
    "linkReferences": {},
    "deployedLinkReferences": {}
}